:020000040800F2
:100000000000032081A90008316000083960000861
:1000100041600008496000085160000800000000CD
:10002000000000000000000000000000596000080F
:100030006760000800000000756000088360000829
:10004000D1A90008D1A90008D1A90008D1A90008A8
:10005000D1A90008D1A90008D1A90008D1A9000898
:10006000D1A90008D1A90008D1A90008D1A9000888
:10007000D1A90008D1A90008D1A90008D1A9000878
:10008000D1A90008D1A90008D1A90008D1A9000868
:10009000D1A90008D1A90008D1A90008D1A9000858
:1000A000D1A90008D1A90008D1A90008D1A9000848
:1000B000D1A90008D1A90008D1A90008D1A9000838
:1000C000D1A90008D1A90008D1A90008D1A9000828
:1000D00091600008A5600008B9600008D1A9000877
:1000E000D1A90008D1A90008D1A90008D1A9000808
:1000F000D1A90008CD600008D1A90008D1A9000845
:10010000D1A90008D1A90008D1A90008D1A90008E7
:10011000D1A90008D1A90008D1A90008D1A90008D7
:10012000D1A90008D1A90008D1A90008D1A90008C7
:10013000D1A90008D1A90008D1A90008D1A90008B7
:10014000D1A90008D1A90008D1A90008FD600008C4
:10015000D1A90008D1A90008D1A90008D1A9000897
:10016000D1A90008D1A90008D1A90008D1A9000887
:10017000D1A90008D1A90008D1A9000800000000F9
:10018000D1A90008D1A90008D1A90008D1A9000867
:1001900011610008D1A90008D1A90008D1A900085F
:0C01A0000000000000000000D1A90008D1
:1001B00010B5054C237833B9044B13B10448AFF3A1
:1001C00000800123237010BD000200200000000009
:1001D00034B4010808B5034B1BB103490348AFF31E
:1001E000008008BD000000000402002034B40108B3
:1001F00010F8012B11F8013B012A28BF9A42F7D0D1
:10020000D01A7047034613F8012B002AFBD1181AA5
:1002100001387047000000000000000000000000EE
:1002200001F0FF01102A2BDB10F0070F08D010F8A7
:10023000013B013A8B422DD010F0070F42B3F6D1AB
:10024000F0B441EA012141EA014122F007047FF0C4
:1002500000070023F0E80256083C85EA010586EA1B
:10026000010685FA47F5A3FA87F586FA47F6A5FA57
:1002700087F68EB9EED1F0BC01F0FF0102F0070263
:1002800032B110F8013B013A83EA010313B1F8D10E
:100290000020704701387047002D06BF35460338EF
:1002A000073815F0010F07D1013015F4807F02BF28
:1002B000013015F4C03F0130F0BC0138704700BF79
:1002C00081F0004102E000BF83F0004330B54FEA07
:1002D00041044FEA430594EA050F08BF90EA020F74
:1002E0001FBF54EA000C55EA020C7FEA645C7FEA07
:1002F000655C00F0E2804FEA5454D4EB5555B8BF2A
:100300006D420CDD2C4480EA020281EA030382EA9A
:10031000000083EA010180EA020281EA0303362D2C
:1003200088BF30BD11F0004F4FEA01314FF4801CFF
:100330004CEA113102D0404261EB410113F0004F11
:100340004FEA03334CEA133302D0524263EB4303C8
:1003500094EA050F00F0A780A4F10104D5F1200E66
:100360000DDB02FA0EFC22FA05F2801841F10001C1
:1003700003FA0EF2801843FA05F359410EE0A5F195
:1003800020050EF1200E012A03FA0EFC28BF4CF0C6
:10039000020C43FA05F3C01851EBE37101F000457C
:1003A00007D54FF0000EDCF1000C7EEB00006EEB89
:1003B0000101B1F5801F1BD3B1F5001F0CD3490813
:1003C0005FEA30004FEA3C0C04F101044FEA44526A
:1003D00012F5800F80F09A80BCF1004F08BF5FEAF1
:1003E000500C50F1000041EB045141EA050130BDD1
:1003F0005FEA4C0C404141EB0101013C28BFB1F5E3
:10040000801FE9D291F0000F04BF01460020B1FA2D
:1004100081F308BF2033A3F10B03B3F120020CDA00
:100420000C3208DD02F1140CC2F10C0201FA0CF0DE
:1004300021FA02F10CE002F11402D8BFC2F1200C43
:1004400001FA02F120FA0CFCDCBF41EA0C019040F9
:10045000E41AA2BF01EB0451294330BD6FEA040442
:100460001F3C1CDA0C340EDC04F11404C4F120022D
:1004700020FA04F001FA02F340EA030021FA04F33F
:1004800045EA030130BDC4F10C04C4F1200220FA96
:1004900002F001FA04F340EA0300294630BD21FAD4
:1004A00004F0294630BD94F0000F83F4801306BF9A
:1004B00081F480110134013D4EE77FEA645C18BF8E
:1004C0007FEA655C29D094EA050F08BF90EA020F25
:1004D00005D054EA000C04BF1946104630BD91EA1D
:1004E000030F1EBF0021002030BD5FEA545C05D120
:1004F0004000494128BF41F0004130BD14F580045F
:100500003CBF01F5801130BD01F0004545F0FE41D2
:1005100041F470014FF0000030BD7FEA645C1ABF07
:10052000194610467FEA655C1CBF0B46024650EA3E
:10053000013406BF52EA033591EA030F41F400216A
:1005400030BD00BF90F0000F04BF0021704730B5F0
:100550004FF4806404F132044FF000054FF00001C5
:1005600050E700BF90F0000F04BF0021704730B586
:100570004FF4806404F1320410F0004548BF40425B
:100580004FF000013EE700BF42004FEAE2014FEAB0
:1005900031014FEA02701FBF12F07F4393F07F4F8B
:1005A00081F06051704732F07F4208BF704793F08E
:1005B0007F4F04BF41F40021704730B54FF46074A1
:1005C00001F0004521F000411CE700BF50EA0102A4
:1005D00008BF704730B54FF000050AE050EA01024D
:1005E00008BF704730B511F0004502D5404261EBBD
:1005F00041014FF4806404F132045FEA915C3FF4FE
:10060000D8AE4FF003025FEADC0C18BF03325FEA9A
:10061000DC0C18BF033202EBDC02C2F1200300FA4B
:1006200003FC20FA02F001FA03FE40EA0E0021FA70
:1006300002F11444BDE600BF70B54FF0FF0C4CF45E
:10064000E06C1CEA11541DBF1CEA135594EA0C0F10
:1006500095EA0C0F00F0DEF82C4481EA030621EA4B
:100660004C5123EA4C5350EA013518BF52EA033586
:1006700041F4801143F4801338D0A0FB02CE4FF038
:100680000005E1FB02E506F00042E0FB03E54FF068
:100690000006E1FB03569CF0000F18BF4EF0010E60
:1006A000A4F1FF04B6F5007F64F5407404D25FEA5C
:1006B0004E0E6D4146EB060642EAC62141EA55510F
:1006C0004FEAC52040EA5E504FEACE2EB4F1FD0C51
:1006D00088BFBCF5E06F1ED8BEF1004F08BF5FEACF
:1006E000500E50F1000041EB045170BD06F0004681
:1006F00046EA010140EA020081EA0301B4EB5C042E
:10070000C2BFD4EB0C0541EA045170BD41F4801125
:100710004FF0000E013C00F3AB8014F1360FDEBF4A
:10072000002001F0004170BDC4F10004203C35DA26
:100730000C341BDC04F11404C4F1200500FA05F3A9
:1007400020FA04F001FA05F240EA020001F000424A
:1007500021F0004110EBD37021FA04F642EB0601C0
:100760005EEA430E08BF20EAD37070BDC4F10C04EA
:10077000C4F1200500FA04F320FA05F001FA04F2AE
:1007800040EA020001F0004110EBD37041F100019A
:100790005EEA430E08BF20EAD37070BDC4F12005A5
:1007A00000FA05F24EEA020E20FA04F301FA05F20D
:1007B00043EA020321FA04F001F0004121FA04F2B5
:1007C00020EA020000EBD3705EEA430E08BF20EA85
:1007D000D37070BD94F0000F0FD101F000464000BF
:1007E00041EB010111F4801F08BF013CF7D041EA41
:1007F000060195F0000F18BF704703F00046520045
:1008000043EB030313F4801F08BF013DF7D043EA15
:100810000603704794EA0C0F0CEA135518BF95EACB
:100820000C0F0CD050EA410618BF52EA4306D1D152
:1008300081EA030101F000414FF0000070BD50EA71
:10084000410606BF1046194652EA430619D094EAFB
:100850000C0F02D150EA013613D195EA0C0F05D1E5
:1008600052EA03361CBF104619460AD181EA030139
:1008700001F0004141F0FE4141F470014FF00000F1
:1008800070BD41F0FE4141F4780170BD70B54FF08C
:10089000FF0C4CF4E06C1CEA11541DBF1CEA13550C
:1008A00094EA0C0F95EA0C0F00F0A7F8A4EB0504EE
:1008B00081EA030E52EA03354FEA013100F08880E5
:1008C0004FEA03334FF0805545EA131343EA1263AE
:1008D0004FEA022245EA111545EA10654FEA002663
:1008E0000EF000419D4208BF964244F1FD0404F51C
:1008F000407402D25B084FEA3202B61A65EB030578
:100900005B084FEA32024FF480104FF4002CB6EB34
:10091000020E75EB030E22BFB61A754640EA0C00B4
:100920005B084FEA3202B6EB020E75EB030E22BFF4
:10093000B61A754640EA5C005B084FEA3202B6EB35
:10094000020E75EB030E22BFB61A754640EA9C00F4
:100950005B084FEA3202B6EB020E75EB030E22BFC4
:10096000B61A754640EADC0055EA060E18D04FEA82
:10097000051545EA16754FEA06164FEAC30343EA22
:1009800052734FEAC2025FEA1C1CC0D111F4801FEF
:100990000BD141EA00014FF000004FF0004CB6E7E8
:1009A00011F4801F04BF01430020B4F1FD0C88BF87
:1009B000BCF5E06F3FF6AFAEB5EB030C04BFB6EB92
:1009C000020C5FEA500C50F1000041EB045170BD85
:1009D0000EF0004E4EEA113114EB5C04C2BFD4EBB2
:1009E0000C0541EA045170BD41F480114FF0000E36
:1009F000013C90E645EA060E8DE60CEA135594EAB2
:100A00000C0F08BF95EA0C0F3FF43BAF94EA0C0FB4
:100A10000AD150EA01347FF434AF95EA0C0F7FF429
:100A200025AF104619462CE795EA0C0F06D152EA7D
:100A300003353FF4FDAE1046194622E750EA410661
:100A400018BF52EA43067FF4C5AE50EA41047FF472
:100A50000DAF52EA43057FF4EBAE12E74A0011D224
:100A600012F5001211D20DD56FF47873B3EB625208
:100A70000ED44FEAC12343F0004343EA505323FA14
:100A800002F070474FF00000704750EA013002D189
:100A90004FF0FF3070474FF00000704753B94AB92C
:100AA000002908BF00281CBF4FF0FF314FF0FF3076
:100AB00000F06AB9ADF1080C6DE904CE00F006F85B
:100AC000DDF804E0DDE9022304B070472DE9F047CA
:100AD000089D0C46002B4ED194468C458646B2FAB2
:100AE00082F262D94AB1C2F12003914020FA03F3A5
:100AF0000CFA02FC194300FA02FE4FEA1C471FFAE7
:100B00008CF6B1FBF7F44FEA1E4307FB141143EADE
:100B1000014304FB06F199420AD91CEB030304F1DB
:100B2000FF3080F01281994240F20F81023C634411
:100B3000591A1FFA8EF3B1FBF7F007FB101143EAC5
:100B4000014300FB06F69E420AD91CEB030300F1A9
:100B5000FF3180F0FC809E4240F2F980634402380D
:100B60009B1B40EA044000211DB1D3400022C5E98F
:100B70000032BDE8F0878B4205D90DB1C5E900010F
:100B800000210846F5E7B3FA83F1002946D1A342D4
:100B900002D39042C0F0F080861A64EB0303012078
:100BA000002DE6D0C5E90063E3E7002A40F090801D
:100BB000A1EB0C044FEA1C481FFA8CF70121B4FB8F
:100BC000F8F64FEA1E4308FB164443EA044307FBCA
:100BD00006F0984208D91CEB030306F1FF3402D259
:100BE000984200F2CD8026461C1A1FFA8EF3B4FB01
:100BF000F8F008FB104443EA044300FB07F79F4268
:100C000008D91CEB030300F1FF3402D29F4200F22B
:100C1000B0802046DB1B40EA0640A5E7C1F1200674
:100C20008B4022FA06F71F4320FA06FC04FA01F370
:100C300043EA0C03F44000FA01F8380C4FEA134978
:100C4000B4FBF0FE1FFA87FC00FB1E4449EA044493
:100C50000EFB0CF9A14502FA01F20AD93C190EF17A
:100C6000FF3A80F08480A14540F28180AEF1020E0F
:100C70003C44A4EB09041FFA83F9B4FBF0F300FB36
:100C8000134449EA044403FB0CFCA44507D93C196E
:100C900003F1FF3067D2A44565D9023B3C4443EAE7
:100CA0000E40A0FB0293A4EB0C049C42CE469C4653
:100CB00051D34ED055B1B8EB0E0364EB0C0404FADB
:100CC00006F6CB401E43CC40C5E90064002150E746
:100CD000C2F1200320FA03F10CFA02FC24FA03F318
:100CE00094400C434FEA1C4800FA02FE1FFA8CF7AE
:100CF000B3FBF8F008FB1031230C43EA014300FB7F
:100D000007F1994208D91CEB030300F1FF362CD2FE
:100D100099422AD9023863445B1AA4B2B3FBF8F1B2
:100D200008FB113344EA034401FB07F3A34208D94B
:100D30001CEB040401F1FF3613D2A34211D902398E
:100D40006444E41A41EA004139E70446F0E6084603
:100D500006E7C845AED2B9EB020E63EB070C0138CB
:100D6000A8E73146EDE7034699E73046D4E7D64693
:100D70007FE7634402384DE70646234608460FE7FF
:100D8000023E634430E700BF704700BF80B500AF4C
:100D9000034B1B680821184610F084FB00BF80BD80
:100DA0001C02002080B500AF034B1B6808211846C9
:100DB00010F040FC00BF80BD1C02002080B485B054
:100DC00000AF0346FB71FB7907EE903AB8EE677A05
:100DD000DFED0A6AC7EE267A9FED097A67EE877A19
:100DE000FCEEE77A17EE903AFB60064AFB68D363A5
:100DF00000BF1437BD465DF8047B70470000C84251
:100E0000000080450008004080B400AF034B002282
:100E10001A7000BFBD465DF8047B704720020020B9
:100E200080B500AF2B4B1B78042B4CD801A252F895
:100E300023F000BFC70E0008490E0008650E000829
:100E40008D0E0008BB0E000809F02AFE0346224A58
:100E500013604620FFF7B2FFFFF798FF1D4B0222F9
:100E60001A7035E009F01CFE02461B4B1B68D31AB2
:100E7000B3F5FA7F29D309F013FE0346164A13602F
:100E8000FFF790FF134B03221A701EE009F008FED3
:100E90000246114B1B68D31AB3F5FA7F17D909F034
:100EA000FFFD03460C4A13604620FFF787FFFFF75C
:100EB0006DFF084B02221A7009E0FFF773FF054B24
:100EC00000221A7004E000BF02E000BF00E000BF93
:100ED00000BF80BD200200202402002080B400AFAB
:100EE000034B00221A7000BFBD465DF8047B7047BB
:100EF00021020020B0B500AF50222021404819F057
:100F00003DFD404B1C683F4B1B681846FFF77AF9C4
:100F100003461A4621463A4819F0CDFD3A4B1B7854
:100F2000032B67D801A252F823F000BFF50F000889
:100F30003D0F00088F0F0008E10F0008334D344BC0
:100F40001C68334B1B681846FFF75CF903461A46CA
:100F50002146284619F0AFFD2E4D2F4B1C682E4B15
:100F60001B681846FFF74EF903461A4621462846E5
:100F700019F0A1FD294B1B780E2B06D1284B01221D
:100F80001A70214B02221A7000E000BF33E01F4D9F
:100F9000244B1C68234B1B681846FFF733F90346A4
:100FA0001A462146284619F086FD1A4D1E4B1C682C
:100FB0001D4B1B681846FFF725F903461A462146C4
:100FC000284619F078FD154B1B78102B06D1144BD1
:100FD00004221A700C4B03221A7000E000BF0AE0D2
:100FE000124B1B6843F00803104A1360082002F0FC
:100FF00031FA00E000BF024800F034F900BFB0BD94
:1010000034020020000000202102002048020020BD
:1010100004000020700200200800002029010020A8
:10102000200200200C000020100000205C0700209F
:1010300080B582B000AF03460A46FB711346BB7110
:10104000FB79022B28D0022B37DC002B02D0012B9E
:1010500011D032E0BB79002B06D100224FF4807111
:1010600018480AF02DFC29E001224FF48071154840
:101070000AF026FC22E0BB79002B06D100224FF4B7
:10108000007110480AF01CFC18E001224FF40071B6
:101090000C480AF015FC11E0BB79002B06D10022A8
:1010A0004FF4806107480AF00BFC07E001224FF47F
:1010B000806104480AF004FC00E000BF00BF08376C
:1010C000BD4680BD0014024080B500AF09F0E8FCC9
:1010D0000346094A1360094B00221A7000210020C0
:1010E000FFF7A6FF00210120FFF7A2FF0021022049
:1010F000FFF79EFF00BF80BD280200202C020020C9
:1011000080B500AF09F0CCFC0246474B1B68D31AF0
:10111000B3F57A7F40F2858009F0C2FC0346424A6B
:101120001360424B1B78052B7AD801A252F823F0AA
:10113000491100086F11000895110008BB11000843
:10114000E11100080712000801210020FFF770FFDD
:1011500000210120FFF76CFF00210220FFF768FF4C
:10116000324B1B780133DAB2304B1A7059E0002150
:101170000020FFF75DFF00210120FFF759FF00214C
:101180000220FFF755FF294B1B780133DAB2274BBA
:101190001A7046E000210020FFF74AFF01210120DC
:1011A000FFF746FF00210220FFF742FF1F4B1B788D
:1011B0000133DAB21D4B1A7033E000210020FFF733
:1011C00037FF00210120FFF733FF00210220FFF746
:1011D0002FFF164B1B780133DAB2144B1A7020E044
:1011E00000210020FFF724FF00210120FFF720FF4E
:1011F00001210220FFF71CFF0C4B1B780133DAB2F0
:101200000A4B1A700DE000210020FFF711FF0021AA
:101210000120FFF70DFF00210220FFF709FF00E08A
:1012200000BF00BF80BD00BF280200202C020020AC
:1012300080B586B002AF0346FB7100233B73FB7998
:101240007B73074B186807F10C024FF47A73009315
:10125000022378210CF0C6FD00BF1037BD4680BDCB
:101260003002002080B5B8B002AF78600023A7F844
:10127000D6300023A7F8D4300023C7F8D0304EE092
:101280000023C7F8CC3020E0B7F8D4305A1CA7F8B8
:10129000D420D8333B44C02203F8D02CB7F8D63042
:1012A0005A1CA7F8D6201A467B681A44B7F8D430DF
:1012B000591CA7F8D4101278D8333B4403F8D02C2B
:1012C000D7F8CC300133C7F8CC30D7F8CC30132B5B
:1012D000DADD0023C7F8C83018E0B7F8D4305A1C5C
:1012E000A7F8D420D8333B44C02203F8D02CB7F859
:1012F000D4305A1CA7F8D420D8333B44002203F83A
:10130000D02CD7F8C8300133C7F8C830D7F8C83068
:10131000032BE2DDD7F8D0300133C7F8D030D7F84F
:10132000D030032BACDD9020FFF782FF0020FFF7C9
:101330007FFF0A4B186807F108024FF47A73009395
:10134000C02378210CF04EFD0346002B01D000F0A5
:1013500007F800BFD837BD4680BD00BF300200206F
:1013600080B500AF052009F0A7FB464B04229A6127
:101370000A2009F0A1FB434B4FF480229A610A2016
:1013800009F09AFB3F4B04229A610A2009F094FB72
:101390002020FFF74DFF0120FFF74AFF142009F03E
:1013A0008BFB9020FFF744FF0020FFF741FF062052
:1013B000FFF73EFF0C20FFF73BFF2120FFF738FF30
:1013C0001220FFF735FF4020FFF732FF3020FFF7F4
:1013D0002FFF6F20FFF72CFF7320FFF729FF6420FA
:1013E00009F06AFB2320FFF723FF8120FFF720FF8E
:1013F0002720FFF71DFF8220FFF71AFF0020FFF7CD
:1014000017FFA720FFF714FF2220FFF711FF60202E
:10141000FFF70EFF1320FFF70BFF4420FFF708FF35
:101420002320FFF705FF8820FFF702FF8820FFF742
:10143000FFFE8820FFF7FCFE8820FFF7F9FE28203A
:10144000FFF7F6FEB220FFF7F3FEEF20FFF7F0FE06
:101450000020FFF7EDFE9320FFF7EAFE9820FFF74C
:10146000E7FEE320FFF7E4FE2020FFF7E1FE9120F6
:10147000FFF7DEFE0020FFF7DBFE642009F01CFB17
:1014800000BF80BD0004024080B500AF064B0022C3
:101490001A70064B1B680021184610F003F8322022
:1014A00000F038F900BF80BD8802002084020020CF
:1014B000B0B500AF50222021884819F05FFA884B60
:1014C0001C68874B1B681846FEF79CFE03461A46AD
:1014D0002146824819F0EFFA824B1B78062B00F266
:1014E000F38001A252F823F0C91600080515000880
:1014F00061150008B51500081116000863160008EC
:10150000B5160008784D794B1C68784B1B68184657
:10151000FEF778FE03461A462146284619F0CBFA14
:10152000734D744B1C68734B1B681846FEF76AFEBC
:1015300003461A462146284619F0BDFA6E4B1B7821
:101540000E2B0BD1674B02221A7009F0A9FA034641
:101550006A4A1360142000F0DDF800E000BFB8E034
:10156000614D674B1C68664B1B681846FEF74AFEC8
:1015700003461A462146284619F09DFA5C4D614BF8
:101580001C68604B1B681846FEF73CFE03461A4673
:101590002146284619F08FFA09F082FA0246574B85
:1015A0001B68D31AB3F57A7F40F290804D4B03222B
:1015B0001A708BE04C4D524B1C68514B1B681846FF
:1015C000FEF720FE03461A462146284619F073FA14
:1015D000474D4C4B1C684B4B1B681846FEF712FEE0
:1015E00003461A462146284619F065FA424B1B78F5
:1015F000102B0BD13B4B04221A7009F051FA034611
:101600003E4A1360502000F085F800E000BF60E023
:10161000354D3D4B1C683C4B1B681846FEF7F2FDF0
:1016200003461A462146284619F045FA304D374BF5
:101630001C68364B1B681846FEF7E4FD03461A4645
:101640002146284619F037FA09F02AFA02462B4BB0
:101650001B68D31AB3F57A7F3AD9224B05221A7048
:1016600036E0214D284B1C68254B1B681846FEF7B9
:10167000C9FD03461A462146284619F01CFA1C4D9E
:10168000224B1C681F4B1B681846FEF7BBFD034628
:101690001A462146284619F00EFA174B1B78102BD4
:1016A00006D1104B06221A70322000F033F800E009
:1016B00000BF0EE0052001F0CDFE154B1B6843F086
:1016C0000403134A136004E000BF02E000BF00E01F
:1016D00000BF0248FFF7C6FD00BFB0BD34020020C6
:1016E000140000208802002048020020180000207A
:1016F000700200201C000020290100208C02002024
:101700002000002024000020280000202C000020C1
:101710005C07002080B485B000AF0346FB71FB7905
:1017200007EE903AB8EE677ADFED0A6AC7EE267ADE
:101730009FED097A67EE877AFCEEE77A17EE903A2A
:10174000FB60064AFB68536300BF1437BD465DF873
:10175000047B70470000C84200409C4500040040E4
:1017600080B500AF00224FF4006102480AF0A8F8EB
:1017700000BF80BD0010024080B500AF01224FF4D1
:10178000006102480AF09CF800BF80BD00100240D2
:1017900080B582B000AF0623BB71FFF7E1FF084BB5
:1017A0001868B91D052301220EF0DFFE0346FB7108
:1017B000FFF7E2FFFB7918460837BD4680BD00BF42
:1017C0009002002080B582B000AF0023BB710023DF
:1017D000FB71BB1D184600F013F80346002B02D026
:1017E0006FF0010308E0BB7903F00103002B01D087
:1017F000F923FB7197F9073018460837BD4680BDBD
:1018000080B58AB002AF78600023FB7700237B614C
:101810000023BB610023FB6000233B617B68FF2248
:101820001A7005233B75FFF79BFF0E4B186807F1F5
:101830000C0207F114010A23009302230FF0F0F8C1
:101840000346FB77FFF798FFFB7F002B01D0FB7F60
:1018500003E07A7B7B681A70FB7F18462037BD4611
:1018600080BD00BF9002002080B58CB002AFF86050
:10187000B9607A60002387F827300023FB610023DA
:101880003B6200237B610023BB61FB6800221A706E
:10189000BB6800221A707B6800221A709F233B7776
:1018A000FFF75EFF124B186807F1140207F11C01E5
:1018B0000A23009304230FF0B3F8034687F8273078
:1018C000FFF75AFF97F82730002B02D097F8273000
:1018D0000AE07A7DFB681A70BA7DBB681A70FA7DDF
:1018E0007B681A7097F8273018462837BD4680BDA8
:1018F0009002002080B586B000AF78600023FB60C6
:1019000000233B61D7233B737B681B0CDBB27B73EB
:101910007B681B0ADBB2BB730023FB73FFF720FF5E
:10192000084B186807F10C01052304220EF01DFE78
:101930000346FB75FFF720FFFB7D18461837BD46B1
:1019400080BD00BF9002002080B582B000AFC723E9
:10195000BB71FFF705FF084B1868B91D052301226D
:101960000EF003FE0346FB71FFF706FFFB791846F6
:101970000837BD4680BD00BF9002002080B588B00A
:1019800000AFF860B9601346FB8000237B61002341
:10199000BB6103233B75FB681B0CDBB27B75FB68EB
:1019A0001B0ADBB2BB75FB68DBB2FB75FFF7D8FE29
:1019B000134B186807F114011E2304220EF0D5FD05
:1019C0000346FB77FB7F002B03D0FFF7D5FEFB7FA1
:1019D00012E00B4B1868FB88FA88B9680EF008FF14
:1019E0000346FB77FB7F002B03D0FFF7C5FEFB7F91
:1019F00002E0FFF7C1FEFB7F18462037BD4680BDE1
:101A00009002002080B586B000AF78603960FFF7A3
:101A1000BFFE0023FB6000233B6102233B737B6816
:101A20001B0ADBB27B737B68DBB2BB730023FB73E7
:101A3000FFF796FE144B186807F10C0105230422EA
:101A40000EF093FD0346FB75FB7D002B03D0FFF7E3
:101A500093FEFB7D14E00C4B18684FF400734FF4B9
:101A6000807239680EF081FD0346FB75FB7D002B0B
:101A700003D0FFF781FEFB7D02E0FFF77DFEFB7DDB
:101A800018461837BD4680BD9002002080B500AFD3
:101A9000FFF798FE0346002B02D06FF0010310E021
:101AA000FFF776FE0346002B02D06FF0010308E03B
:101AB000FFF74AFF0346002B02D06FF0010300E05E
:101AC0000023184680BD80B584B000AF0346FB718B
:101AD0000023FB73FFF75CFE0346002B02D06FF080
:101AE00001031CE0FB791B031846FFF703FF0346C5
:101AF000002B0ED06FF0010311E0052008F0DCFF91
:101B0000FB7B0133FB73FB7B642B02D96FF001037A
:101B100005E0FFF757FE0346002BEED100231846E1
:101B20001037BD4680BD80B582B000AF0023FB7189
:101B30000023BB7100237B717A1DB91DFB1D184664
:101B4000FFF792FE0346002B02D06FF001030CE07A
:101B5000FB799D2B05D1BB79602B02D17B79182BAA
:101B600002D04FF0FF3300E0002318460837BD468F
:101B700080BD80B5ADF5805D84B000AF07F1100386
:101B800043F80C0C07F110031A46002342F8043CFA
:101B9000104640F6FC731A46002118F0EFFEFFF7DE
:101BA00011FE0346002B02D06FF001033DE007F168
:101BB0001003043B07F1100210464FF480521946FF
:101BC00050F80C0CFFF7DAFE0346002B02D06FF042
:101BD00001032AE0002307F5805202F10C02136092
:101BE0001AE007F110031A4607F5805303F10C03BE
:101BF0001B681344043B1B78FF2B02D06FF00203D9
:101C000013E007F5805303F10C031B68013307F55C
:101C1000805202F10C02136007F5805303F10C03AC
:101C20001B68B3F5805FDCDB0023184607F580579F
:101C30001037BD4680BD80B5ADF5067D00AF07F518
:101C40000673A3F50573186007F50673A3F586738D
:101C500000221A600433FC220021184618F08EFE80
:101C600007F50673A3F5037300221A600433FC2200
:101C70000021184618F082FE0023C7F81432002312
:101C8000C7F8103217E0D7F810325A4203F00F03AA
:101C900002F00F0258BF5342D9B207F50673A3F5FD
:101CA0008672D7F8103213440A461A70D7F81032E9
:101CB0000133C7F81032D7F81032FF2BE3DD07F5F8
:101CC000867207F50673A3F5057311461868FFF7CA
:101CD00099FE0346002B11D06FF001034BE0052065
:101CE00008F0EAFED7F814320133C7F81432D7F8F7
:101CF0001432642B02DD6FF003033CE0FFF762FD5A
:101D00000346002BEBD107F50673A3F505731B689B
:101D10001B0207F10C014FF480721846FFF72EFEEC
:101D20000346002B02D06FF0040324E00023C7F821
:101D30000C321BE007F50673A3F50372D7F80C32DB
:101D400013441B781946D7F80C325A4203F00F039C
:101D500002F00F0258BF5342994202D06FF00503C0
:101D600009E0D7F80C320133C7F80C32D7F80C323F
:101D7000FF2BDFDD0023184607F50677BD4680BD43
:101D800080B584B000AF78600023BB600023FB60A7
:101D9000FFF7FEFC20233B727B681B0CDBB27B72DF
:101DA0007B681B0ADBB2BB720023FB72FFF7D8FC17
:101DB000064B186807F10801052304220EF0D5FB35
:101DC000FFF7DAFC00BF1037BD4680BD900200204F
:101DD00080B584B000AF78600023BB600023FB6057
:101DE000FFF7D6FC52233B727B681B0CDBB27B7285
:101DF0007B681B0ADBB2BB720023FB72FFF7B0FCEF
:101E0000064B186807F10801052304220EF0ADFB0C
:101E1000FFF7B2FC00BF1037BD4680BD9002002026
:101E200080B588B000AFF860B9601346FB80FB68EE
:101E30001B0A7B610023BB611DE0BA697B69D01876
:101E4000BB691B02BA6813441946FFF7DBFDBB6987
:101E50000133BB610AE0052008F02EFEFB7F013351
:101E6000FB77FB7F642B01D903F0A2F8FFF7AAFCF4
:101E70000346002BEFD1BB691A02FB889A42DCD3E0
:101E800000BF00BF2037BD4680BD0000B0B584B0A4
:101E900000AF0023FB7300237B600023BB60502254
:101EA0002021B34818F06AFDB24B1C68B14B1B6887
:101EB0001846FEF7A7F903461A462146AC4818F023
:101EC000FAFDAD4B1B78122B00F2578201A252F89B
:101ED00023F000BF7B230008211F00083B1F0008E0
:101EE000791F0008AF1F0008CD1F0008EB1F000876
:101EF0002B20000881200008BF200008DD200008FA
:101F0000A9210008E7210008FF2200083F2300085C
:101F10005D230008052200089B220008E12200083A
:101F200008F0BEFD0246954B1B68D31AC82B40F241
:101F30002682914B02221A7021E2FFF7F4FD03463C
:101F4000FB7308F0ADFD03468C4A136097F90F3020
:101F500013F1020F03D1884B04221A701AE297F989
:101F60000F30B3F1FF3F03D1834B05221A7011E20A
:101F7000814B03221A700DE2814D824B1C68814B0C
:101F80001B681846FEF73EF903461A4621462846C6
:101F900018F091FD08F084FD0246784B1B68D31AB7
:101FA000C82B40F2EE81744B0D221A70E9E1744D9A
:101FB000754B1C68744B1B681846FEF723F90346E3
:101FC0001A462146284618F076FDE3E16C4D6F4B2A
:101FD0001C686E4B1B681846FEF714F903461A4638
:101FE0002146284618F067FDD4E1654D684B1C6812
:101FF000674B1B681846FEF705F903461A4621464B
:10200000284618F058FD08F04BFD03465B4A136064
:10201000FFF73CFD0346002B03D1574B07221A70F4
:10202000B8E1554B09221A70B4E1554D594B1C6863
:10203000584B1B681846FEF7E5F803461A4621463A
:10204000284618F038FDFFF7BDFB0346002B08D1EA
:10205000494B08221A7008F023FD0346474A1360D3
:1020600091E108F01DFD0246444B1B68D31A47F26C
:102070003052934240F287813F4B09221A7082E12D
:102080003F4D454B1C68444B1B681846FEF7BAF899
:1020900003461A462146284618F00DFD08F000FDBB
:1020A0000246364B1B68D31AC82B40F26E813B4B5D
:1020B0004FF4A0421A60304B0A221A7065E1304D8D
:1020C000374B1C68364B1B681846FEF79BF80346D7
:1020D0001A462146284618F0EEFC5BE12F4B1868A3
:1020E0003B1D4FF4C0424FF4A04101F067F9244D6D
:1020F0002C4B1C682B4B1B681846FEF783F80346D5
:102100001A462146284618F0D6FC264B1B6818466E
:10211000FEF778F803461633154A9C183B1D1846FF
:10212000FEF770F802463B1D1946204618F0C3FC26
:102130001A4B1B681846FFF71CFD0346002B03D003
:102140000D4B0C221A700DE0144B1B6803F58053E5
:10215000124A1360114B1B68B3F5C04F02D3064BF4
:102160000B221A7008F09CFC0346044A136011E12C
:102170003402002030000020980200209402002049
:102180004802002034000020380000203C000020DD
:10219000400000204400002048000020B40200203D
:1021A0004C000020500000207E4D7F4B1C687E4B71
:1021B0001B681846FEF726F803461A4621462846AD
:1021C00018F079FC08F06CFC0246784B1B68D31AB7
:1021D000C82B40F2DC80764B10221A70754B4FF4FE
:1021E000A0421A60D3E06F4D734B1C68724B1B68A2
:1021F0001846FEF707F803461A462146284618F007
:102200005AFCC7E06B4B18683B1D4FF4C0424FF4BB
:10221000A04101F0D3F8634D684B1C68674B1B6805
:102220001846FDF7EFFF03461A462146284618F0E8
:1022300042FC624B1B681846FDF7E4FF0346163369
:102240005F4A9C183B1D1846FDF7DCFF02463B1D0C
:102250001946204618F02FFC564B1B681B0A1846DF
:10226000FFF7E9FC0346002B13D1524B1B6803F523
:102270008073504A13604F4B1B68B3F5C04F02D3B5
:102280004B4B11221A7008F00BFC0346474A1360AF
:1022900080E0474B12221A707CE0424D494B1C688B
:1022A000484B1B681846FDF7ADFF03461A4621460A
:1022B000284618F000FC08F0F3FB02463B4B1B6875
:1022C000D31AC82B65D93A4B00221A703E4B1B68B3
:1022D00043F080033C4A1360072001F0BBF858E04C
:1022E000304D3A4B1C68394B1B681846FDF78AFF86
:1022F00003461A462146284618F0DDFB4AE0294DE0
:10230000334B1C68324B1B681846FDF77BFF0346B6
:102310001A462146284618F0CEFB0520FFF7D3FBCE
:102320000346002B07D1234B4FF4A0421A60204BE9
:102330000A221A702EE01E4B0F221A702AE0194D45
:10234000244B1C68234B1B681846FDF75BFF0346B4
:102350001A462146284618F0AEFB1BE0114D1E4BD5
:102360001C681D4B1B681846FDF74CFF03461A46B8
:102370002146284618F09FFB0CE000BF0AE000BF92
:1023800008E000BF06E000BF04E000BF02E000BFBD
:1023900000E000BF0A48FEF765FF00BF1037BD46EA
:1023A000B0BD00BF4802002054000020940200206D
:1023B00098020020B4020020580000205C00002099
:1023C00034020020600000205C0700206400002030
:1023D000680000206C0000207000002080B483B0F2
:1023E00000AF0A4B7B607B689BB23B603B68002B75
:1023F00005D07A683B68D31A03F580337B607B682D
:1024000018460C37BD465DF8047B7047802C0300EE
:1024100080B582B000AF78607B68042223491846FB
:1024200018F0B4FA0346002B3AD17B680833042233
:102430001F49184618F0AAFA0346002B30D17B68D2
:102440000C3304221B49184618F0A0FA0346002B4F
:1024500026D17B681B7C102B22D17B681B7D012B36
:102460001ED17B689B7D012B1AD17B681B7E1A468F
:102470007B685B7E1B021343B3F5FA5F10D17B6868
:10248000243304220C49184618F080FA0346002B26
:1024900006D17B6893F82230102B01D1012300E094
:1024A000002318460837BD4680BD00BF08B60108A6
:1024B00010B6010818B6010820B6010890B5C5B0DD
:1024C00000AF07F58873A3F58273186007F588736A
:1024D000A3F58473196007F58873A3F585731A80D3
:1024E00007F58873A3F5807303221A7007F58873C4
:1024F000A3F582731B681B0CDAB207F58873A3F58A
:1025000080735A7007F58873A3F582731B681B0AE2
:10251000DAB207F58873A3F580739A7007F58873AC
:10252000A3F582731B68DAB207F58873A3F580738D
:10253000DA70FFF715F9114B186807F110011E2327
:1025400004220EF012F80D4B186807F58873A3F5F6
:1025500085731C8807F58873A3F585731A8807F5BA
:102560008873A3F58471234609680EF041F9FFF7DB
:1025700003F900BF07F58A77BD4690BD90020020A1
:1025800080B582B000AF786039602C2239687868F5
:10259000FFF794FF3868FFF73BFF0346002B01D09D
:1025A000012300E0002318460837BD4680BD000027
:1025B00080B582B000AF78600C4B07221A700C4ACD
:1025C0007B681360FFF70AFF03460A4A136008F0AE
:1025D00067FA0346084A1360084A13786FF38203C8
:1025E000137000BF0837BD4680BD00BFB002002099
:1025F000A0020020A4020020A80200209C020020CB
:1026000080B400AF00BFBD465DF8047B704700009A
:1026100080B500AF08F044FA0246164B1B68D31A87
:10262000012B0DD908F03CFA0346124A1360124BF5
:102630001B68002B04D0104B1B68013B0E4A136033
:1026400008F02EFA02460D4B1B68D31A642B0ED9E4
:1026500008F026FA0346094A1360094B5B88002BF1
:1026600005D0074B5B88013B9AB2054B5A8000BFEF
:1026700080BD00BFB8020020AC020020BC020020D8
:102680009C02002080B582B000AF786039603B6862
:102690001B68B3F5803F12D37B681B68DBB218461A
:1026A000FFF711FA7B681B6803F580327B681A60BC
:1026B0003B681B68A3F580323B681A6034E03B68D6
:1026C0001B68B3F5004F11D37B681B681846FFF7F2
:1026D0007FFB7B681B6803F500427B681A603B68E0
:1026E0001B68A3F500423B681A601DE03B681B684D
:1026F000002B19D07B681B681846FFF741FB7B68ED
:102700001B6803F580527B681A603B681B68B3F551
:10271000805F03D83B6800221A6005E03B681B68B5
:10272000A3F580523B681A6000BF0837BD4680BDE4
:1027300080B584B000AF786039600023FB73124B22
:102740001B78002B02D0012B0FD017E03B681B68D1
:10275000002B07D039687868FFF794FF0A4B0122F5
:102760001A700BE00123FB7308E0FFF72BF8034618
:10277000002B02D1044B00221A7000BFFB7B1846CD
:102780001037BD4680BD00BFB102002080B500AF4C
:10279000FFF736FFFFF73CFF1D4B1B78082B32D8A5
:1027A00001A252F823F000BF0728000807280008FC
:1027B000072800080728000807280008072800083D
:1027C00007280008CD270008FD27000811491248F6
:1027D000FFF7AEFF0346002B14D00D4B00221A70FA
:1027E0000E4A137843F00403137008F059F90246B7
:1027F0000B4B1B68D31A0A4A136003E0044B0022F8
:102800001A7000E000BF024B1B78184680BD00BF65
:10281000B0020020A4020020A00200209C020020A0
:10282000A802002080B584B000AF0346FB71FFF71B
:10283000D5FD0246FB7902FB03F3FB60FB681846FB
:102840001037BD4680BD80B584B000AF0346396007
:10285000FB710123FB73FB79202B0ED8FB79184603
:10286000FFF7E0FFB8603968B868FFF789FE0346F4
:10287000002B04D10023FB7301E00023FB73FB7BDF
:1028800018461037BD4680BD80B58EB000AF0346F8
:10289000FB7107F10C02FB7911461846FFF7D3FFD5
:1028A0000346002B10D097F834301A4697F835308D
:1028B0001B021A4397F836301B041A4397F8373037
:1028C0001B0613432C3300E0002318463837BD465F
:1028D00080BD80B588B000AFB9607A603B600346C8
:1028E000FB73FB7B1846FFF79DFF7861FFF776FDD2
:1028F0000246BB6893422AD87B681A683B68134437
:10290000BA689A4202D33B68FB8315E00023BB619F
:1029100007E0BA6ABB69134400221A70BB6901332D
:10292000BB61BA693B689A42F3D3BB689AB27B68D1
:102930001B689BB2D31AFB837B681A687B691344BC
:10294000FA8BB96A1846FFF7B9FD012300E00023AE
:1029500018462037BD4680BD80B485B000AF786092
:102960000023FB8105E0FB890133FB81FB89C82B38
:102970000CD8FB897A6813441B78032B07D0FB899A
:102980007A6813441B78002BEDD100E000BFFB896F
:102990007A6813441B78032B04D1FB897A681344AB
:1029A00000221A7000BF1437BD465DF8047B7047E3
:1029B00080B584B000AFF8600B467A60FB72F868AF
:1029C000FFF7CAFF074AFB681360074A7B6813607A
:1029D0007B6802221A70054B10221A7000BF103754
:1029E000BD4680BDB0380020B438002099020020D8
:1029F00080B584B000AF0346FB71FB79202B07D86C
:102A0000FB791846FFF70EFFF860F868FFF7D0FD76
:102A100000BF1037BD4680BD80B586B000AFB9603D
:102A20007A603B600346FB73FB7B1846FFF7FAFEB8
:102A30007861FFF7D3FC0246BB6893420BD87B68F2
:102A40001A687B6913443A6892B2396A1846FFF7EC
:102A5000E7F9012300E0002318461837BD4680BD82
:102A600080B582B000AF03460A46FB711346BB71C6
:102A7000FB79072B00F28C8001A252F823F000BFF3
:102A8000A12A0008BF2A0008DD2A0008FB2A000846
:102A9000192B0008372B0008552B0008732B000852
:102AA000BB79002B05D1002201213C4808F008FF2A
:102AB0006FE001220121394808F002FF69E0BB798B
:102AC000002B05D100220221344808F0F9FE60E015
:102AD00001220221314808F0F3FE5AE0BB79002BB5
:102AE00005D1002204212D4808F0EAFE51E0012220
:102AF00004212A4808F0E4FE4BE0BB79002B05D105
:102B000000220821254808F0DBFE42E001220821CE
:102B1000224808F0D5FE3CE0BB79002B05D100220D
:102B200010211E4808F0CCFE33E0012210211B4882
:102B300008F0C6FE2DE0BB79002B05D10022202134
:102B4000164808F0BDFE24E001222021134808F0B9
:102B5000B7FE1EE0BB79002B05D1002240210F48B3
:102B600008F0AEFE15E0012240210C4808F0A8FE56
:102B70000FE0BB79002B05D100228021074808F027
:102B80009FFE06E001228021044808F099FE00E043
:102B900000BF00BF0837BD4680BD00BF001802401F
:102BA00080B582B000AF0346FB71FB791946002067
:102BB000FFF756FFFB7919460120FFF751FFFB791C
:102BC00019460220FFF74CFFFB7919460320FFF757
:102BD00047FFFB7919460420FFF742FFFB791946AE
:102BE0000520FFF73DFFFB7919460620FFF738FF68
:102BF000FB7919460720FFF733FF00BF0837BD46B2
:102C000080BD000080B500AF07F04AFF0346054ACB
:102C10001360054B00221A700020FFF7C1FF00BFB0
:102C200080BD00BFC0020020C402002080B500AFFC
:102C3000BE4B1B78112B00F2A08101A252F823F0A9
:102C40007B2F0008892C00089F2C0008CB2C000843
:102C5000FD2C0008292D00085B2D0008872D000899
:102C6000B92D0008E52D0008172E0008432E000896
:102C7000752E0008A12E0008D12E0008FB2E00089A
:102C8000352F00085F2F00080020FFF789FF012182
:102C90000720FFF7E5FEA54B02221A708EE107F030
:102CA000FFFE0246A24B1B68D31AB3F52F7F40F2FA
:102CB000668107F0F5FE03469D4A13609B4B032295
:102CC0001A700020FFF76CFF59E107F0E9FE024699
:102CD000974B1B68D31AC82B40F2538107F0E0FED4
:102CE0000346934A1360914B04221A700020FFF7A9
:102CF00057FF01210620FFF7B3FE42E107F0D0FEA7
:102D000002468B4B1B68D31AB3F52F7F40F23B81F1
:102D100007F0C6FE0346864A1360844B05221A70EC
:102D20000020FFF73DFF2EE107F0BAFE0246804B80
:102D30001B68D31AC82B40F2288107F0B1FE034666
:102D40007B4A1360794B06221A700020FFF728FF98
:102D500001210520FFF784FE17E107F0A1FE0246DE
:102D6000734B1B68D31AB3F52F7F40F2108107F025
:102D700097FE03466E4A13606C4B07221A700020C0
:102D8000FFF70EFF03E107F08BFE0246684B1B685E
:102D9000D31AC82B40F2FD8007F082FE0346644A36
:102DA0001360624B08221A700020FFF7F9FE012120
:102DB0000420FFF755FEECE007F072FE02465C4B84
:102DC0001B68D31AB3F52F7F40F2E58007F068FE49
:102DD0000346574A1360554B09221A700020FFF72B
:102DE000DFFED8E007F05CFE0246514B1B68D31AA9
:102DF000C82B40F2D28007F053FE03464C4A1360C2
:102E00004A4B0A221A700020FFF7CAFE0121032054
:102E1000FFF726FEC1E007F043FE0246444B1B6865
:102E2000D31AB3F52F7F40F2BA8007F039FE03467C
:102E30003F4A13603D4B0B221A700020FFF7B0FE93
:102E4000ADE007F02DFE0246394B1B68D31AC82BA4
:102E500040F2A78007F024FE0346354A1360334B47
:102E60000C221A700020FFF79BFE01210220FFF7C1
:102E7000F7FD96E007F014FE02462D4B1B68D31AAF
:102E8000B3F52F7F40F28F8007F00AFE0346284AF1
:102E90001360264B0D221A700020FFF781FE82E09E
:102EA00007F0FEFD0246224B1B68D31AC82B7CD9C3
:102EB00007F0F6FD03461E4A13601C4B0E221A70E3
:102EC0000020FFF76DFE01210120FFF7C9FD6CE036
:102ED00007F0E6FD0246164B1B68D31AB3F52F7FA9
:102EE00065D907F0DDFD0346114A13600F4B0F2231
:102EF0001A700020FFF754FE59E007F0D1FD02469A
:102F00000B4B1B68D31AC82B53D907F0C9FD0346D6
:102F1000074A1360054B10221A700020FFF740FE8D
:102F200001210020FFF79CFD43E000BFC402002008
:102F3000C002002007F0B4FD0246214B1B68D31AE3
:102F4000B3F52F7F37D907F0ABFD03461C4A13605A
:102F50001C4B11221A700020FFF722FE2BE007F015
:102F60009FFD0246164B1B68D31AC82B25D907F0C4
:102F700097FD0346124A13601FE000BF1EE000BF2A
:102F80001CE000BF1AE000BF18E000BF16E000BF61
:102F900014E000BF12E000BF10E000BF0EE000BF71
:102FA0000CE000BF0AE000BF08E000BF06E000BF81
:102FB00004E000BF02E000BF00E000BF00BF80BD32
:102FC000C0020020C4020020B0B586B000AF50227D
:102FD0002021A04817F0D2FC9F4B1C689E4B1B6819
:102FE0001846FDF70FF903461A462146994817F08F
:102FF00062FD9A4B1B78042B00F2248101A252F847
:1030000023F000BF45320008193000087530000871
:10301000E531000831320008914D924B1C68914B0C
:103020001B681846FDF7EEF803461A462146284667
:1030300017F041FD8C4D8D4B1C688C4B1B6818465E
:10304000FDF7E0F803461A462146284617F033FDFF
:10305000874B1B780E2B0BD1864B01221A707F4BAE
:1030600002221A7007F01CFD0346834A136000E039
:1030700000BFE8E07F4B1B78023B0F2B00F2B080D3
:1030800001A252F823F000BFC9300008E131000866
:10309000EB300008E13100080D310008E131000893
:1030A0002F310008E131000851310008E1310008FA
:1030B00073310008E131000895310008E131000862
:1030C000B7310008D93100083B1D6C49184617F08C
:1030D0005DFB6B4C3B1D1846FDF794F802463B1D0B
:1030E0001946204617F0E7FC7BE03B1D6549184672
:1030F00017F04CFB624C3B1D1846FDF783F8024667
:103100003B1D1946204617F0D6FC6AE03B1D5E4980
:10311000184617F03BFB5A4C3B1D1846FDF772F85A
:1031200002463B1D1946204617F0C5FC59E03B1DE1
:103130005649184617F02AFB514C3B1D1846FDF71F
:1031400061F802463B1D1946204617F0B4FC48E0E2
:103150003B1D4F49184617F019FB494C3B1D1846BB
:10316000FDF750F802463B1D1946204617F0A3FC18
:1031700037E03B1D4749184617F008FB404C3B1D04
:103180001846FDF73FF802463B1D1946204617F04A
:1031900092FC26E03B1D4049184617F0F7FA384CE0
:1031A0003B1D1846FDF72EF802463B1D19462046EA
:1031B00017F081FC15E03B1D3849184617F0E6FA78
:1031C0002F4C3B1D1846FDF71DF802463B1D1946C6
:1031D000204617F070FC04E0204B03221A7000E038
:1031E00000BF30E01E4D2E4B1C682D4B1B6818464F
:1031F000FDF708F803461A462146284617F05BFCFF
:10320000194D284B1C68274B1B681846FCF7FAFF22
:1032100003461A462146284617F04DFC144B1B78EE
:10322000102B03D10D4B04221A7000E000BF0AE0FE
:103230001D4B1B6843F002031B4A1360032000F080
:1032400009F900E000BF0348FEF70CF800BF18378B
:10325000BD46B0BD3402002074000020C50200202D
:103260004802002078000020700200207C0000202E
:1032700029010020C4020020C00200207CB6010801
:103280005C0200208CB60108A0B60108ACB60108AB
:10329000BCB60108C4B60108CCB60108D4B6010812
:1032A00080000020840000205C07002080B500AF73
:1032B00007F0F6FB0346094A1360094B00221A7017
:1032C000084B01221A7050222021074817F056FBA4
:1032D0000548FDF7C7FF00BF80BD00BFC802002042
:1032E000CC020020C60200203402002080B582B04B
:1032F00000AF00237B602C4B1B78012B4DD107F0D6
:10330000CFFB0246294B1B68D31A40F6B8329342D2
:1033100045D907F0C5FB0346244A136050222021FB
:10332000234817F02BFB234B1B785A1CD1B2214AA0
:103330001170032B1FD801A252F823F04D3300085F
:1033400053330008593300085F33000800237B60C3
:1033500012E001237B600FE002237B600CE003237B
:103360007B60144B00221A700F4B00221A70012050
:1033700000F070F800E000BF7A6813469B00134429
:103380009B001A460A4B134414220B49184617F0A7
:1033900092FB0748FDF766FF02E000BF00E000BFB8
:1033A00000BF0837BD4680BDC6020020C80200200D
:1033B00034020020CC02002008BB010880B588B090
:1033C00000AF78613961FA60BB604FF00003FB61C8
:1033D0000023FB767A693B69D31A7B61FA683B6903
:1033E000D31AFB607B6907EE903AF8EE676AFB68D8
:1033F00007EE903AB8EE677AC6EE877A9FED0B7AC1
:1034000067EE877AC7ED077AD7ED077AFCEEE77AA1
:10341000C7ED017A3B79FB76FB7E1A460449B86812
:1034200017F0B4F900BF2037BD4680BD0000C84288
:10343000DCB6010880B500AF044B00221A7007F01B
:103440002FFB0346024A136000BF80BDCD0200205F
:10345000D402002080B582B000AF0346FB7107F0B4
:103460001FFB03465E4A13605E4AFB791370FB79CB
:10347000023B0A2B00F2AE8001A252F823F000BFFB
:10348000BB340008CF340008AD340008E334000832
:10349000F734000815350008333500086735000893
:1034A0008535000899350008B73500084E4B1B6874
:1034B00023F001034C4A13608DE04C4B01221A703B
:1034C000494B1B6823F00203474A136083E0484BD3
:1034D00001221A70444B1B6823F00403424A136014
:1034E00079E0444B01221A703F4B1B6823F008031C
:1034F0003D4A13606FE0404B01221A7007F0D0FA8A
:1035000003463E4A1360384B1B6823F08003364A5B
:10351000136060E03A4B01221A7007F0C1FA0346CB
:10352000384A1360304B1B6823F480732E4A1360B3
:1035300051E0354B01221A7007F0B2FA0346334AC4
:103540001360294B1B6823F01003274A1360264B96
:103550001B6823F02003244A1360234B1B6823F0CD
:103560004003214A13602A4B01221A7007F098FA8F
:103570000346284A13601C4B1B6823F400731A4A45
:10358000136028E0244B01221A70174B1B6823F4A8
:103590008063154A13601EE0204B01221A7007F069
:1035A0007FFA03461E4A13600F4B1B6823F4006327
:1035B0000D4A13600FE01B4B01221A7007F070FADE
:1035C0000346194A1360084B1B6823F48053064ACC
:1035D000136000E000BF00BF0837BD4680BD00BFDC
:1035E000D0020020CD0200205C070020C502002090
:1035F000880200202102002098020020940200206E
:10360000A4070020A00700200603002008030020D4
:103610008607002088070020AE3800204A340020AA
:103620004C340020D8020020DC02002080B582B09B
:1036300000AF07F035FA0246124B1B68D31A40F66A
:10364000C412934203D90420FFF704FF16E050226E
:1036500020210D4817F092F90023FB7108E0FA7958
:10366000FB790A49895C084AD154FB790133FB7123
:10367000FB79122BF3D90448FDF7F4FD00BF08379E
:10368000BD4680BDD00200203402002020BB0108CE
:1036900080B500AF07F004FA0246294B1B68D31A25
:1036A000322B4AD907F0FCF90346254A1360254B13
:1036B0001B78013B0B2B3FD801A252F823F000BF2F
:1036C000F1360008F7360008FD3600080337000819
:1036D000093700080F370008153700081B370008A6
:1036E00021370008273700082D3700083337000836
:1036F000FFF79CFF21E0FFF767FC1EE0FDF7D8FE17
:103700001BE004F019F918E0FDF7F4FB15E0FEF7F3
:10371000BDFB12E001F0D2FF0FE000F089FC0CE0ED
:1037200001F012FE09E006F03BFC06E006F00AF9A3
:1037300003E000F059F800E000BF00BF80BD00BF0B
:10374000D4020020CD02002080B483B000AF034635
:10375000FB71FB79092B06D8FB793033DAB2184BB1
:1037600083F823201AE0FB79164AA2FB0323DB0827
:10377000DBB23033DAB2124B83F82220FA79114BE4
:10378000A3FB0213D9080B469B000B445B00D31A22
:10379000DBB23033DAB20A4B83F82320084B2F22F6
:1037A00083F82420064B332283F82520044B322251
:1037B00083F8262000BF0C37BD465DF8047B7047B8
:1037C00034020020CDCCCCCC80B500AF044B00221D
:1037D0001A7007F065F90346024A136000BF80BD06
:1037E000D8020020DC020020B0B500AF502220211A
:1037F000B04817F0C3F8B04B1C68AF4B1B681846B5
:10380000FCF700FD03461A462146AA4817F053F973
:10381000AA4B1B78092B00F2C68101A252F823F0B3
:10382000A73B0008493800087B380008BB3800086F
:103830002D3900089D390008EB3900084D3A000881
:10384000F13A0008893B00089D4D9E4B1C689D4B3A
:103850001B681846FCF7D6FC03461A462146284644
:1038600017F029F9984A137843F008031370934B23
:1038700002221A7004F0B8FE9EE1914D914B1C6833
:10388000904B1B681846FCF7BDFC03461A462146C0
:10389000284617F010F98C4B1B7803F00803DBB2B5
:1038A000002B40F08281854B03221A70874B002247
:1038B0001A70874B00221A7077E1814D854B1C6886
:1038C000844B1B681846FCF79DFC03461A462146AC
:1038D000284617F0F0F87D4B1B781A467E497F4842
:1038E00016F054FF7E4C7D48FCF78CFC03461A46CC
:1038F0007A49204617F0DFF8744B1B780133DBB2AE
:103900001846FFF721FF754806F0DAFA0346002B48
:1039100008D06A4B04221A7007F0C2F80346714AB5
:10392000136049E1654B05221A7045E1644D694B0E
:103930001C68684B1B681846FCF764FC03461A4673
:103940002146284617F0B7F8604B1B781A466249A3
:10395000624816F01BFF624C6048FCF753FC0346BC
:103960001A465E49204617F0A6F8584B1B780133DB
:10397000DBB21846FFF7E8FE07F092F80246594B13
:103980001B68D31A642B40F212814C4B06221A702A
:1039900007F086F80346534A136008E1484D524B3E
:1039A0001C68514B1B681846FCF72CFC03461A4652
:1039B0002146284617F07FF8444B1B781A464649A3
:1039C000464816F0E3FE464C4448FCF71BFC034611
:1039D0001A464249204617F06EF83C4B1B780133DB
:1039E000DBB21846FFF7B0FEE6E0354D394B1C68F8
:1039F000384B1B681846FCF705FC03461A4621465F
:103A0000284617F058F8314B1B781A46324933488C
:103A100016F0BCFE324C3148FCF7F4FB03461A4664
:103A20002E49204617F047F8284B1B780133DBB2AC
:103A30001846FFF789FE264B1B782C4A1946274863
:103A400006F06AFF1D4B07221A70B5E01C4D214B92
:103A50001C68204B1B681846FCF7D4FB03461A462B
:103A60002146284617F027F8184B1B781A461A49A2
:103A70001A4816F08BFE1A4C1848FCF7C3FB034695
:103A80001A461649204617F016F8104B1B780133DA
:103A9000DBB21846FFF758FE144B1B78002B40F0A2
:103AA0008880064B08221A7006F0FAFF03460D4A7A
:103AB00013607EE03402002088000020D80200203D
:103AC000480200208C0000200C340020E00200207E
:103AD000E10200209000002038B70108E402002035
:103AE0005C020020DC02002094000020EC02002098
:103AF000344D354B1C68344B1B681846FCF782FB71
:103B000003461A462146284616F0D5FF2F4B1B7850
:103B10001A462F492F4816F039FE2F4C2D48FCF736
:103B200071FB03461A462B49204616F0C4FF274B6B
:103B30001B780133DBB21846FFF706FE06F0B0FF34
:103B40000246264B1B68D31A642B34D91F4B1B78B3
:103B50001E2B0FD81D4B1B780133DAB21B4B1A708A
:103B60001A4B1B780133DAB21D4B1A701D4B03221E
:103B70001A7020E01B4B09221A701B4B1B6843F480
:103B80008053194A136016E00E4D184B1C68174BF2
:103B90001B681846FCF736FB03461A4621462846A2
:103BA00016F089FF08E000BF06E000BF04E000BF98
:103BB00002E000BF00E000BF0D48FDF753FB00BF6F
:103BC000B0BD00BF4802002090000020E0020020AD
:103BD00038B70108E40200205C020020DC0200206B
:103BE000E1020020D80200205C070020980000209D
:103BF0003402002080B588B000AF4FF00003BB61F5
:103C0000AD4B1B6803F00203002B00F08C81AA4B24
:103C1000DB6C9BB27B610023BB830123BB60A74BA2
:103C20001B78072B00F2688101A252F823F000BF35
:103C3000513C0008C33C0008F93E0008F93E00086A
:103C4000F93E0008353D0008B93D00082F3E000848
:103C50000123FB7713E0FA7FFB7F013B984931F8A2
:103C60001210974A22F81310FB7F013B944A32F856
:103C70001320BB8B1344BB83FB7F0133FB77FB7F9C
:103C8000032BE8D97B699AB28D4BDA80BA8B7B69BA
:103C9000134404339B087B617B6940F6E44203FBD9
:103CA00002F2884BA3FB0213D21A520813445B0A98
:103CB0009AB2854B1A8001237B60804B01221A70D7
:103CC00020E10123FB7713E0FA7FFB7F013B7F4973
:103CD00031F812107D4A22F81310FB7F013B7B4A1A
:103CE00032F81320BB8B1344BB83FB7F0133FB777C
:103CF000FB7F032BE8D97B699AB2744BDA80BA8BCD
:103D00007B69134404339B087B617B6940F6E44282
:103D100003FB02F26B4BA3FB0213D21A52081344AB
:103D20005B0A9AB26A4B1A8005237B60634B0522BB
:103D30001A70E7E00123FB7713E0FA7FFB7F013B7A
:103D4000644931F81210634A22F81310FB7F013BDB
:103D5000604A32F81320BB8B1344BB83FB7F0133D3
:103D6000FB77FB7F032BE8D97B699AB2594BDA804A
:103D7000BA8B7B69134404339B087B617B6907EE34
:103D8000903AF8EE677A9FED547A27EE877ADFED66
:103D9000536AC7EE267AC7ED067AD7ED067AFCEEAF
:103DA000E77A17EE903A9AB24D4B1A8006237B6061
:103DB000424B06221A70A5E00123FB7713E0FA7F3D
:103DC000FB7F013B474931F81210464A22F8131095
:103DD000FB7F013B434A32F81320BB8B1344BB8368
:103DE000FB7F0133FB77FB7F032BE8D97B699AB21A
:103DF0003C4BDA80BA8B7B69134404339B087B61AC
:103E00007B6940F6E44203FB02F22E4BA3FB021354
:103E1000D21A520813445B0A9BB25B009AB2324B2F
:103E20001A8007237B60254B07221A706AE0012362
:103E3000FB7713E0FA7FFB7F013B2C4931F812102E
:103E40002A4A22F81310FB7F013B284A32F813203C
:103E5000BB8B1344BB83FB7F0133FB77FB7F032BBF
:103E6000E8D97B699AB2214BDA80BA8B7B6913441B
:103E700004339B087B617B6940F6E44203FB02F25A
:103E8000104BA3FB0213D21A520813445B0A07EE2D
:103E9000903AF8EE677A9FED167A67EE877AFCEE35
:103EA000E77A17EE903A9AB2124B1A8000237B60A1
:103EB000024B00221A7025E0002001400C03002074
:103EC0001003002005104000F40200201803002019
:103ED000F60200202003002000404E4500C07F4431
:103EE000F802002028030020FA02002030030020FE
:103EF00055559D40FC02002000237B600C4B0022A6
:103F00001A7000BF0B4B1B68184606F00FFF094BD9
:103F10001B683A1D1146184606F03CFF054B1B680E
:103F2000184606F031FE00BF2037BD4680BD00BFF9
:103F30000C030020F002002080B400AF034B0122EC
:103F40001A7000BFBD465DF8047B7047FE0200207A
:103F500080B500AF044B1B78012B02D1FFF74AFE5E
:103F600000E000BF00BF80BDFE02002080B500AFB2
:103F700006F096FD0346034A1360034B01221A70B4
:103F800000BF80BD00030020FF02002080B500AF0D
:103F900006F086FD0346204A12789B1A322B38D948
:103FA0001E4B1B78002B2DD0012B00D02BE01C4B7F
:103FB0001B88B3F5E16F03D21A4B01221A700BE094
:103FC000174B1B88B3F5166F03D9164B00221A70D6
:103FD00002E0144B04221A70134B1B88B3F5E16FF7
:103FE00003D2124B00221A700DE00F4B1B88B3F561
:103FF000166F03D90D4B01221A7004E00B4B0422FB
:104000001A7000E000BF06F04BFD0346DAB2024B27
:104010001A7000BF80BD00BFFE020020FF0200201A
:10402000F402002004030020F60200200503002013
:10403000B0B586B000AF00233B603B1D00221A6084
:104040005A609A60DA6050222021A94816F096FC46
:10405000A84B1B780A2B00F2158201A252F823F01C
:10406000854400088D400008D54000081D41000827
:104070006F410008CD410008154200085D4200086C
:10408000A542000835430008574400089A4B1C68B5
:10409000994B1B681846FCF7B5F803461A462146AB
:1040A000934816F008FD954D954B1C68944B1B6882
:1040B0001846FCF7A7F803461A462146284616F08C
:1040C000FAFC904B1B78002B40F0DE81894B0222DA
:1040D0001A70D9E1884B1C68874B1B681846FCF79F
:1040E00091F803461A462146814816F0E4FC834DB8
:1040F000854B1C68844B1B681846FCF783F8034605
:104100001A462146284616F0D6FC7E4B1B78012B1A
:1041100040F0BC81774B03221A70B7E1764B1C68E4
:10412000754B1B681846FCF76DF803461A46214686
:104130006F4816F0C0FC714D744B1C68734B1B68C4
:104140001846FCF75FF803461A462146284616F043
:10415000B2FC6C4B1B78002B40F09A81654B04221B
:104160001A7006F09DFC0346694A136090E1624BA9
:104170001C68614B1B681846FCF744F803461A4656
:1041800021465B4816F097FC5C4D624B1C68614B06
:104190001B681846FCF736F803461A46214628469F
:1041A00016F089FC5C4B1B6843F010035A4A1360FD
:1041B00006F076FC0246564B1B68D31AB3F57A7F9D
:1041C00040F268814B4B05221A7063E1534B1C6827
:1041D000524B1B681846FCF715F803461A46214651
:1041E000434816F068FC454D4D4B1C684C4B1B6812
:1041F0001846FCF707F803461A462146284616F0EB
:104200005AFC484B1B78002B40F04681394B062264
:104210001A7041E1414B1C68404B1B681846FBF784
:10422000F1FF03461A462146314816F044FC334D4F
:104230003D4B1C683C4B1B681846FBF7E3FF0346ED
:104240001A462146284616F036FC364B1B78012BC1
:1042500040F02481274B07221A701FE12F4B1C6866
:104260002E4B1B681846FBF7CDFF03461A46214626
:104270001F4816F020FC214D2C4B1C682B4B1B6853
:104280001846FBF7BFFF03461A462146284616F09C
:1042900012FC244B1B78002B40F00281154B0822A6
:1042A0001A70FDE01D4B1C681C4B1B681846FBF781
:1042B000A9FF03461A4621460D4816F0FCFB0F4D98
:1042C0001B4B1C681A4B1B681846FBF79BFF0346E9
:1042D0001A462146284616F0EEFB0F4B1B6843F0AA
:1042E00020030D4A1360034B09221A70DBE000BF64
:1042F00034020020060300209C0000204802002019
:10430000A000002004030020A4000020A80000203A
:1043100008030020AC0000205C070020B000002053
:10432000B400002005030020B8000020BC000020DD
:10433000C00000200023FB755E4B1C685D4B1B68B2
:104340001846FBF75FFF03461A4621465A4816F007
:10435000B2FB5A4B1B88B3F5FA6F07D9584B1A6852
:104360003B465849184616F011FA0AE0544B1A68B1
:104370003B465549184616F009FAFB7D43F0010308
:10438000FB75524C3B461846FBF73CFF02463B464A
:104390001946204616F08FFB4D4B1B8840F63B72AA
:1043A00093420ED94A4B1B8841F29412934208D88B
:1043B000484B1A68464B1B883846474916F0E6F9C1
:1043C0000BE0444B1A68424B1B883846434916F0B1
:1043D000DDF9FB7D43F00203FB75414C3B4618467B
:1043E000FBF710FF02463B461946204616F063FBDA
:1043F0003C4B1B8842F6AB3293420ED9394B1B889B
:1044000043F20C02934208D8374B1A68354B1B888D
:104410003846314916F0BAF90BE0334B1A68314B84
:104420001B8838462D4916F0B1F9FB7D43F0040393
:10443000FB752E4C3B461846FBF7E4FE02463B4616
:104440001946204616F037FBFB7D002B2AD1284B5E
:104450000A221A7026E0174B1C68164B1B68184678
:10446000FBF7D0FE03461A462146134816F023FBFD
:10447000204B1B6843F040031E4A13600620FEF7E2
:10448000E9FF10E000BF0EE000BF0CE000BF0AE053
:1044900000BF08E000BF06E000BF04E000BF02E08C
:1044A00000BF00E000BF0448FCF7DCFE00BF183787
:1044B000BD46B0BDC400002034020020F802002038
:1044C000C8000020D4B70108DCB70108480200206A
:1044D000FA020020CC000020E8B70108F4B7010878
:1044E0005C020020FC020020D000002070020020AE
:1044F000060300205C07002080B500AF06F06AFAD2
:1045000000F070F800F01AFC00F0D8F800F034F970
:1045100000F078F900F0BCF900F026FA00F05AFA41
:1045200000F0F4FA00F092FA00F0A4FB00F0D8FBDF
:104530000FF076FF00F0F2F900F046FB00F068FBA8
:1045400015F02EFC00F086FEFCF7BEFDFEF75AFBD0
:10455000FCF79AFFFCF704FFFEF7A8FEFCF754FCFB
:10456000FCF7BCFCFFF702FDFFF7E6FC05F088FC5A
:1045700000F084FE00F0D8FE05F0CCFC05F046FB10
:1045800003F0D8FCFFF720F9FEF754FF144B00228C
:104590001A6015F02BFCFCF7B3FDFEF747FBFEF7A6
:1045A000A5FEFCF73DFC03F039F803F0AFF9FFF787
:1045B000CFFCFFF7EBFC00F06DFE05F0FBFB03F01A
:1045C0006FFCFEF7E3F803F01FFF05F065FC05F054
:1045D000ADFC05F025FEFFF75BF800BFD9E700BF93
:1045E0005C07002080B594B000AF07F120033022B3
:1045F0000021184616F0C2F907F10C0300221A60D8
:104600005A609A60DA601A610023BB60294B1B6C08
:10461000284A43F080531364264B1B6C03F08053ED
:10462000BB60BB6800237B60234B1B68224A43F4BA
:1046300040431360204B1B6803F440437B607B685E
:1046400005233B624FF480337B620123BB6202236C
:10465000BB634FF48003FB6304233B64A8237B64A8
:104660000223BB640723FB6407F1200318460AF00A
:1046700095FF0346002B01D000F09AFC0F23FB604E
:1046800002233B6100237B614FF4A053BB614FF4D5
:104690008053FB6107F10C03052118460BF0F6F976
:1046A0000346002B01D000F083FC00BF5037BD460D
:1046B00080BD00BF003802400070004080B584B06B
:1046C00000AF3B4600221A605A609A60DA60264BBF
:1046D000264A1A60244B4FF480325A60224B4FF026
:1046E00080729A60204B00221A611F4B00221A76BA
:1046F0001D4B002283F820201B4B0022DA621A4B4C
:104700001B4A9A62184B0022DA60174B0122DA61C9
:10471000154B002283F83020134B01225A611248B6
:1047200006F0EEF90346002B01D000F041FC002317
:104730003B6001237B600023BB603B4619460A486F
:1047400006F028FB0346002B01D000F031FC094B9A
:10475000054A1A60074B1B68184606F015FA00BF99
:104760001037BD4680BD00BF380300200020014047
:104770000100000FF002002080B500AF1D4B1E4A63
:104780001A601C4B1D4A5A601A4B00229A60194B42
:104790000022DA60174B4FF480421A61154B002259
:1047A0005A61144B00229A61124B0022DA61114BBC
:1047B00000221A620F4809F0D1F90346002B01D0FC
:1047C00000F0F6FB00210B480AF06CFE0346002BBC
:1047D00001D000F0EDFB002106480AF09FFE0346E1
:1047E000002B01D000F0E4FB054B024A1A6000BF29
:1047F00080BD00BF8003002000540040A08601005F
:104800009C07002080B500AF1D4B1E4A1A601C4B50
:104810001D4A5A601A4B00229A60194B0022DA6036
:10482000174B4FF480421A61154B00225A61144B0A
:1048300000229A61124B0022DA61114B00221A62A7
:104840000F4809F08BF90346002B01D000F0B0FBB4
:1048500000210B480AF026FE0346002B01D000F091
:10486000A7FB002106480AF059FE0346002B01D0A1
:1048700000F09EFB054B024A1A6000BF80BD00BFDE
:10488000D403002000580040A08601003002002020
:1048900080B500AF1D4B1E4A1A601C4B1D4A5A6062
:1048A0001A4B00229A60194B0022DA60174B4FF422
:1048B00080421A61154B00225A61144B00229A6102
:1048C000124B0022DA61114B00221A620F4809F0E4
:1048D00045F90346002B01D000F06AFB00210B488C
:1048E0000AF0E0FD0346002B01D000F061FB00213F
:1048F00006480AF013FE0346002B01D000F058FBD7
:10490000054B024A1A6000BF80BD00BF280400208A
:10491000005C0040A0860100440B002080B500AF81
:104920000F4B104A1A600E4B00225A600C4B7F222C
:104930009A600B4BFF22DA60094B00221A61084B88
:1049400000225A61064B00229A6105480BF07EFC5A
:104950000346002B01D000F02BFB00BF80BD00BF41
:104960007C0400200028004080B500AF174B184A97
:104970001A60164B4FF482725A60144B00229A60F0
:10498000124B0022DA60114B00221A610F4B0022F9
:104990005A610E4B4FF400729A610C4B3822DA6167
:1049A0000A4B00221A62094B00225A62074B00226E
:1049B0009A62064B0A22DA6204480BF04DFD034668
:1049C000002B01D000F0F4FA00BF80BD9C04002051
:1049D0000038004080B500AF194B1A4A1A60184BD6
:1049E0004FF482725A60164B00229A60144B0022D8
:1049F000DA60134B00221A61114B00225A61104BEE
:104A00004FF400729A610E4B0022DA610C4B0022C7
:104A10001A620B4B00225A62094B00229A62084B21
:104A20000A22DA6206480BF017FD0346002B01D07C
:104A300000F0BEFA044B024A1A6000BF80BD00BFFE
:104A4000F4040020003401409002002080B58AB0B8
:104A500000AF07F1200300221A605A603B1D0022BC
:104A60001A605A609A60DA601A615A619A61244B3E
:104A7000244A1A60224B14225A60214B00229A6069
:104A80001F4B41F29312DA601D4B00221A611C4B3E
:104A900000229A611A480CF0B6FC0346002B01D0A4
:104AA00000F086FA00233B6200237B6207F12003BB
:104AB000194613480DF094FA0346002B01D000F07C
:104AC00077FA60237B604FF41663BB600023FB60C2
:104AD00000237B613B1D0022194609480CF00AFFA8
:104AE0000346002B01D000F063FA074B044A1A601A
:104AF000034801F0ADF900BF2837BD4680BD00BFB7
:104B00004C050020000400408402002080B58AB0DB
:104B100000AF07F1200300221A605A603B1D0022FB
:104B20001A605A609A60DA601A615A619A61234B7E
:104B3000234A1A60214B00225A60204B00229A60BF
:104B40001E4B4FF40042DA601C4B00221A611B4BD3
:104B500000229A6119480CF056FC0346002B01D044
:104B600000F026FA00233B6200237B6207F120035A
:104B7000194612480DF034FA0346002B01D000F01C
:104B800017FA60237B600023BB600023FB600023D7
:104B90007B613B1D0822194608480CF0ABFE03461A
:104BA000002B01D000F004FA064B044A1A600348B7
:104BB00001F04EF900BF2837BD4680BD94050020A6
:104BC000000800401C02002080B500AF0E4B0F4AC9
:104BD0001A600D4B00225A600B4B00229A600A4B60
:104BE0004FF6FF72DA60084B00221A61064B002272
:104BF0009A6105480CF018FB0346002B01D000F029
:104C0000D7F900BF80BD00BFDC050020004801408F
:104C100080B500AF144B154A1A60134B00225A603E
:104C2000114B00229A60104B42F2D002DA600E4B18
:104C300000221A610C4B00229A610B480CF0F4FA26
:104C40000346002B01D000F0B3F907480CF03CFB01
:104C500005480CF0A9FB044B1B6801225A62044B67
:104C6000014A1A6000BF80BD2406002000200040D9
:104C70006C34002080B500AF154B164A1A60144BF7
:104C80004FF4E1325A60124B00229A60104B00221E
:104C9000DA600F4B00221A610D4B0C225A610C4B4B
:104CA00000229A610A4B0022DA6109480DF028FAC5
:104CB0000346002B01D000F07BF9074B044A1A6031
:104CC00000224FF40041054806F0FAFD00BF80BD08
:104CD0006C060020001001406834002000180240DB
:104CE00080B500AF124B134A1A60114B4FF4E132FA
:104CF0005A600F4B00229A600D4B0022DA600C4B79
:104D000000221A610A4B0C225A61094B00229A6157
:104D1000074B0022DA6106480DF0F2F90346002B3A
:104D200001D000F045F9044B014A1A6000BF80BD74
:104D3000E4060020004400405C0B002080B58EB0EB
:104D400000AF07F1240300221A605A609A60DA600B
:104D50001A6100233B628F4B1B6B8E4A43F00403A6
:104D600013638C4B1B6B03F004033B623B6A002311
:104D7000FB61884B1B6B874A43F020031363854B11
:104D80001B6B03F02003FB61FB690023BB61814BBC
:104D90001B6B804A43F0800313637E4B1B6B03F055
:104DA0008003BB61BB6900237B617A4B1B6B794A33
:104DB00043F001031363774B1B6B03F001037B612B
:104DC0007B6900233B61734B1B6B724A43F0020308
:104DD0001363704B1B6B03F002033B613B690023C1
:104DE000FB606C4B1B6B6B4A43F040031363694BD6
:104DF0001B6B03F04003FB60FB680023BB60654B4B
:104E00001B6B644A43F010031363624B1B6B03F08C
:104E10001003BB60BB6800237B605E4B1B6B5D4A6D
:104E200043F0080313635B4B1B6B03F008037B60C9
:104E30007B6800224FF4E061574806F041FD0022F4
:104E400041F20401554806F03BFD002248F2FF11F3
:104E5000534806F035FD00224FF40241514806F058
:104E60002FFD01224FF400614E4806F029FD00227B
:104E70004FF400414C4806F023FD00224FF4A0718E
:104E80004A4806F01DFD4FF4E0637B620123BB62DC
:104E90000023FB6200233B6307F1240319463E48CD
:104EA00006F04AFB41F204037B620123BB6200234C
:104EB000FB6200233B6307F124031946374806F0E1
:104EC0003BFB40F2FF137B620123BB620023FB62CA
:104ED00000233B6307F124031946314806F02CFBFD
:104EE0004FF40A437B620123BB620023FB62002371
:104EF0003B6307F1240319462A4806F01DFB4FF4D3
:104F00007C537B620023BB620023FB6207F1240316
:104F10001946254806F010FB4FF400437B6201233D
:104F2000BB620023FB6200233B6307F124031946A5
:104F30001D4806F001FB4FF4A0737B620123BB62A6
:104F40000023FB6200233B6307F124031946174843
:104F500006F0F2FA4FF400637B620023BB62002389
:104F6000FB6207F124031946104806F0E5FA4FF4F6
:104F700000437B620123BB620223FB6200233B638D
:104F800007F124031946064806F0D6FA00BF383761
:104F9000BD4680BD003802400014024000040240BB
:104FA0000018024000100240000C024000080240BD
:104FB00080B400AF72B600BF00BFFDE780B400AFA1
:104FC0000B4B0C4A1A600A4B0B4A5A60084B0B4AAF
:104FD0009A60074B0A4ADA60054B0A4A1A61044B89
:104FE000094A5A61024B1846BD465DF8047B70477A
:104FF0006007002021730008457300081974000839
:1050000027740008417400085F74000880B582B0FE
:1050100000AF4F4B1B685B6998470346042B00F0B9
:105020008280042B00F28D80022B29D0032B40F0CC
:105030008880484B50221A70464B49225A70454B83
:105040004E229A70434B4722DA700423FB7108E02A
:10505000FB79FA79043AD1B23E4AD154FB79013353
:10506000FB71FB799AB23C4B1B889A42F0D3384BC8
:105070001B681B69384A128811463648984763E016
:10508000334B1B68DB68344932489847324B1B88E6
:10509000002B58D0042231492E4815F077FC0346E6
:1050A000002B2FD12E4B1B6801332D4A1360012199
:1050B0002C4806F01EFC274B50221A70254B492223
:1050C0005A70244B4E229A70224B4722DA700423E6
:1050D000BB7108E0BB79BA79043AD1B21D4AD15408
:1050E000BB790133BB71BB799AB21B4B1B889A42C7
:1050F000F0D3174B1B681B69174A128811461548D5
:10510000984720E004221849124815F03FFC034656
:10511000002B18D1154B00221A70002202211148D1
:1051200006F0CEFB0FE002210E4806F0E2FB084B32
:105130001B689B6898470E4B1B6801330C4A136031
:1051400002E000BF00E000BF00BF0837BD4680BDE1
:10515000780700207C070020D40000203CBB010819
:10516000900700200018024034BB0108D600002040
:105170008C07002080B582B000AF2F4B1B685B69A5
:1051800098470346022B02D0042B42D050E02A4B12
:105190001B68DB6829492A489847284B1B88002B45
:1051A00045D004222749264815F0F0FB0346002B82
:1051B0003DD1254B1B680133234A1360012123484D
:1051C00006F097FB1E4B50221A701D4B4F225A704F
:1051D0001B4B4E229A701A4B4722DA700423FB7144
:1051E00008E0FB79FA79043AD1B2154AD154FB7937
:1051F0000133FB71FB799AB2104B1B889A42F0D3B2
:105200000D4B1B681B690D4A128811460C489847C4
:105210000DE002210D4806F06CFB0D4B1B680133BD
:105220000B4A1360044B1B689B68984700E000BF63
:1052300000BF0837BD4680BD78070020D40000209D
:105240007C07002034BB01089407002000180240AE
:105250008C07002080B500AFFFF7B0FE0346064A7A
:105260001360054B1B681B689847034B1B689B68C2
:10527000984700BF80BD00BF7807002080B400AF12
:10528000034B00221A7000BFBD465DF8047B7047D7
:105290008507002080B500AF1D4B1B78032B35D848
:1052A00001A252F823F000BF0B530008B9520008C6
:1052B000DD5200080B530008164B00221A60164BF3
:1052C00000221A60154B00221A60114B02221A703C
:1052D00005F0E6FB0346124A136017E005F0E0FB19
:1052E00002460F4B1B68D31AB3F5FA6F09D20D4B68
:1052F0001B78012B02D1FFF789FE07E0FFF73AFF89
:1053000004E0034B03221A7000E000BF00BF80BD21
:10531000850700208C0700209007002094070020BC
:1053200098070020D600002080B500AF044B002273
:105330001A7005F0B5FB0346024A136000BF80BD3A
:105340008607002088070020B0B588B002AF002390
:105350007B6007F1080300221A605A609A60DA60E5
:10536000502220215A4815F009FB5A4B1C68594B12
:105370001B681846FAF746FF03461A46214654486A
:1053800015F099FB544B1B78042B00F2978001A277
:1053900052F823F0BD540008A9530008D353000865
:1053A00013540008715400084C4D4D4B1C684C4B75
:1053B0001B681846FAF726FF03461A462146284678
:1053C00015F079FB474B01221A70434B02221A70E9
:1053D00077E0424D424B1C68414B1B681846FAF778
:1053E00011FF03461A462146284615F064FB3D4B43
:1053F0001B78032B64D13C4B1A683C4B1B689A42C8
:1054000003D3354B03221A705AE0334B04221A702F
:1054100056E0324D364B1C68354B1B681846FAF780
:10542000F1FE03461A462146284615F044FB2F4B51
:105430001A68304B19682C4B1B68381D00930B46BB
:105440002D4915F0A3F92D4C3B1D1846FAF7DAFE4D
:1054500002463B1D1946204615F02DFB284B1B68C4
:1054600043F40073264A13600A20FDF7F3FF28E097
:105470001A4D244B1C68234B1B681846FAF7C2FED2
:1054800003461A462146284615F015FB174B1A68A5
:10549000184B1968144B1B68381D00930B461649AE
:1054A00015F074F9154C3B1D1846FAF7ABFE024691
:1054B0003B1D1946204615F0FEFA02E000BF00E051
:1054C00000BF0348FBF7CEFE00BF1837BD46B0BD96
:1054D00034020020D8000020860700204802002067
:1054E000DC00002085070020940700208C070020A6
:1054F000E00000209007002030B801085C02002086
:105500005C070020E400002080B58AB004AFF8609A
:10551000B9607A600B4B1868FB689AB27B689BB2E3
:105520004FF47A7102910193BB6800930023A0218C
:1055300008F088FF0346FB75FB7D18461837BD460B
:1055400080BD00BF9C07002080B58AB004AFF86022
:10555000B9607A600B4B1868FB689AB27B689BB2A3
:105560004FF47A7102910193BB6800930023A1214B
:1055700009F062F80346FB75FB7D18461837BD46F7
:1055800080BD00BF9C07002080B5A4B000AF78604C
:105590000023BB6407F14C033C220021184615F0A0
:1055A000EDF90023BB6007F10C033C2200211846F3
:1055B00015F0E4F90023C7F88C3015E0D7F88C30EB
:1055C0005A4203F00F0302F00F0258BF5342D9B200
:1055D00007F14802D7F88C3013440A461A70D7F8FE
:1055E0008C300133C7F88C30D7F88C303F2BE5DD99
:1055F00007F14803402219467868FFF785FF034604
:10560000002B02D04FF0FF332EE0322005F054FA89
:1056100007F10803402219467868FFF795FF034613
:10562000002B02D04FF0FF331EE00023C7F8883074
:1056300015E007F10802D7F8883013441A7807F10B
:105640004801D7F888300B441B789A4202D06FF09B
:10565000010309E0D7F888300133C7F88830D7F85C
:1056600088303F2BE5DD002318469037BD4680BDCE
:1056700080B592B000AF78600023BB6007F10C03E7
:105680003C220021184615F079F907F10803402261
:10569000FF21184615F072F907F108034022194658
:1056A0007868FFF731FF0346002B02D04FF0FF333D
:1056B00000E0002318464837BD4680BDB0B582B033
:1056C00000AF00233B6000237B60502220219A48DA
:1056D00015F054F9994B1C68984B1B681846FAF75B
:1056E00091FD03461A462146934815F0E4F9944B80
:1056F0001B78072B00F20F8101A252F823F000BFA4
:10570000175900082157000845570008D9570008C5
:105710001958000837580008C9580008F9580008F7
:1057200005F0BEF90246874B1B68D31AB3F57A7FA2
:1057300040F2F380824B02221A70834B4FF4806256
:105740001A60EAE0804B18683B464FF4A0524FF4D1
:105750008061FDF733FE7D4D7D4B1C687C4B1B68E3
:105760001846FAF74FFD03461A462146284615F01B
:10577000A2F9774B1B681846FAF744FD0346163327
:105780006D4A9C183B461846FAF73CFD02463B46DC
:105790001946204615F08FF96B4B1B681846FFF72A
:1057A000F3FE0346002B13D1674B1B684033664A58
:1057B0001360654B1B68B3F5A05FC0F0B080604B11
:1057C00003221A7005F06CF903465E4A1360A6E0E6
:1057D0005B4B04221A70A2E05C4D5E4B1C685D4B73
:1057E0001B681846FAF70EFD03461A46214628465E
:1057F00015F061F905F054F90246524B1B68D31AB3
:10580000B3F57A7F40F28D804D4B05221A704E4BD6
:105810004FF480621A6084E04C4D4F4B1C684E4B35
:105820001B681846FAF7EEFC03461A46214628463E
:1058300015F041F978E0444B18683B464FF4A0520C
:105840004FF48061FDF7BAFD404D444B1C68434B5B
:105850001B681846FAF7D6FC03461A462146284626
:1058600015F029F93D4B1B681846FAF7CBFC0346A7
:105870001633314A9C183B461846FAF7C3FC0246D9
:105880003B461946204615F016F92F4B1B68184663
:10589000FFF7EEFE0346002B12D12B4B1B68403363
:1058A000294A1360284B1B68B3F5A05F3BD3244BF8
:1058B00006221A7005F0F4F80346224A136032E01B
:1058C0001F4B07221A702EE0204D254B1C68244BDD
:1058D0001B681846FAF796FC03461A4621462846E6
:1058E00015F0E9F81F4B1B6843F480731D4A1360E1
:1058F0000920FDF7AFFD17E0144D1B4B1C681A4B38
:105900001B681846FAF77EFC03461A4621462846CD
:1059100015F0D1F808E000BF06E000BF04E000BFCA
:1059200002E000BF00E000BF0348FBF79BFC00BFA4
:105930000837BD46B0BD00BF34020020E80000209B
:10594000A4070020A0070020A8070020480200208C
:10595000EC000020F0000020F4000020F8000020FF
:10596000FC0000205C0700200001002080B483B010
:1059700000AF00237B60104B5B6C0F4A43F4804305
:1059800053640D4B5B6C03F480437B607B680023A6
:105990003B60094B1B6C084A43F080531364064B71
:1059A0001B6C03F080533B603B6800BF0C37BD4667
:1059B0005DF8047B704700BF0038024080B58AB0B4
:1059C00000AF786007F1140300221A605A609A60F1
:1059D000DA601A617B681B68174A934227D100235B
:1059E0003B61164B5B6C154A43F480735364134B55
:1059F0005B6C03F480733B613B690023FB600F4BDE
:105A00001B6B0E4A43F0010313630C4B1B6B03F03B
:105A10000103FB60FB68FF237B610323BB61002361
:105A2000FB6107F114031946054805F085FD00BF29
:105A30002837BD4680BD00BF00200140003802402D
:105A40000000024080B58EB000AF786007F12403FB
:105A500000221A605A609A60DA601A617B681B68DB
:105A60005B4A93422DD100233B625A4B1B6B594A30
:105A700043F002031363574B1B6B03F002033B62BB
:105A80003B6A4FF440737B621223BB620023FB62CC
:105A900003233B6304237B6307F1240319464E4829
:105AA00005F04AFD0023FB614A4B1B6C494A43F455
:105AB00000131364474B1B6C03F40013FB61FB6979
:105AC00082E07B681B68454A93422CD10023BB616E
:105AD000404B1B6B3F4A43F0200313633D4B1B6B52
