:020000040800F2
:10000000008000204193000875350008793500080C
:1000100000000000000000000000000000000000E0
:10002000000000000000000000000000E58400085F
:100030000000000000000000C185000805860008DF
:100040009193000891930008919300089193000800
:1000500091930008919300089193000891930008F0
:10006000919300087D3500088D3500089D35000806
:1000700091930008C93500089193000891930008F6
:1000800091930008919300089193000891930008C0
:1000900091930008919300089193000891930008B0
:1000A000919300089193000891930008D9350008B6
:0C00B000E93500089193000891930008C6
:1000C00010B5064C2378002B07D1054B002B02D02E
:1000D000044800E000BF0123237010BDE8070020A2
:1000E00000000000A0A80008044B10B5002B03D0AE
:1000F0000349044800E000BF10BDC04600000000F6
:10010000EC070020A0A8000802780B78002A03D092
:10011000013001319A42F7D0D01A70470023C25CF7
:100120000133002AFBD1581E7047000003B471460A
:10013000490840004900095E49008E4403BC7047ED
:10014000002243088B4274D303098B425FD3030A16
:100150008B4244D3030B8B4228D3030C8B420DD329
:10016000FF22090212BA030C8B4202D312120902B7
:1001700065D0030B8B4219D300E0090AC30B8B42F5
:1001800001D3CB03C01A5241830B8B4201D38B03A3
:10019000C01A5241430B8B4201D34B03C01A524148
:1001A000030B8B4201D30B03C01A5241C30A8B428B
:1001B00001D3CB02C01A5241830A8B4201D38B0276
:1001C000C01A5241430A8B4201D34B02C01A52411A
:1001D000030A8B4201D30B02C01A5241CDD2C3098C
:1001E0008B4201D3CB01C01A524183098B4201D308
:1001F0008B01C01A524143098B4201D34B01C01AF3
:10020000524103098B4201D30B01C01A5241C3086A
:100210008B4201D3CB00C01A524183088B4201D3D9
:100220008B00C01A524143088B4201D34B00C01AC5
:100230005241411A00D20146524110467047FFE731
:1002400001B5002000F006F802BDC0460029F7D035
:1002500076E770477047C04610B504000A2911D0F0
:1002600014290FD00A00153A072A0CD90B3907298F
:1002700008D84B0007485B181B01181830222100D2
:1002800009F0A8FA10BD530003489B181B01181869
:10029000F4E7C04604000020840100200A2818D09A
:1002A000142816D00200153A072A14D90B3807284B
:1002B0000FD84300344A1B181B019B181A78002AD8
:1002C00007D01139C9B2112903D8304A89005258D0
:1002D00097460020704753009B182D4A1B019B181E
:1002E000ECE72A2201209B5C1840F3E7282201203A
:1002F0009B5C1840EEE72822985C8007C00FE9E776
:100300002822985C4007C00FE4E72822985C000789
:10031000C00FDFE72822985CC006C00FDAE728226A
:10032000985C8006C00FD5E72822985C4006C00F75
:10033000D0E72822985CC009CCE7292201209B5CE9
:100340001840C7E72922985C8007C00FC2E729221E
:10035000985C4007C00FBDE72922985C0007C00FDA
:10036000B8E72922985CC006C00FB3E72922985C41
:100370008006C00FAEE72922985C4006C00FA9E7AF
:100380002922985CC009A5E704000020B8A800084D
:10039000840100200A2818D0142816D00200153A2B
:1003A000072A14D90B3807280FD84300304A1B18E6
:1003B0001B019B181A78002A07D01139C9B20F29DE
:1003C00003D82C4A890052589746002070475300A2
:1003D0009B18294A1B019B18ECE72D22985C4006CC
:1003E000C00FF3E72C2201209B5C1840EEE72C2283
:1003F000985C8007C00FE9E72C22985C4007C00F8B
:10040000E4E72C22985C0007C00FDFE72C22985C01
:10041000C006C00FDAE72C22985C8006C00FD5E733
:100420002C22985C4006C00FD0E72C22985CC009B3
:10043000CCE72D2201209B5C1840C7E72D22985C59
:100440008007C00FC2E72D22985C4007C00FBDE7B0
:100450002D22985C0007C00FB8E72D22985CC006DB
:10046000C00FB3E72D22985C8006C00FAEE7C046F0
:100470000400002000A900088401002070B50400D9
:1004800007F06AFC5A4A20601368591C11600C2B53
:100490002CD858499B00CB589F46250008350C2284
:1004A0002800554909F096F9092363602800FFF7F1
:1004B00035FE524B82B229001868514B06F046FABD
:1004C00063685901C91A8900C9184E4BC9001868D8
:1004D00006F00EFC2A0001204B4908F0E3F9002049
:1004E00070BDD421494B5B5CDB0678D5002301202D
:1004F0001360F5E72500083505222800444909F076
:1005000069F90923D1E72500083507222800414968
:1005100009F060F90923C8E7250008350F222800F3
:100520003D4909F057F90923BFE7C32225003B4B9A
:1005300092009B580835002B4AD00D2228003849DC
:1005400009F048F90923B0E7250008350C222800F6
:10055000344909F03FF90923A7E7250008350B22A4
:100560002800314909F036F909239EE725000835AE
:10057000092228002D4909F02DF9092395E7D421F6
:10058000224B5B5CDB06B1D4250008350C22280029
:10059000274909F01FF9092387E7250008350C22B0
:1005A0002800244909F016F909237EE725000835BB
:1005B0000C222800204909F00DF90F2375E72500CA
:1005C00008350C2228001D4909F004F909236CE7BD
:1005D0000C2228001A4909F0FDF8092365E72500D7
:1005E00008350E222800174909F0F4F809235CE7C2
:1005F0000408002040A9000824B100084417002086
:10060000DC050000640C002040B100083008002028
:1006100094B000089CB00008A4B0000800000020BE
:10062000B4B00008D0B00008DCB00008E8B00008A2
:10063000F4B0000800B100080CB1000818B10008BF
:10064000C4B0000830B1000810B5C37A342B0DD8FF
:10065000322B18D8302B08D10122114B04215A70AB
:10066000104B1868002307F08DFC10BD362BFCD111
:1006700000220B4B08215A700A4B013218680023E4
:1006800007F080FCF1E70849012008F00BF9054B61
:10069000012280211868002307F074FCE5E7C046BA
:1006A00030080020540C002058B1000800B58FB06D
:1006B0000DAB04930CAB03930BAB02930AAB01930A
:1006C00008AB00931349083007AB09AA08F056FF9E
:1006D000072815D1B822104B09999950079904326F
:1006E00099500899043299500A99043299500B99FB
:1006F000043299500C99043299500D990432995052
:10070000064B012204211868002307F03BFC0FB0C0
:1007100000BDC0466CB1000830080020680C002005
:1007200000B583B06A460749063001AB08F026FFE2
:10073000022804D1044B009A5A60019A9A6003B0CF
:1007400000BDC04690B1000830080020F0B5DE467C
:10075000454657464E46E0B5394B83B01900073041
:10076000984608F03BF80023364A041E01921374A1
:1007700056D0150013001022944663449946324B1C
:10078000D8359A462100484608F062FF0023200031
:100790002B706B630127FFF7C1FC002300217F4210
:1007A000834224DAE25C222A01D00133F8E70131E6
:1007B000032932D00429F8D17A1C18D07A1C93422C
:1007C0003CDDF9438B46AB445E46A15C1000B1545E
:1007D00001329342F8D1C01B281800230370200077
:1007E000FFF79CFC201801380378303B6B634146CF
:1007F000002007F0F3FF3835041E11D0019B1B7C4D
:10080000002BBFD0019F10373800FFF787FC022272
:100810005146381808F0DEFFB4E71F000133BFE788
:100820000A4B032208211868002307F0ABFB03B032
:10083000F0BCBB46B246A946A046F0BD2800CCE7B6
:1008400098B10008300800209CB10008680C002016
:1008500000B583B01449073001AA08F08FFE0128C3
:1008600012D1019B052B0FD8104A9B00D3589F46ED
:10087000D42101200E4B5A5C02435A540022D62147
:1008800089005A540B495A5403B000BDD4210920A1
:10089000074B5A5C82435A540122F0E7D421044B9F
:1008A00008205A5CE8E7C046A0B1000874A9000817
:1008B000300800205703000000B583B06A4607499E
:1008C000053001AB08F05AFE022804D1044B009A0F
:1008D0005A60019A9A6003B000BDC046A4B10008F6
:1008E00030080020010070B50400104D01222E1DBB
:1008F0003000093108F0D8FE637A232B00D070BD98
:100900000B4C31001922200008F0F4FE22000949A6
:10091000012007F0C7FF00232B71074B0122102194
:100920001868002307F02EFBE9E7C0460408002002
:10093000380B0020B0B10008680C0020F8B523493E
:100940000A3007F04BFFD823214F0400FB5C002B3B
:1009500038D03D00390011350026FF35D83106E08A
:100960003835290038390B780136002B1AD0200091
:10097000FFF7CAFB0028F3D12378002B11D0154DC7
:10098000154E07E03100002007F028FF037804002F
:10099000002B06D005222900200008F09AFE00282E
:1009A000F0D1F8BDF500A81BC000D83021003818E0
:1009B00008F008FF0023AD1BED007D190D35FF3554
:1009C0002B60D9E7D82000260025EFE7C8B1000842
:1009D00030080020D0B10008CCB100080EB470B5CA
:1009E00091B03C22002115AC050001A840CC08F0D4
:1009F00027FE07F0B1F9230001903200322103A84D
:100A00000295009408F010FE03000120002B0BDB80
:100A1000084903AA07F046FF074B0522186801A9F9
:100A2000002306F01DFBC0B211B070BC08BC03B0BF
:100A30001847C046D8B10008600C0020F0B52C2142
:100A40008FB0073008F011FE861C2C21300008F012
:100A50000CFE002207000025431E3D4C1A702100A9
:100A60003000FFF751FB002865D0210081313000B4
:100A7000FF31FFF749FB002867D001353034082DDE
:100A8000EDD10025334C344BE560E25C002A0AD1FD
:100A900032493200012007F005FF19203049FFF7E5
:100AA0009DFF0FB0F0BD2C21781CE55408F0DDFD52
:100AB0000DAB04930CAB03930BAB02930AAB019306
:100AC00008AB00932749023007AB09AA08F056FD8E
:100AD00007280FD006F0CEF8CA239B00E258801AF0
:100AE000214A9042DDD80122E550204BE560257473
:100AF000E254D6E7B823099A0421E250079A043356
:100B0000E250089A0433E2500A9A0433E2500B9AF6
:100B10000433E2500C9A0433E2500D9A0433E2504D
:100B2000134B01221868002307F02CFA0C491920F6
:100B3000FFF754FFB5E70B35EDB200220121054B5D
:100B40001A740A4ADD609954ABE71535EDB2F4E743
:100B5000040000203008002026030000ECB100084B
:100B600030B100086CB100088F5F01005303000032
:100B7000680C002010B52C21073008F076FD0130FC
:100B800008F007FC024902000520FFF727FF10BD0F
:100B90000CB2000870B508302221060008F065FD8F
:100BA00000230024164D037029003000FFF7ACFA33
:100BB000002814D0290081313000FF31FFF7A4FA5A
:100BC00000281AD001343035082CEDD100220D4B0D
:100BD00001200D49DA605A70FFF700FF70BD0B3439
:100BE000E1B2084B0322D960402309061943074BA1
:100BF0001868002307F0C6F9F0E71534E1B2F0E712
:100C000004000020300800201CB20008540C002012
:100C1000012210B5034B142003495A70FFF7DEFE82
:100C200010BDC0463008002028B20008002210B5D0
:100C3000034B142003495A70FFF7D0FE10BDC04685
:100C40003008002030B2000800487047300800200B
:100C5000004870470000002070B5051E10D00B4CF6
:100C60000B4BA02120000B4A08F034FC2A003C204A
:100C70000949FFF7B3FE0122084B103CE25470BD56
:100C800007490120FFF7AAFEF9E7C0464008002007
:100C900044B200084CB2000850B20008260300001D
:100CA00038B2000870B50B000500002911D00D4CBA
:100CB000A02120000C4A08F00DFC2A003C200B4922
:100CC000FFF78CFE103C05F0D5FFCA239B00E050D7
:100CD00070BD020006491420FFF780FE0123054C79
:100CE0006370F0E7400800204CB2000850B20008E2
:100CF00060B20008300800208C22074B920099183F
:100D0000002210B51A7038338B42FBD12D200349D5
:100D1000FFF764FE10BDC046080900206CB2000851
:100D2000F8B58C234746CE469B009946124B80B5BA
:100D300006000D0000279846104CA1442378002B94
:100D40000FD0230042462900300008F0C3FB0028E2
:100D50000CDBA84205D838342D1A3F1836184C45FC
:100D6000ECD1781EC0BCB946B046F8BD012004499C
:100D700007F098FD0020F5E778B200080809002088
:100D80007CB2000810B501200149FFF727FE10BD15
:100D900094B2000810B5041E09D009200649FFF7D7
:100DA0001DFE22000549012007F07CFD10BD04490D
:100DB0000920FFF713FEF4E7B4B00008A0B2000862
:100DC000C4B0000830B5C125064CAD006051C2204A
:100DD00080002150C32189006250C4229200A35098
:100DE00030BDC04600000020020010B50A200249B4
:100DF0003032FFF7F3FD10BDB8B2000810B50A2875
:100E000014D0142812D00300153B072B0FD90B3830
:100E100007280BD84200094B12181201D2181420CF
:100E20000749FFF7DBFD0122064B5A7010BD5A003F
:100E3000D218054B1201D218F1E7C0460400002079
:100E400060B200083008002084010020030010B5C3
:100E50000A2917D0142915D00A00153A072A12D9E1
:100E60000B3907290ED84C000A4A64182401A4182B
:100E7000A021094A094808F02DFB22003C2008491E
:100E8000FFF7ACFD10BD5400A418064A2401A418B5
:100E9000EEE7C046040000204CB2000840080020E5
:100EA00050B200088401002010B582B06A46164B8B
:100EB000164C1B7869461370FA23012220009B0010
:100EC00004F07CF9002814D1FA23032220009B00AF
:100ED00001A904F065FB00280BD1402122680130F4
:100EE00013688B4313606B461B799D2B07D102B0AF
:100EF00010BD0120064907F0D5FC0020F7E70549A1
:100F000007F0D0FC0020F2E7F0B2000858130020F0
:100F1000C8B20008DCB20008F0B54F464646D646D7
:100F2000C0B51A4B86B01B7803A90B70FA23184E74
:100F300001229B00300004F041F940213268402733
:100F4000136804AD8B43136005239946FA239B0075
:100F5000984605AC4B462B8043462200290000935F
:100F60003000022304F000FA32680A201368BB4301
:100F7000136063789A4606F0D3FD53469B07E9D584
:100F800006B0E0BCBA46B146A846F0BDF4B20008CF
:100F900058130020F0B5032383B0FA2715006A46E2
:100FA0000E000D4C0193BF00030C40BA5371D0806A
:100FB0003B0001A90422200004F000F93B003100AD
:100FC000AAB2200004F0ECFA4021226813688B4397
:100FD000136003B0F0BDC0465813002070B50C007C
:100FE00082B095B2431C17D003236A460193030CC9
:100FF0005371FA230B4E40BAD0809B00042201A902
:10100000300004F0DBF8FA232A00210030009B00B6
:1010100004F0C6FA02B070BD2A00024804F07AFC5F
:10102000F8E7C0465813002010B5054C200004F026
:1010300021FD4021226813688B43136010BDC04618
:1010400058130020F0B557464E464546DE46052368
:10105000E0B587B004AD2B80FA23304F9B0000939E
:10106000040089461600290005AA98463800022384
:1010700004F07AF940213A688A4613688B4313607A
:101080006B465B7DDB0744D4FFF746FF02236A46CD
:101090000593230C64BA5375D4824346042205A9F0
:1010A000380004F08BF84946B2B24346380004F0E9
:1010B00085F851463A68C924136803AE8B43136020
:1010C00005239A463B33994602E0013C002C22D08E
:1010D0005346338043462A003100009338000223F0
:1010E00004F042F949463A68012013688B431360C3
:1010F0006B789B4606F014FD012358465A4618406B
:101100001342E2D107B0F0BCBB46B246A946A046A6
:10111000F0BD0920F6E70020F4E7C0465813002090
:10112000F0B54546DE4657464E460523E0B587B046
:1011300004AD2B80FA2340262A4F9B00009305AA7A
:101140000400984629000223380004F00DF93A689B
:101150001368B34313606B465B7DDB073DD4FFF739
:10116000DBFED8236A460593230C64BA5375D482F8
:1011700043460422380005A904F020F83A68C9243F
:101180001368B343136005239A463B33994603AE75
:1011900002E0013C002C22D05346338043462A0013
:1011A000310000933800022304F0DEF849463A6823
:1011B000012013688B4313606B789B4606F0B0FCEC
:1011C000012358465A4618401342E2D107B0F0BCFA
:1011D000BB46B246A946A046F0BD0920F6E700206E
:1011E000F4E7C046581300200123002200B587B061
:1011F0000493044B01A902A80292039302F05CFF3E
:1012000007B000BD00C00308F0B587B0FFF720FDB0
:10121000060002F0A3FE0123002204930E4B01A955
:1012200002A80292039302F047FF0C4B0A4C9C4623
:101230000B4F664402E00234BC4209D00023210077
:101240000120325B02F0D6FE051EF4D002F09AFEB9
:10125000280007B0F0BDC04600C003080040FCF7FE
:1012600078C70308F0B5C64600B5FFF7F1FC234E7A
:10127000234B326805009A4203D0002080BCB84658
:10128000F0BDC1239B00F2581E49C2500433F258EE
:101290002F00C2500433F2588537C2500433F2583D
:1012A0002C1DC2500433C01808F08CFA164B174995
:1012B000E81808F087FA164BFF375B1B9846761B39
:1012C00031193022200008F085FA20004346813091
:1012D00019193022FF30303408F07CFABC42EFD1CB
:1012E0000C4B0D4C9C460D4E6544210028192934A9
:1012F00008F068FAB442F8D1BFE7C04600C003085E
:101300001523311214C303085A0300005AC30308FB
:1013100080C103080040FCF7A0C3030878C7030896
:1013200010B582B008220021684608F089F90D4CFA
:101330000D4B2000236002F0CBFB00280CD10422CF
:10134000002369460092019320000C3202F024FC35
:10135000002804D102B010BD01F060FDEFE701F0FC
:101360005DFDF7E78C0B00200074004030B50400F1
:1013700089B01422002102A808F062F9264B2268E5
:101380009A4201D009B030BD8021244B8905DA6929
:1013900090200A43DA61DA69C0050A408021009290
:1013A000009A5A6989020A435A615B6920220B40FC
:1013B0000193019B032302A90292039302F0E6FE2C
:1013C000174D184B80226B611023AB6100232A62FA
:1013D0008132FF322800EB616A62EB628022802357
:1013E000D2005B011430AA622B6302F083FC002858
:1013F0000FD1A8230C4A0D48D1580140D15080216B
:10140000D05849010143D1502B001433E360AC6341
:10141000B8E701F003FDECE7007400400010024063
:101420008C0B00204404024000040240FF0FFFFF29
:101430000122164B00B5596983B0114359615969AE
:1014400009200A400092009A022259691143596109
:101450005B6903211A4001920022019B02F002FB0A
:10146000092002F029FB002203210A2002F0FAFAE7
:101470000A2002F021FB002203210B2002F0F2FAE5
:101480000B2002F019FB03B000BDC0460010024063
:10149000F0B5D6464F464646C0B5384B84B01868BE
:1014A00007F086F9364C6846236800936368019319
:1014B000A36802930023039307F0CCF9FFF7D2FE51
:1014C000FFF7F2FC01202F4907F0ECF92E4B2F4ECD
:1014D0009A462F4B2F4F99462F4B984625000C3597
:1014E0000A222900206805F009FF0128F8D1237B92
:1014F000232B2BD0433BDBB2342B02D89B00F35879
:101500009F463900012007F0CDF9E7E7902001223E
:101510008021C00502F046FF204806F001FB902024
:1015200000228021C00502F03DFFD7E7FFF75CFEF7
:10153000FFF798FED2E7122001F086FDCEE7FFF715
:1015400053FE4146012007F0ADF9C7E72800FEF73A
:10155000E5FD25000A2320180D3503732800FEF74A
:10156000DDFD5346290082B218680D4B05F0EEF9F7
:101570004946012007F096F9B0E7C0464017002021
:10158000E40B002000B30008441700208CA90008D9
:1015900014B300082CB300081CB300084C0400006E
:1015A000DC05000010B5064B01221021186F002346
:1015B00006F0E8FC0120034907F074F910BDC046AD
:1015C000E40B002038B3000810B5044B0122586F1B
:1015D0002021002306F0D6FC10BDC046E40B0020FD
:1015E000802110B5034B0122586F0901002306F03A
:1015F000C9FC10BDE40B0020802110B5034B012273
:10160000586FC900002306F0BDFC10BDE40B00209C
:1016100010B5044B0122986F0421002306F0B2FCA0
:1016200010BDC046E40B002010B5044B0122986F9A
:101630000221002306F0A6FC10BDC046E40B0020EA
:10164000F0B5DE4657464E464546E0B59DB0FFF73D
:10165000FFFA04000390FFF7F7FAC521C84A890092
:101660000192C84A8C469346C74A23009046C74A0F
:1016700081460992220062440492C54A002694469B
:1016800063440B93C34BC44D0A93C44BC44F0293A2
:10169000C44B0593C44B0693C44B0793C44B0893A8
:1016A00002239A46C3490A2308000CAA06F02AFC22
:1016B00001281FD00A222900B86805F01FFE002863
:1016C000F0D02C799F2C00D9FEE0002C05D09F2C67
:1016D00003D84246A300D3589F4622000899012010
:1016E00007F0E0F8B3490A2308000CAA06F00AFC48
:1016F0000128DFD10C9B184203D0494609261A0E57
:10170000CA6052461A4200D0032604221A4200D070
:101710000226DA0600D5F7E09A0603D500224946EC
:1017200008260A705A0600D507261A0600D50A268A
:1017300032001B0701D5062206265946012007F074
:10174000B1F8B7E7703CE0B26B69EA68297C01F058
:10175000EDFBE86807F00AF8280007F0C7FDA1E7ED
:10176000E8239B009C46523CA0000019039BC0004C
:10177000001960449C4629228F49604407F0BAFF53
:10178000FFF742FDE8E77F3CE0B26B69EA68297C3D
:1017900001F0CCFBE86806F0E9FFDDE7FFF754FA5B
:1017A0004378002BD8D0FFF74FFA01230370287934
:1017B00001261F38C0B201F047FCCDE77E49A022C8
:1017C000099807F097FF7C4B0C3B197A4B46D96080
:1017D0001D2C00D9C6E0113CE2B212040123090617
:1017E0001143194303220023786F06F0CBFB012637
:1017F000B2E74A462B7A7149D3601B06F1E728000D
:10180000297A0C30FEF728FDFFF7FEFCA4E7002341
:1018100001220221386F06F0B5FB9DE7002301226B
:101820000221786F06F0AEFB96E7462262490B98DC
:1018300007F060FFFFF7E8FC8EE746225E49049858
:1018400007F058FFFFF7E0FC86E7FFF79BFA83E716
:10185000002301220421786F06F094FB7CE7EB7BE8
:10186000AA7B697B287BFFF7ADFAFFF7CDFCA87B4D
:10187000FFF790FA70E72800297A0C30FFF7E6FAB4
:101880006AE7FFF739FA67E72B7B002B6ED0012B55
:1018900000D061E728000D30FFF7DEF95CE72B7B15
:1018A000002B67D0012B00D056E7290028002131FA
:1018B0000D30FFF7F7F94FE73100280007F05AFB2A
:1018C000FFF7C2F90678EDE6E02C29D0E12C00D034
:1018D00003E7059A0FAB03CA03C3128838491A807D
:1018E00009230E93069B186805F002FA0FA8FEF76D
:1018F00015FC079B82B20FA91868324B05F026F839
:101900000023029A137027E7FFF79EF9C2239B007A
:10191000C2180199012006F0C5FF04260C9BFBE6C6
:101920000A99012006F0BEFF01220121264802F09B
:1019300039FD322006F0F4F800220121224802F09D
:1019400031FD322006F0ECF80021F86F05F036FB8F
:1019500001234946029A13701C4A8B5400221C4BE7
:10196000CA54F9E6123CE2B2120437E70020FFF74E
:1019700073F9F1E6280000210D30FFF793F9EBE64B
:1019800054B3000868B3000860AA0008840E002061
:101990005A0300007CB30008D40D00202D0800205D
:1019A000E40B002090B30008640C002044170020D2
:1019B0009CB30008F7C000FFE00D002001001000FC
:1019C00028230000DC050000000400485603000046
:1019D00051030000F0B5DE464E4645465746E0B599
:1019E000C5B0FFF735F98146FFF72EF900220492C2
:1019F0000692FF320292CB2292009446183A4A4451
:101A00001492D84A07004A441992D74A03000C920C
:101A1000D64A67440D92D64A00260A92D54A002536
:101A20000992D54A00249046D44A03901192D44A90
:101A30001292D44A0B92CF229200944663449B4662
:101A4000D14B1893D14B0F93D14B0893D14B0593A6
:101A5000D14B0E93D14B1093D14B1593D14B169381
:101A6000D14B1793D14B1393D1490A2308001BAADA
:101A700006F048FA8246012859D0002D00D0D1E066
:101A8000C4234A469B00D358002B4CD02B00334133
:101A90009A46012352469343002CE5D0002BE3D015
:101AA000049B002BE0D143460521D86805F076F968
:101AB0000028D9D12300012233411A4200D170E21B
:101AC000B240D6239443039A9B00D35C002B00D1F1
:101AD00048E23200F3085B000B329B18DBB29A46F7
:101AE000029B190011311D2905DD0D3B032B00D987
:101AF0008EE202991231C9B25046FEF74BFC002823
:101B000000D12FE2642006F00BF853461906029B21
:101B100003221B04194301231943099B186F002357
:101B200006F030FAA0E76B426B41DBB2B4E71B9AD8
:101B3000104200D046E10623134213D0029BFF2B34
:101B400010D0520700D5E6E1039B5B78002B00D153
:101B5000D9E14346986805F0F5F8FF2300250024F5
:101B60001B9A02931823134200D0ACE0930600D5D1
:101B7000C7E0D30500D5DAE0930500D59CE0530516
:101B800000D591E0130516D5059B1B78002B00D1DD
:101B90006DE101200E9906F085FE029BFF2B00D11E
:101BA000C9E11099012006F07DFE4346814918697C
:101BB00005F09EF81B9AC0231B021A4200D15CE775
:101BC0004346586905F044FD002800D055E71B9BAB
:101BD0001B0400D4C0E11699013006F063FE022216
:101BE000CF2189008C46039B9B1963441A70C42340
:101BF0004A469B00D358002B04D1002D00D1F1E1BF
:101C00000136F6B243466C49986905F071F8012037
:101C1000139906F047FE4346586905F0E3F8002D96
:101C200000D12DE743460521586905F0B7F8002893
:101C300000D025E72B0033419A4601235246134238
:101C400000D152E1B340039A9D435C4BADB2D35CEB
:101C5000002B19D03200F3085B000B329B18DBB26B
:101C60000793029B190011311D2905DD0D3B032B44
:101C700000D9A4E1029912310798C9B2FEF70EFB10
:101C80008246002800D0A2E1C4234A469B00D358D4
:101C9000002B04D1002D00D181E10136F6B243467C
:101CA000586905F09FF8EBE60120089906F0FAFD67
:101CB00000231B9A049365E743464149186905F0E0
:101CC00017F81B9A5BE74346D86805F08BF81B9B17
:101CD0003200DB0600D4EBE00120119906F0E2FDB2
:101CE000CB22920094460322039B9B1963441A70F3
:101CF000002C00D1EFE01B9A0136F6B2930600D417
:101D000037E700230121FA5C032A03D10A009A4035
:101D10001443A4B20133102BF5D1220001200B99FA
:101D200006F0C0FD1B9A0025D30500D424E73B0034
:101D300059461A78032A00D1A6E001339942F8D116
:101D40008B460F99012006F0ADFD434601225868ED
:101D50002021002306F016F9FF2300261B9A029388
:101D60000AE7C0465A030000B4B30008D4B3000821
:101D7000840E0020E40B0020640C0020D8B300087F
:101D8000ECB3000800B400081CB4000844B4000818
:101D90005CB400087807002074B4000888B4000818
:101DA00014B30008A8B40008B8B40008C8B4000808
:101DB0003FCFFFFF204E00008813000057030000B4
:101DC000005C2605039B160C1870F3B202930023E7
:101DD000150E18AA1374C1234A469B00D35800213C
:101DE00020223800069307F02BFC0A2D00D1DDE0FD
:101DF000132D00D8C8E0142D00D100E11C2D00D80F
:101E0000F2E0A246FF25534635402A000C99009384
:101E1000012006F047FD1CA8FEF780F91CAB9C468C
:101E20000D9E04223100604407F0D4FCE8239B009F
:101E30009C46A9004919C900491961442D22494409
:101E40001CA807F031FC1CA8FEF768F91CAB0500C4
:101E500031000422181807F0BDFC9D220A99521B7C
:101E60001CA807F021FC250000261B9A63E6012030
:101E7000FEF7BAFF43466749186904F039FF0123AA
:101E8000059A13701B9A96E6069B8B46013B0693B8
:101E9000002B00DC55E7069A1899012006F002FD98
:101EA00043465D49986804F023FF00261B9A63E6C9
:101EB0000120129906F0F6FCCB2292009446039B77
:101EC0009B1963441A78022A00D111E701221A7083
:101ED000002C00D00FE78021099B0122586F490098
:101EE000002306F04FF81B9A40E64346586904F079
:101EF00079FFC4234A469B00D358002B00D0C8E585
:101F00000136F6B2B0E5434601222021586800238D
:101F100006F038F81DE6CB22920094460222039B7D
:101F200002219B1963441A70099B013A186F002320
:101F300006F028F808E60023059A15990120137089
:101F400006F0B0FC0020FEF74FFF43463349186906
:101F500004F0CEFE1B9A2EE60120179906F0A2FC93
:101F600001223DE643460136D86804F03BFFF6B255
:101F7000002C00D078E58021099B0122586F490090
:101F8000002305F0FFFF6FE553460B3DAB404622B3
:101F900014991CA89A469CB207F0ACFB32E70026C5
:101FA0007DE64346D86804F01DFFA9E74622149950
:101FB0001CA807F09FFBFF23FF249A4622E700217D
:101FC0000798FEF76BF98246002800D15CE6079976
:101FD0001CA8FEF73BFFFA20800005F0A1FD534648
:101FE00004934DE500260DE653460D3DAB404622D9
:101FF00019991CA89A469CB207F07CFB02E7FF24C3
:10200000462219991CA8240207F074FBA246F9E69F
:10201000002171E5005C260520BF020010270000AA
:10202000F0B5DE464E4645465746E0B585B0FEF76C
:102030000FFE00239846894BFF240193884B00270D
:102040009946884B002500269B46009086490A2326
:10205000080003AA05F056FF0128F7D1039B184298
:102060006AD19A0762D45A0734D5FE2C00D190E089
:10207000FF2C00D0AFE0012290461A0700D5CCE03B
:10208000DA0604D5002F47D0FEF7D0FD039B9A0651
:102090000FD5FE2C00D199E0731E9A46002E00DC6D
:1020A000CDE0DB0700D5CFE05646200000F0CCFFA6
:1020B000039B5A065CD41A0600D501271B04C5D51C
:1020C000002DC3D05B4601221021586F002305F07C
:1020D00059FFBBE71A07D3D501F05AF8FE2C5FD0A1
:1020E000FF2C00D19BE04B46D86904F02BFE642006
:1020F00005F016FD5B46586F43461021002B00D0BB
:1021000089E00023012205F03DFF039BDA0655D547
:102110000023FF24984600255B460122586F1021BA
:10212000002305F02FFF0027039BB0E701F030F8F4
:10213000FEF77CFD039B96E71F0E1B0C0233DCB2FF
:10214000C223009A9B00D65801993A00230006F05A
:10215000A9FB3800FEF752FE4B464449D86904F00B
:10216000C7FD00223D0090460027039B760078E7DC
:10217000FEF74EFD0123039D0322290E0D000906E3
:1021800019434B465868002305F0FCFEFE24039BD0
:1021900091E7012290461A0700D471E700F0F8FF9A
:1021A000FEF752FD002303704B4601225868802140
:1021B000002305F0E7FE039BDA06A9D4FF240027DD
:1021C0009A0634D400220025904672E7FEF73CFDC3
:1021D000002303703AE74B46D86904F0B3FDFA20B8
:1021E000C00005F09DFC1320A8428041404200F051
:1021F0002BFF0122039B9046013E1A0700D43FE7C4
:1022000000F0C6FF4B46D86904F09CFD642005F041
:1022100087FC5B46586F082173E700F0B9FF039B0A
:10222000DA0600D574E7FF2400279A06CAD50023F2
:102230009846731E00259A46002E00DD31E7FEF712
:10224000F5FC5646039B34E71320A84280414042E8
:1022500000F0FAFE5646039B2BE7C046E0B40008A8
:10226000640C0020E40B0020FF00FFFFC8AF00005B
:10227000F0B5DE464E4645465746E0B5A7B0FEF7F8
:10228000E3FCD4222021835CC84F0B438354C84B0A
:10229000D33AC2540023C74A02938354C64AC74E56
:1022A000137010339B46C64BC64D0393C64B0400B8
:1022B0000193C64B90460493C54B83440993C54B89
:1022C0000593C54B0793C54B9946C54B0D93C54B1D
:1022D0000093C54B0A93C54B0F93C54B1193C54B48
:1022E0001393C54B1F93C54B1493C54B1593C54B07
:1022F0001693C54B1793C54B1893C54B1993C54BF4
:102300001A93C54B1B93C54B1C93C54B2093C54BD0
:102310002193C54B2293C54B2393C54B0893C54BC3
:102320001293C54B0E93C54B1D93C54B1093C54BD4
:102330000693C54B1E93C54B0B93C54B0C930523BE
:102340000721072025AA05F0DDFD012858D0052228
:102350002900706804F0D2FF012871D043461B7831
:10236000002B00D19DE0924B9A46E35C002B00D1FC
:1023700097E04B460521D86904F010FD002800D0F5
:102380008FE038002430FEF779F801235840534697
:10239000C0B2E0540028D2D14B46D86904F022FDE7
:1023A000C323069A9B00D358002B00D075E2A9499D
:1023B000386A04F09DFC802100230322706F89009D
:1023C00005F0E0FD60239A46BA4453461B7A002B81
:1023D000B5D03A000C992C32012006F063FA0123A3
:1023E00005225146F06F04F03BFE002352460721C0
:1023F00013720720052325AA05F084FD0128A6D124
:10240000259B184200D0BCE09A0778D45B079ED584
:10241000F06F05F01DF9002899D143461B78002B79
:1024200095D0634BE35C002B91D10D990130FEF701
:10243000D5FA05222900706804F060FF01288DD1CB
:102440002A00009906F02EFA00220421594B386A1E
:10245000E254D432A35C8B43A3547E4904F048FC7D
:102460007D4B9A46E35C002B00D1FFE05846FDF718
:1024700055FE7A4B29880200994200D184E1A02AB6
:1024800000D95CE7A02329009A1A584607F00CF9F6
:102490005846FDF743FE0A232018037400234374B3
:1024A0004DE7F06F05F0D4F8002800D147E74B4620
:1024B0000521D86904F072FC002800D03FE72423EE
:1024C0009A46BA4405225146F06F04F017FF0128DE
:1024D00000D043E17B6A029353461B7A002B00D065
:1024E000F7E12C239A46BA445046FDF717FE019BAC
:1024F00082B2514618685A4B04F028FA1FE7D422DA
:102500000421A35C386A0B43A35404F01BFC2C2366
:102510009A46BA4452460120049906F0C3F9254B65
:10252000E05C0130C0B2E054032800D81BE1052173
:10253000FDF78CFEC9B2002900D150E105990120B8
:1025400006F0B0F901221A4B0121E254454801F08E
:1025500029FF322005F0E4FA00220121414801F070
:1025600021FFC82005F0DCFA380039003C22603039
:10257000243107F02FF94B46D86904F033FC259B32
:1025800044E75846FDF7CAFD03990200012006F012
:1025900089F95846FDF7C2FD019B82B25946186879
:1025A000314B04F0D3F9259B2EE7C046640C002084
:1025B00056030000510300002D080020E40B00200A
:1025C000FCB400080C0D00204417002010B50008D2
:1025D00028B5000848B500086CB50008E40C0020D8
:1025E000E8B0000880B5000830B10008A4B50008C4
:1025F000ACB50008B4B50008BCB50008C4B5000807
:10260000CCB50008DCB50008E8B50008F0B5000856
:10261000F8B5000804B600080CB6000810B60008AB
:1026200014B6000828B600082CB6000834B6000816
:1026300048B6000800B1000880B600088CB6000853
:10264000A0B6000800000020A8B60008C0B6000828
:10265000DCB6000810270000530300004F4B0000B9
:10266000DC05000000040048B80B0000D5229200F1
:10267000A15C2878002922D0A3546B787D2B00D14F
:1026800015E16B7C7D2B1AD1083AA15CD24BE15449
:10269000AB7B313B59424B4199006B7B313B5842FC
:1026A00043415B0019432B7B313B58424341194363
:1026B000EB7B313B58424341DB000B43A3542B7867
:1026C0002B2B3BD0C54B2A889A4274D0C44B2A6826
:1026D0009A4200D1EFE0C34B2A689A4200D102E14E
:1026E000C14B2A689A4200D115E1C04B2A689A4230
:1026F00000D12AE1BE4B2A689A4200D143E128006A
:102700000E99FDF701FD002800D153E12800109932
:10271000FDF7FAFC002800D020E6D4222021A35C9B
:102720008B43A354C323069A9B00D358002B00D09D
:1027300014E61E99013006F0B5F80FE66B78432BCE
:1027400061D005220899AB4806F0C3FF002800D0ED
:1027500004E6A84B581EFEF7C5F8FFE54B46D869BE
:1027600004F040FBEBE552460120079906F09AF889
:10277000A14B1B7A002B00D1FDE601230522F06F4F
:102780009D4904F06DFCF6E6AB78002B00D076E6B0
:102790005246A35403005A1E9341C01A0023201826
:1027A000037401220221786805F0ECFB0A991920D4
:1027B000FEF714F983E7AB78002B87D10298002845
:1027C00005D0802100230122C90105F0DBFB386818
:1027D00004F0B8FA4B46D86904F004FBBEE5099949
:1027E000012006F05FF8902001224021C00501F091
:1027F000D9FD824805F094F9902000224021C005BF
:1028000001F0D0FD9AE67E4B6A889A427AD07D4AE2
:102810007D4B12889A4200D18DE07A4A7B4B128818
:102820009A4200D1A5E004220F99764806F051FFA4
:10283000002800D1C3E004221199724806F049FF34
:10284000002800D1C3E0042213996E4806F041FF2E
:10285000002800D1B7E004221F996A4806F039FF2A
:10286000002800D0EAE014996948FDF74DFC0028E3
:1028700000D113E115996648FDF746FC002806D003
:1028800016996348FDF740FC002800D066E5D42285
:102890001023A15C0B43A35460E5D4222021A35C48
:1028A00001208B43A3540B9905F0FCFF7FE52B28F7
:1028B00000D007E745E7AB88522B00D00BE7029822
:1028C000002884D0802100230122090205F05AFB50
:1028D0007DE7BB6A38685901C91A8900C918C9005F
:1028E00004F006FAFDE54B4B6A689A4200D0F7E621
:1028F000494B2A899A4200D0F2E6AB7A002B00D0ED
:10290000EEE664E7454BAA889A4200D07FE72800AC
:10291000FDF7CCFE22E5424B6A689A4200D0E4E61D
:102920002B7A3A2B00D0E0E601223E4B2800E254FD
:10293000FEF704F812E5334A3B4B52889A4200D026
:102940006BE72800FDF780FE08E5384B6A689A427D
:1029500000D0CFE62B7A3A2B00D0CBE6584634494C
:1029600006F030FF002303224021786805F00AFBBF
:10297000F4E4244A2F4B52889A4200D053E72800AF
:10298000FEF708F9EAE42C4B6A689A4200D0B6E6F2
:102990002B89792B00D0B2E601201299FEF71EF8A0
:1029A000D423E35CDB0600D5D8E40A991920FEF7AE
:1029B00015F8D3E41D990130FEF710F8CEE4280095
:1029C000FEF73CF8CAE42800FDF7C0FEC6E4280084
:1029D000FEF7D0F8C2E4C0464D0300004F4B0000A4
:1029E0004552524F4E4F20434F7065725265766983
:1029F000534D53200D0D0020880C0020C409000009
:102A0000434C00000E0D00204C4300004C490000D8
:102A1000130D002041525249455200004B3A00002C
:102A200061746F7255030000433A000073696F6E62
:102A3000150D0020503A0000526561640422179978
:102A4000354806F046FE00283ED006221899324846
:102A500006F03FFE002827D004221A992E4806F0DF
:102A600038FE002853D003221B992B4806F031FE74
:102A7000002848D003221C99274806F02AFE002887
:102A800026D12099244806F05AFE002800D165E49A
:102A9000D4221023A15C0B43A35498E6D42208232C
:102AA000A15C0B43A35459E4EB7AD421303B5A4246
:102AB0005341625C103082431B01134363540B3853
:102AC0001999FDF78BFF49E42800FDF7C1FE45E4A5
:102AD00003222199104806F0FCFD002800D03DE4B7
:102AE00022990D4806F02BFE002800D136E4386804
:102AF00004F028F94B46D86904F074F923990120B1
:102B000005F0D0FE2AE42800FDF70AFE26E428009E
:102B1000FDF7D2FE22E4C0460E0D002010B506F0EF
:102B200055F810BDF0B5C646002400B5ACB001A8FC
:102B3000019404F02DF9564F0294786102A804F034
:102B400027F9F86003A8039404F022F9514B0022FE
:102B50009846D861504B002104A8049304F0B6F8BD
:102B60004E4BF8610022002105A8059304F0AEF851
:102B70004B4BB8600022002106A8069304F0A6F88B
:102B8000484B38610022002107A8079304F09EF803
:102B9000454BB8610022012108A8089304F096F87B
:102BA000424B38620022002109A8099304F08EF8F4
:102BB0003F4B0022386000210AA80A9304F086F8EF
:102BC00043463C4E18620BA83400030006CC06C3F3
:102BD000002104F029F9384D68600DA8030006CCE7
:102BE00006C3002104F020F928600FA8030006CCDA
:102BF00006C3002104F018F9A86011A8030006CC50
:102C000006C3002104F010F913AB9C46E86707CC1B
:102C100007C3604606CC06C3002104F037F84346DC
:102C2000586218AB9C4633006246343313CB13C250
:102C3000604612CB12C2002104F028F833007860FD
:102C40001DA80200483392CB92C212CB12C20021BF
:102C500004F01CF83300686722A802005C3392CBB2
:102C600092C212CB12C2002104F010F83300286780
:102C700027A80200703352CB52C212CB12C20021DD
:102C800004F004F8A8672CB080BCB846F0BDC0467C
:102C9000640C0020E40C0020A5150008C9150008EC
:102CA000E1150008F915000811160008291600089A
:102CB0001D2B0008E0AC0008E40B0020054B10B50C
:102CC0001B68834202D005F0B1FE10BD180005F06C
:102CD00091FFFAE748170020014B18687047C0467B
:102CE000280F00200121044B1A680A431A60DA6891
:102CF0000A43DA607047C04600440140FFBEC04648
:102D00007047C046F0B58BB01422002104A806F02D
:102D100097FC8021354B09035A6990270A435A6171
:102D20005A69334D0A4080210092009A5A69C903BA
:102D30000A435A615A69FF050A4080210192019AAB
:102D40005A6989020A435A615A6938000A40802147
:102D50000292029A5A69C9020A435A615B690022C7
:102D60000B400393C021039B01F01CFB28000022B1
:102D7000012101F017FB802200240323920104A902
:102D80001C4804920593069401F000FA03231A4AA2
:102D9000380004A9049205930126069401F0F6F97F
:102DA000C023380004A9049305960694079401F003
:102DB000EDF9280004A9049605960694079401F0FD
:102DC000E5F903230D4A280004A90492059306940B
:102DD00001F0DCF9802203231201094804A90492BE
:102DE0000593069401F0D2F90BB0F0BD001002403B
:102DF000000400480008004810990000E62B00007D
:102E000000140048044B026810B59A4200D010BD6F
:102E100000F016FEFBE7C046002C014010B5034C45
:102E20002100012005F03EFDFAE7C04630B700085A
:102E300010B59AB0342200210CA806F001FC102233
:102E4000002101A806F0FCFB1C22002105A806F0C9
:102E5000F7FB01F0ADFA1821194A0224136A0CA8F5
:102E60000B431362012305220C920D9301230E9351
:102E700080235B02169380235B0317930023159432
:102E8000189301F09FFA002818D1072303900490AB
:102E9000012101A80193029401F082FD00280DD1C7
:102EA000084B07900593802308905B0005A80693C4
:102EB00001F036FE002801D11AB010BDFFF7AEFFB9
:102EC000001002400300010010B500F0A9FDFFF75B
:102ED000AFFFFFF717FFFEF7ABFA00F01DFC00F0A5
:102EE00039FC00F0EBF900F013FAFEF719FA00F0E4
:102EF000D1FB00F04FFC074B074A1A60074B084A0A
:102F00001A60084B084A1A60FFF70CFE03F0ACFE8B
:102F1000FEE7C04648170020B816002044170020DE
:102F20003016002040170020A8150020F8B54546AF
:102F3000DE4657464E461400E0B51D00212842D813
:102F4000002946D03E4E80235B00984630689D4263
:102F500028D9FF279B4618E043464246E35C611CA4
:102F6000994623780130A3540222FF32FEF76AF813
:102F700043464A46E254306801340130013DFF3097
:102F8000FF34FF3D30605D450CD93B00034099465E
:102F9000074230D1E307DFD4802221005200FEF740
:102FA00051F8E8E7E30735D5635D6719984623785C
:102FB0006A1C3B70611C0130FEF744F843463B70CD
:102FC00033685B193360F0BCBB46B246A946A046E5
:102FD000F8BD80221B4FC000C7193868184E7B68A7
:102FE0003060920293421AD880225202934220D833
:102FF000FEF796F8A7E74A4643469B1A9A462100F1
:103000001A00FEF71FF8013D3068FF3D504454445C
:103010004D44B7E72A002100FEF714F8D0E79446A4
:103020006044FEF77DF880227B6838685202934244
:10303000DED994466044FEF773F83868D8E7C04696
:103040002C0F002068AD0008F0B5CE46474680B58D
:10305000434AC300D35883B004009946FDF7E4FF08
:10306000404F1021380000F049FD3F4E300002F083
:10307000E5FD212C04D903B0C0BCB946B046F0BD73
:103080003A4B3B4D984669682C22490248464144D8
:10309000FDF780FF6C680422640244442000354937
:1030A00006F017FB002859D12000042232492430B1
:1030B00006F00FFB002845D1230022002B332A32D3
:1030C0001B7812781B061204134322002832127850
:1030D000484613432200293212782100120213437A
:1030E00080222C309200AB60FDF778FF6A6823499C
:1030F0005202424454188021531C494218784840D7
:10310000187002339C42F9D1042310210093380037
:10311000FC3300F05BFD300002F062FD6968802244
:1031200001394B1E99410120C9B2696049029200E0
:1031300041444042FDF752FF114AAB689446634454
:10314000AB6098E70F49012005F0ACFB0E4B012264
:1031500020211868002304F015FF8CE70B49F2E7E3
:1031600068AD00088C0B002094140020380F00205C
:103170002C0F002038B7000854B7000801020000E7
:1031800000FCFFFF5CB70008540C002040B70008AB
:1031900010B5FDF749FF1021034800F0AFFC0348CC
:1031A00002F04CFD10BDC0468C0B00209414002092
:1031B000084A80209446084B40425968074B490210
:1031C000C9184B1C61441A7842401A7002338B4272
:1031D000F9D17047010200002C0F0020380F0020A9
:1031E000F0B5CE46474680B52D4B804685B01800D9
:1031F000994602F023FD2B4CA768002F35D080257F
:103200006268294E52029219AD00AF4210D80421D3
:103210007B08009140460C3100F0D8FC484602F093
:10322000DFFC0023A36005B0C0BCB946B046F0BDCA
:103230000423102100934046FC3300F0C7FC4846AD
:1032400002F0CEFC63680120013B5A1E9341DBB2C1
:1032500059022A00891940426360FDF7BFFE134AF4
:10326000A36894466344A360DDE7FDF7DDFE10210B
:103270000F4800F043FC484602F0E0FC0D4B0122F1
:10328000186803AB009320210023039704F0CEFEBF
:10329000039B002BC7D08022074B52051A60C2E760
:1032A000941400202C0F0020380F002000FEFFFF98
:1032B0008C0B0020540C002004ED00E00A480B4B5E
:1032C0007F2210B503600023826080324360C260B9
:1032D00003614361836101F029FD002800D110BD25
:1032E000FFF79CFDFBE7C046381300200028004094
:1032F000054B02689A4200D070478023034A1B02A4
:10330000116A0B431362F7E70028004000100240E7
:10331000E0221048104BD20010B5C260802203603A
:103320008223D2025B008261182243600023C261C3
:10333000113A836003614361036243628362C26244
:103340000363436301F094FE002800D110BDFFF732
:1033500065FDFBE7581300200038004070B50400FD
:1033600088B01422002102A806F06AF9404B2268B6
:103370009A4201D008B070BD80213E4BC901DA6984
:1033800003250A43DA61DA693B480A40802100924A
:10339000009A5A69C9020A435A615B6980220B404C
:1033A0000193019B0223D20002920393052302A9F9
:1033B0000595069300F0EAFED0231B020026029337
:1033C00002232D4802A9039305950496069600F062
:1033D000DDFE2A4D2A4B802228006B668023520195
:1033E0006430AE66EE662B676E67AE67EE67EA50D6
:1033F00000F080FC002834D1A823224A2248D1586A
:103400000140D150C021D05889030143D1502B0035
:103410006433A3658823EC501C4D1D4B2800AB6220
:103420001023EB6200232B63AB63EB632B648023DD
:1034300080225B0128306A636B6400F05BFC00282B
:1034400012D1A8230F4A1348D1580140D150C021AE
:10345000D05889040143D1502B0028336365EC64B4
:1034600088E7FFF7DBFCC7E7FFF7D8FCE9E7C046D2
:1034700000380040001002400004004858130020AB
:103480006C00024000000240FFFF0FFFD813002035
:1034900080000240FFFFFFF001220D4B00B599694B
:1034A000022011439961996983B00A4080210092FA
:1034B000009ADA6949050A43DA61DB6900220B40A8
:1034C000019303214042019B00F0CCFA03B000BD00
:1034D000001002408021214B70B59A6909010A430E
:1034E0009A619B6986B00B4001930600694602A869
:1034F000019B01F0F9FA059B002B17D101F0E4FACA
:10350000174C184B18492360184BE360FCF718FE62
:1035100000230138606020002361A360A36102F0F2
:10352000E1FC051E06D0280006B070BD01F0CCFA03
:103530004000E5E7200002F097FB051EF3D10D20C7
:1035400000F0BAFA032E01D90125ECE70022310080
:103550000D2000F087FA064B1E60E4E700100240E1
:1035600044140020002C014040420F00E7030000FB
:10357000840700207047C046FEE7C04610B50248E9
:1035800000F07CFC10BDC0466415002010B5024858
:1035900000F074FC10BDC0462015002010B5064890
:1035A00000F06CFC054800F069FC054800F066FC82
:1035B000044800F063FC10BDDC140020BC130020A4
:1035C00000140020A00B002010B5024802F086FB7A
:1035D00010BDC0464414002010B5024802F034FE6D
:1035E00010BDC046B816002010B5024802F02CFEEF
:1035F00010BDC046301600200C4A0300106810B5FC
:10360000002805D06946C3188B4207D8136010BD47
:1036100069460748C31810608B42F7D906F0A6F830
:103620000C23036001204042F1E7C0468C140020C7
:10363000806B00200121114B11481A680A431A605F
:103640005A6802405A601A680E4802401A601A68A6
:103650000D4802401A605A680C4802400F205A6018
:10366000DA6A8243DA621A6B094802401A635A6BBB
:103670008A435A6300229A607047C0460010024095
:103680000CB8FF08FFFFF6FEFFFFFBFFFFFFC0FFC8
:10369000ACFEF0FF10B582B008220021684605F0AC
:1036A000CFFF104C104B7D2223603023636000233A
:1036B0002000A360E260A36102F014FC00280BD19B
:1036C00020220023694620000092019302F036FC7C
:1036D000002804D102B010BDFFF7A0FBF0E7FFF710
:1036E0009DFBF7E79414002000100040084B02688F
:1036F00082B09A4201D002B070471023054AD169C6
:103700001943D161D26913400193019BF3E7C0468D
:1037100000100040001002400C480D4B10B5036033
:10372000E1235B020C224360002342618360C3609B
:1037300003618361C3610362436203F0DDF9002822
:1037400000D110BDFFF76AFBFBE7C046B8160020AA
:10375000003801400D480E4B10B50C220360E123E8
:1037600042615B02C0224360002392008360C36019
:1037700003618261C3610362436203F0BDF9002803
:1037800000D110BDFFF74AFBFBE7C0463016002012
:10379000004400400C480D4B10B50360E1235B0270
:1037A0000C224360002342618360C3600361836134
:1037B000C3610362436203F09FF9002800D110BD8A
:1037C000FFF72CFBFBE7C046A81500200050004087
:1037D00070B504008CB01422002106A805F030FF5B
:1037E00023687B4A934209D07A4A934200D170E021
:1037F000794A934200D1C1E00CB070BD8021774B73
:10380000C9019A6990200A439A619A69C0050A40E1
:1038100080210092009A5A6989020A435A615B69C1
:1038200003220B400193019BC023DB00069302237C
:1038300006A90793013B089309920A9300F0A6FC9E
:10384000674D684B80222B60002328006B60AB60C3
:10385000EA602B616B61AB61EB6100F04BFA002811
:1038600000D0AEE0A823604A6048D1580140D15052
:103870008021D05809030143D1505D4B28006B646F
:1038800010238022AB640023656744306C62EB64D4
:103890002A656B65AB65EB652B6600F02BFA00289B
:1038A00000D08BE0A823F0204F4AD1588143D1505B
:1038B000D15870380143D1502B00443300220321EA
:1038C00023676538AC6600F0CDF81B2000F0F4F8F3
:1038D00092E78022414B9202D96990201143D9612D
:1038E000D9690125114002910299596903261143B2
:1038F00059615B6906A9134003930322039B0223CA
:10390000C005069207930A95099600F03FFC0C2328
:1039100090200693C0050A3B06A9079308950A95CF
:10392000099600F033FC334D334B2800AB60002385
:10393000EB602B61AB61EB612B62C02380229B01AA
:1039400008306A616B6200F0D5F900283CD1A823E9
:103950000F20254AD1588143D150D1580638014310
:10396000D1502B0008330022032163671330EC622F
:1039700000F078F81C2000F09FF83DE78021174BFD
:103980004903DA691D480A43DA61DA690A4080218D
:103990000492049A5A69C9020A435A615B6918225F
:1039A0000B400593059B022306920793032306A968
:1039B000099301330A9300F0E9FB1DE7FFF72EFAA4
:1039C00070E7FFF72BFA4DE7FFF728FABFE7C0468D
:1039D0000038014000440040005000400010024008
:1039E000DC1400205800024000000240FFFFF0FFFE
:1039F0001C0002405C150020080002400004004842
:103A000010B5040004F082FF200004F00FFF03490A
:103A100001224118200003F0F5F810BD475900209D
:103A20001021064A10B5136803200B431360FFF7FB
:103A300051FDFFF731FD002010BDC04600200240BF
:103A4000034A044B11681B785B1813607047C0462B
:103A50004C17002080070020014B18687047C046B3
:103A60004C170020FF22032310B514000340DB0095
:103A70009C4089010A40E4439A4000280BDB0C4B30
:103A8000C0219C4680088000604489004358234040
:103A90001343435010BD0F23064903408C46083B97
:103AA0009B089B006344D9690C401443DC61F1E737
:103AB00000E100E000ED00E0002805DB1F2201230B
:103AC00002409340014A13607047C04600E100E0A5
:103AD00010B5041E0FD00379DAB2002B07D00223F1
:103AE00023710023002023610133237110BD427133
:103AF000FDF73CFCF3E70120F8E7C046036810B58A
:103B000004008020400188401A68824301208840D8
:103B10001A601A6882431A6000290CD1A06800F06C
:103B20006DF922680A4913680B40136000280CD015
:103B30000423237110BDE06800F060F92268054994
:103B400013680B4013600028F2D101232371F1E7C1
:103B5000FFDFFFFFFFFFFFDF7047C0467047C04633
:103B60007047C046042210B5446A236920001343FD
:103B70002361FFF7F5FF0123237110BD10B5406AE3
:103B8000FFF7ECFF10BDC04610B5446A2000FFF7F8
:103B9000E3FF0123237110BD30B54379012B11D010
:103BA00002230371084B056893402C689C430AC9A3
:103BB0000B43934023432B60012303710023437184
:103BC000002030BD0220FCE7FE0F0000F0B5C64625
:103BD00000B5040040790E0098461100069F0128A8
:103BE00049D001226271013225682271002E28D04D
:103BF000E0682B4A2B6882622A4AC2622A4A026320
:103C0000802252051A432A60042F45D0082F40D045
:103C10000022002F3AD02B6880279C46BF056346C0
:103C20001F432F60434600F0ABF80123B3402268E6
:103C3000002011680B4313600023637180BCB846F9
:103C4000F0BDA068194A8262194AC262194A026329
:103C50002A6894468022634652011A432A60042F40
:103C600011D0082F0CD00022002F06D080272B68FF
:103C7000BF019C46D3E70220E0E72A000832F5E7BF
:103C80002A001032F2E72A000C32EFE72A00143241
:103C9000C1E72A001C32BEE72A001832BBE7C04643
:103CA000B93C0008CD3C0008DD3C0008893B000819
:103CB0007D3B0008653B000810B5446A2000FFF713
:103CC0008FFA0123237110BD7047C04610B5406ABA
:103CD000FFF7FAFF10BDC0467047C046042210B57A
:103CE000446A2369200013432361FFF7F5FF012392
:103CF000237110BD10B5041E34D021230222C254FA
:103D00000068194B0268A1681A4063680B43E168B8
:103D10000B4321690B4361690B43A1690B43E169C3
:103D20000B4313430360114B984212D9104B1421DB
:103D30009C466044FCF704FA0E4B8000E3632122AA
:103D40000023012120640020A363A154013AA3545D
:103D500010BD094B14219C466044FCF7F1F9074B58
:103D60008000EBE70120F3E70FC0FFFF07040240EC
:103D7000F8FBFDBF00040240F8FFFDBF0000024059
:103D8000F0B52024055D012D08D00125212705551A
:103D9000C55DEEB2012D03D0002303550220F0BD16
:103DA0001E3CC455002484630468076C2568B54331
:103DB000BE402560C56B6E6063604368102B0ED0FB
:103DC000C36AA160E260002B0ED00E222368134369
:103DD000236001222368002013432360DFE7C36AC6
:103DE000A260E160002BF0D10A2223681343236014
:103DF0002368063A93432360EBE7C046212230B59F
:103E0000815C0300022906D01D3A82630120202232
:103E10000021995430BD0E2401680868A043086051
:103E2000012005000C6884430C601C6CD96BA54014
:103E30004D6098540020EAE7212370B5C25C022A45
:103E400003D01D3B8363012070BD0E2402681168FE
:103E5000A143116001210D0014688C431460046CAF
:103E6000C26BA5405560C15400222023C254436B4D
:103E7000002B00D098470020E6E7C0460421F8B5A3
:103E80000C00036CC76B9C403A6806683568224298
:103E90000DD029420BD033689B0602D433688B4384
:103EA0003360C36A7C60002B00D09847F8BD0221C4
:103EB0000C009C40224214D0294212D033689B0649
:103EC00006D40A223368934333602123093AC2544B
:103ED000202300227C60C254836A002BE6D09847DE
:103EE000E4E708210C009C402242DFD02942DDD0CB
:103EF000326806318A433260012211009940212341
:103F000079608263C2540022013BC254036B002BD0
:103F1000CCD09847CAE7C046806B704710210D4B44
:103F200010B5DA680B001340114205D00A4A0E3969
:103F3000D3690B43D3611023064AD16804220A4295
:103F400005D0012404481343C1692143C161014ADA
:103F5000D36010BD0020024050170020064B002007
:103F60001A69120606D5054A5A60054A5A60186948
:103F70000006C00F7047C04600200240230167457D
:103F8000AB89EFCD8021034A002013690B431361F5
:103F90007047C04600200240F8B50400FFF75CFD02
:103FA00001260700124D01E0631C0FD1EB681E4291
:103FB000FAD12023EA68134211D10D4AD368DB06F7
:103FC00012D4D36800205B070ED4F8BD002C04D0B7
:103FD000FFF742FDC01BA042E8D90320F5E7044AE1
:103FE000EB60D368DB06ECD5FFF798FF0120ECE728
:103FF00000200240F0B54E465746DE464546E0B545
:104000009A4683B0294B019299461B7E04000E000C
:10401000012B46D001234A4625481376FFF7BCFF03
:10402000002834D1012C3ED0023C631E9C41630029
:10403000984602239C46E044002300259B4618E056
:104040005346D3404A46594601271A4CD16122694A
:104050009BB23A43226116483380FFF79DFF2369E4
:10406000BB432361002812D10135EBB202369845DB
:104070000DD92B011A00203AE2D520225146D21A3E
:1040800091400A000199D9400B001343DAE700235D
:104090004A46137603B0F0BCBB46B246A946A046DA
:1040A000F0BD0220F6E701239846C5E7501700202F
:1040B00050C3000000200240F0B546464F46D646A9
:1040C000C0B52F4F06003B7E8846012B56D00123FA
:1040D0003B7603682B48012B33D0FFF75DFF0028A8
:1040E00033D1012342465B421360B3687568DB023B
:1040F0005B199D4229D20023234C994609E0802375
:104100001B019C46B3687268DB0265449B18AB4296
:104110001CD902224B469246FB612369194813437E
:104120002361656123693E3213432361FFF734FF46
:1041300052462369934323610028E0D043461D6023
:1041400004E0FFF729FF002807D0012000233B7679
:10415000E0BCBA46B146A846F0BD042540220A4C50
:10416000F861236907482B432361236913432361C3
:10417000FFF712FF2369AB432361E7E70220E7E77C
:104180005017002050C3000000200240F0B5DE466A
:1041900057464E464546E0B50C68002387B0002CD4
:1041A00076D0794A794E9346029101229A409446FC
:1041B000224000926246144266D002995D004A682D
:1041C0009246032251460A400321A940C943571E83
:1041D0000191012F63D9032A00D0B7E0AA400768F4
:1041E000019939400A43C0210260524689020A42BD
:1041F0004AD05A4601215D4692690F270A43AA61B7
:10420000AA6903250A4062491D408C46AD00AF40B3
:104210000592059A9A08920062449168B9439027E2
:10422000FF05B84212D05B4FB84200D19FE05A4F11
:10423000B84200D19FE0594FB84200D193E0584FA7
:10424000B84200D19BE00527AF403943802755464F
:10425000916000997F03C943B2683D4200D072E08B
:104260000A405546B260F268AD0269D40A4055462C
:10427000F2607268AD0360D40A40554672603268DD
:10428000ED0355D40A40326022000133DA408CD16C
:1042900007B0F0BCBB46B246A946A046F0BD816857
:1042A0000F0001990F40B946029FF9680F00AF4017
:1042B000B8464F4641460F43876041680F0061464C
:1042C0008F4351460909B8460F0001210F409F4016
:1042D000BC46474661460F434760C1680F000199DD
:1042E0000F400299B84689680F00AF40BC46474668
:1042F00061460F43C760022A00D06FE7D9088900E2
:104300008C46844461460F6A07211940890088461B
:1043100003970F214746B940039F8F4303974746B2
:1043200002990969B940039F0F4361460F6255E73F
:10433000009911430A003260A6E7009D2A439CE7DA
:10434000009D2A4393E7009D2A438AE7C168019FA5
:104350003940884602998968A9408C46414667469B
:104360003943C1603AE70327AF4039436EE701277D
:10437000AF4039436AE70227AF40394366E7042775
:10438000AF40394362E7C0460010024000040140DC
:10439000000001400004004800080048000C0048EC
:1043A00000100048002A01D0816170478162FCE75B
:1043B0008023034A5B0011680B4313607047C046BB
:1043C00000700040F0B5CE46474680B5040083B08B
:1043D000002800D115E10368DA072FD50C21C64863
:1043E00042680A40042A00D12DE1426811400829A0
:1043F00000D11FE16368012B00D12EE1002B00D119
:1044000050E1052B00D17BE2BB4BBC491A680A4046
:104410001A601A68BA490A401A60FFF71DFB802625
:104420000500B54FB60205E0FFF716FB401B6428F8
:1044300000D935E13B683342F6D023689A0729D585
:104440000C22AD494868024200D1D3E048680240DE
:10445000082A00D1C5E0E368A74D002B00D165E133
:1044600001222B68022713432B60FFF7F5FA0600A1
:1044700005E0FFF7F1FA801B022800D910E12B6854
:104480001F42F6D0F8212A6823698A43DB001343D0
:104490002B6023681A072DD45A0745D580220020A7
:1044A000954B5205D9698146114208D1D96911430A
:1044B000D961DB6913400193019B01239946802751
:1044C000904E7F0033683B4200D1CDE0A368012BC2
:1044D00000D13EE1002B00D1FDE0052B00D1CBE166
:1044E0000121854B1A6A8A431A621A6A03318A4388
:1044F0001A6232E1E369804D002B00D187E001228E
:104500006B6A022713436B62FFF7A6FA060005E009
:10451000FFF7A2FA801B022800D9C1E06B6A1F4294
:10452000F6D023685A07B9D4DA0612D56269012A8F
:1045300000D1C6E1053200D021E10420F8256E4902
:104540004A6B82434A63486BA269A843D200024384
:104550004A639B0624D50C2267494B6813400C2BF9
:1045600000D12CE14B681A40082A00D120E1236ACF
:10457000614D002B00D12CE180236A6B5B02134359
:104580006B63FFF769FA80270600BF0205E0FFF7BB
:1045900063FA801B022800D982E06B6B3B42F6D0A5
:1045A000636A002B1BD00C22534D69680A40082A0D
:1045B00000D16BE1022B00D126E12B68524A802604
:1045C00013402B60FFF748FAB604040004E0FFF73D
:1045D00043FA001B022863D82B683342F7D100202E
:1045E00010E04A68C02149020A40802109028A423B
:1045F00000D030E7404A1268920745D5E268012AA8
:1046000042D0012003B0C0BCB946B046F0BD012283
:104610006B6A022793436B62FFF71EFA060004E001
:10462000FFF71AFA801B02283AD86B6A1F42F7D1AB
:10463000236877E7C021426849020A408021490285
:104640008A4200D0D6E62C4A1268920300D4F5E6DE
:104650006268002A00D0F1E6D3E78023264A5B0295
:1046600011680B431360D8E633683B433360FFF7B0
:10467000F3F9050004E0FFF7EFF9401B64280FD8B9
:1046800033683B42F7D021E7F8251B4822690168CF
:10469000D200A9430A4302601A0700D4FCE629E7C6
:1046A0000320AFE7144D154A2B68802713402B6079
:1046B0002B68134ABF0213402B60FFF7CDF90600A9
:1046C00004E0FFF7C9F9801B6428E9D82B683B4256
:1046D000F7D12368B2E60122074E0C4D336A9343AB
:1046E0003362336A033293433362FFF7B5F902232F
:1046F0000700984611E0C04600100240FFFFFEFF91
:10470000FFFFFBFF00700040FFFFFFFE881300006B
:10471000FFF7A2F9C01BA842C2D84246336A1A4228
:10472000F6D14B46012B68D02368FDE601222B68A9
:10473000022793432B60FFF78FF9060004E0FFF791
:104740008BF9801B0228ABD82B681F42F7D1236856
:10475000A0E671490A6A13430B62FFF77DF96E4BBD
:104760000600984602276D4D04E0FFF775F9801B9F
:10477000A84295D843461B6A1F42F6D0D1E70422CF
:10478000654D02276B6B13436B636B6B033A93436B
:104790006B63FFF761F9060005E0FFF75DF9801B29
:1047A000022800D97CE76B6B1F42F6D12368D0E664
:1047B000C0224B6852021340934200D0D7E6564BBA
:1047C0005B6B9B0300D4EBE6236A012B00D018E758
:1047D000E6E66B6B524A802713406B63FFF73CF9A8
:1047E000BF02060005E0FFF737F9801B022800D959
:1047F00056E76B6B3B42F6D1D2E6474A4949D3694B
:104800000B40D36123688FE62B68474A802713400B
:104810002B60FFF721F9BF04060005E0FFF71CF944
:10482000801B022800D93BE72B683B42F6D10F22C0
:10483000EB6A394E9343226B1343EB62A16AE36A3E
:104840006A680B4339490A4013436B6080232A6826
:104850005B0413432B60FFF7FFF880250400AD04D1
:1048600005E0FFF7F9F8001B022800D918E73368C4
:104870002B42F6D00020C5E60421274B1A6A0A43D2
:104880001A621A6A03390A431A6266E7012B00D1D9
:10489000B7E6C0226B68A16A5202E86A1A408A42EF
:1048A00000D0AEE60F22216B02408A4200D0A8E67B
:1048B000F022E06A92031340181A431E9841C0B2D6
:1048C000A0E60421144D02276B6B0B436B636B6BEB
:1048D00013436B63FFF7C0F8060005E0FFF7BCF871
:1048E000801B022800D9DBE66B6B1F42F6D0F82153
:1048F0006A6BA3698A43DB0013436B63236828E672
:104900008022054BD20219680A431A608022196876
:1049100052020A431A6080E500100240881300002A
:10492000FFFFFEFFFFFFFFEFFFFFFFFEFF7FC2FF66
:104930000C20164A10B553681840082809D00C38C6
:1049400043425841124B40421840124B9C4660442F
:1049500010BD0F20D26A10499C0C04401040C022A8
:104960000C5D091880205202097C134040028342EA
:1049700001D0934204D00748FBF7E2FB6043E7E72E
:104980000648FBF7DDFB6043E2E7C046001002404B
:10499000005A620200127A0088AE0008006CDC0245
:1049A000F8B5CE46474604000D0080B500280DD06E
:1049B00001233F490A681A40AA420CD20A689A4366
:1049C0002A430A600A681340AB4204D00120C0BCED
:1049D000B946B046F8BD23689A070ED55A0705D5E3
:1049E000E0223449D200486802434A60F02031494D
:1049F0004A688243A06802434A60DB0724D56268A4
:104A00002C4B012A4AD0022A44D0032A4CD01B68DE
:104A10009B07DBD50321274E73688B4313437360D9
:104A2000FFF71AF80C239846234B0700994604E039
:104A3000FFF712F8C01B484534D8434672681A4045
:104A400063689B009A42F3D10121194A13680B4015
:104A5000AB4205D913688B43136013681942B5D173
:104A600023685B0706D5134A144953680B40E16875
:104A70000B435360FFF75CFF0E4B114A5B68114913
:104A80001B061B0FD35CD84008600320FEF722FDF5
:104A900000209CE71B689B01BCD497E71B689B0325
:104AA000B8D493E7032092E75B6B9B03B2D48DE706
:104AB000002002400010024088130000FFF8FFFFB2
:104AC00070AE00087C070020044B054A5B6805496E
:104AD0005B055B0FCB5C1068D8407047001002404C
:104AE0007C07002080AE00080723032203600A4BE6
:104AF00010B55C6822404260F0225C68224082600F
:104B0000E0225B68D2001340C360044B1A680123A3
:104B100013400B6010BDC046001002400020024050
:104B2000F0B5CE46474680B50368040083B0DA038B
:104B300030D580224E4B5205D969002711425DD0F5
:104B400080264C4D76002B68334265D0484DC023FB
:104B50002A6A9B001000616818401A4211D00B406D
:104B600083420ED080202B6A2E6A40023043286296
:104B7000286A414A414E1A40304028622A62DB07C7
:104B800062D43B4A3C48136A03400B431362012F33
:104B900054D02368DA0706D5032035490A6B8243CF
:104BA000A06802430A639A0706D5314934480A6B64
:104BB0000240E06802430A635A0306D52C49314893
:104BC0000A6B0240206902430A639A0606D5102048
:104BD00027490A6B8243606902430A635B0505D477
:104BE000002003B0C0BCB946B046F0BD4021204A09
:104BF000136B8B43A1690B431363F1E78026D969DB
:104C00001C4D1143D961DB69760013400193019B70
:104C10002B680137334299D12B6833432B60FEF761
:104C20001BFF80462B68334200D08FE7FEF714FF4E
:104C30004346C01A6428F5D90320D2E7D369124944
:104C40000B40D3612368A5E7FEF706FF02239846D1
:104C50000E4B0600994604E0FEF7FEFE801B484519
:104C6000EAD842462B6A1A42F6D0616889E7C04604
:104C70000010024000700040FFFCFFFFFFFFFEFF3E
:104C8000FFFFFCFFFFFFF3FFFFFFFFEF88130000B4
:104C9000F0B5C64602680400D368002500B55B067F
:104CA00003D5280080BCB846F0BD8021D3684027DA
:104CB0000B43D360FEF7D0FEFA239B000600984614
:104CC0002368DB681F42ECD1012DEAD0FEF7C4FE59
:104CD000801B4045F4D9042301256377F0E7C046E3
:104CE0008021F8B503680400DA688A43DA609A68BC
:104CF000920601D50020F8BD0B4AFA27DA60FEF7CC
:104D0000ABFE20260500BF0004E0FEF7A5FE401B19
:104D1000B84204D82368DB681E42F6D0EAE70423D1
:104D200001206377E7E7C0465DFD010010B5041E72
:104D300047D0437FDAB2002B09D002232268637781
:104D4000D368DB060CD501230020637710BD027702
:104D5000FEF7CEFA022322686377D368DB06F2D42B
:104D6000CA235362773B53622000FFF791FF236809
:104D7000002802D0FF225A62E8E79A6812492069A7
:104D80000A409A60626899680243606902430A4374
:104D90009A60E26820001A61A268196912040A4345
:104DA0001A61FFF79DFF23680028E3D11A6C0749B9
:104DB0000A401A641A6CA1690A431A64FF225A62F3
:104DC000C1E70120C2E7C046BFFF8FFFFFFFFBFF27
:104DD000F0B5C64600B50C00160082B00700FEF71D
:104DE0003BFE3619361AFEF737FE80258046264BE5
:104DF0001B685B011B0D734301933A6801E0631C60
:104E000007D193681D42FAD1002002B080BCB84699
:104E1000F0BDFEF721FE4346C01AB04208D2019B06
:104E20005A1E93415B421E40019B013B0193E4E704
:104E3000E0213B685A688A435A60822279685200AE
:104E4000914213D08021BA6A89018A4206D1196839
:104E50000E480140196019680A431A605D23012257
:104E6000FA540022013B0320FA54CEE78021BA68AD
:104E700009028A4203D08021C9008A42E2D140213E
:104E80001A688A431A60DDE77C070020FFDFFFFF16
:104E9000F0B5DE4657464E464546E0B583B01E00A7
:104EA0006B46DF1C0023150081460C003B70FEF7AB
:104EB000D3FD7619331A9846FEF7CEFD4B461B6894
:104EC000C0269A46344B83461B68F6009A00D218D7
:104ED000D3009B1A42461B0D53435246019301E0F7
:104EE0006B1C0BD1936823421DD0B442F8D15346BA
:104EF0001B7BDBB23B703B786B1CF3D0FEF7ACFD49
:104F00005B46C01A404516D2019B5A1E9341424649
:104F10005B421A40019B9046013B01934B461A6845
:104F200093682342E1D1002003B0F0BCBB46B246F7
:104F3000A946A046F0BD4B46E0211B685A688A434B
:104F400049465A60822249685200914215D04A4629
:104F50008021926A89018A4206D119680F4801406E
:104F6000196019680A431A605D2301224946CA5430
:104F70000022013B0320CA54D6E74A4680219268AA
:104F800009028A4203D08021C9008A42DFD1402130
:104F90001A688A431A60DAE77C070020FFDFFFFF08
:104FA000F8B582231700426804000E005B009A42A5
:104FB0000DD03A0031002000FFF70AFF051E1BD17B
:104FC000822362685B009A421CD02800F8BD8022D0
:104FD00083681202934203D08022D2009342E8D128
:104FE00040212268200013688B43136031003A008F
:104FF000FFF7EEFE051EE3D02022236E03251343A8
:105000002366E2E78022A3681202934203D0802243
:10501000D2009342D9D1C0213B0032002000C90008
:10502000FFF736FF0028D0D0E6E7C04670B5130082
:105030000D0016000A00C02149010400FFF728FFF7
:1050400000280FD1320029002000FFF7C1FE002800
:1050500008D1C02133002A002000C900FFF718FF43
:10506000002804D020220320236E1343236670BD42
:10507000F8B5DE4657464E4645460400E0B50028E2
:1050800000D193E0456A002D69D00023036143619C
:105090000023A3625D33E35CDAB2002B6CD05D23A6
:1050A00002224021E254226813688B431360E023FC
:1050B000E168DB00994266D800D070E08023A06AE6
:1050C0009B01184080235B0184469B4682268427EF
:1050D000636876003340A6683F023E4002273343B0
:1050E0002669A0693E40334301266769B2463740CE
:1050F0003B438027BF0007403B43E769000CB846AD
:105100003827B94647464E463740266A3B43B046A5
:1051100080264746374066463B43334308261360A4
:10512000636B3340F02636013140194304230340BA
:10513000194310232B4019435B4619435160D3692F
:105140001D4900200B40D3610023524623665D3386
:10515000E254F0BCBB46B246A946A046F8BD822345
:1051600042685B009A4293D00023C561A3625D331D
:10517000E35CDAB2002B92D15C332000E254FEF7FC
:10518000EDF8656A8BE7F0231B01994210D180236B
:10519000A06A9B011840002384469B4696E7802323
:1051A0005B019B4600239C46A3628FE70120D0E76A
:1051B00000239B46F6E7C046FFF7FFFFF0B5CE465B
:1051C00047461D005C2380B59146C25C04008846BA
:1051D00083B0012A64D00122C254FEF73DFC5D2257
:1051E000A35C0600DFB2012B09D002275C2300225A
:1051F000E254380003B0C0BCB946B046F0BD4346E7
:10520000002BF3D04B46002BF0D00323A35442468F
:105210000023A2634A462366A287E28744222364CE
:10522000A3520232A3522365E3648023A26820685C
:105230001B029A425BD040230268134202D10268EB
:1052400013430360E023E2686168DB009A4229D9D6
:10525000002961D04B46012B5ED00222E38F90469D
:10526000002B0DD163E0A36B1A880233C260E18F7B
:10527000A363013989B2E187E38F002B57D02068FF
:10528000424683681A42EED1FEF7E6FB801BA84235
:10529000F2D36B1CF0D05D2301220327E254A5E773
:1052A0000227A6E700292CD04B46012B29D0E38FFB
:1052B000002B3CD0022398460CE0A26B12781A73A4
:1052C000E18FA36B0139013389B2A363E187E38FD7
:1052D000002B2CD0414623689A681142EDD1FEF78D
:1052E000BBFB801BA842F2D36B1CF0D0D3E740225B
:1052F00003689343036080230268DB011343036068
:1053000099E743461B780373A36B0133A363E38FD1
:10531000013B9BB2E387CAE743461B88C360434611
:105320000233A363E38F013B9BB2E38795E732002F
:1053300029002000FFF77AFE002801D020232366F1
:10534000A368002B06D101932368DA6801929B6859
:105350000193019B236E002B00D047E701225D33B0
:105360000027E25442E7C046F8B54746CE4680B52E
:105370001F005C239146C25C04008846089D012AF8
:1053800000D1A7E00122C254FEF766FB5D23E35C77
:1053900006006268D9B2012B10D0822302205B0084
:1053A0009A4206D05C230022E254C0BCB946B04603
:1053B000F8BDA368002BF5D10429F3D14346002B97
:1053C00000D185E04B46002B00D181E0002F00D1B9
:1053D0007EE05D23E15C042901D00521E1544946CA
:1053E00000232164462123666752023967524146F1
:1053F000A163E021E068E3642365E7872368A7876A
:10540000C900884268D95968644801405960402100
:105410001868014202D1186801431960002A00D0BF
:10542000B4E042461288DA6043460233A363E38F56
:10543000013B9BB2E38701239946013346279846F7
:10544000E38F002B02D1E35B002B34D0414623686D
:105450009A68114210D0E28F002A0DD04A46012AE4
:1054600008D1A26B11880232D960A263E28F013A9F
:1054700092B2E28700229146012108009A6810400A
:1054800011420CD0E25B002A09D08146DA68236C15
:105490001A8002332364E35B013B9BB2E353FEF7C4
:1054A000DBFA801BA842CBD36B1CC9D05D23012241
:1054B0000320E25476E7320029002000FFF7B6FD12
:1054C000002802D0202301202366236E002B61D008
:1054D000012067E7022068E78021586849010143FD
:1054E000596040211868014202D1186801431960CF
:1054F000002A48D1424612781A73A36B0133A36382
:10550000E38F013B9BB2E387012399460133462792
:105510009846E38F002B02D1E35B002BCBD04146B2
:1055200023689A68114212D0E28F002A0FD04A46AF
:10553000012A0CD1A26B12781A7300229146A36B38
:105540000133A363E38F013B9BB2E387236801210F
:1055500008009A68104011420DD0E25B002A0AD080
:1055600081461B7B226C1370236C01332364E35B45
:10557000013B9BB2E353FEF76FFA801BA842C8D3EE
:105580006B1CC6D092E7012FBED1B3E7012F00D02C
:1055900051E746E701225D33E25403E7FFEFFFFFE7
:1055A000F0B5CE46474616005D2280B51D00835CEF
:1055B0000400894683B0DFB2012B67D10433416810
:1055C000FF33994200D16BE05C23E25C012A00D1F9
:1055D000A7E00122E254FEF73FFA4B468046002B3B
:1055E00055D0002E53D05D230422E2544A460023B6
:1055F00022644422E0212366A6520232A652A3630B
:10560000A387E387E3642365E3682268C9008B42CC
:1056100000D888E051685248014051608021A0685C
:105620000902884200D18DE01168490646D4402025
:10563000116801431160E021C9008B423ED8462326
:10564000E35A002B5CD00123462699460DE0236CDB
:10565000127B1A70236C01332364A35B013B9BB262
:10566000A353A35B002B4BD0226849469368194291
:10567000EDD1FEF7F1F94346C01AA842F1D36B1CF5
:10568000EFD05D234A460327E25400E002275C2363
:105690000022E254380003B0C0BCB946B046F0BDA9
:1056A0008368002B00D08FE70433835449463300CE
:1056B0004A460095FFF758FE0700EBE74623012115
:1056C000E35A89464626002B0DD119E0D268236C97
:1056D0001A8002332364A25B013A92B2A253A35B05
:1056E000002B0DD02268494693681942EED1FEF78F
:1056F000B3F94346C01AA842F1D36B1CEFD0C0E700
:10570000424629002000FFF74BFC002801D020234F
:105710002366236E002BBAD101225D330027E254A9
:10572000B5E70227B6E7802150684901014351607F
:105730008021A0680902884204D01168490600D47B
:1057400075E77CE740201168064E814311601168BF
:10575000314011601168084200D06CE767E7C0462D
:10576000FFEFFFFFFFBFFFFFF8B504005C20255CE3
:10577000012D00D173E0012525540130205C6568BE
:10578000C7B201280DD0822602207600B54203D090
:105790005C230022E254F8BDA568002DF8D1042F47
:1057A000F6D1002961D0002A5FD0002B5DD05D20AA
:1057B000255C042D01D0052525540020A16344213A
:1057C0002066A387E3872264635202316352216813
:1057D000474DE06420654868E6682840E025486059
:1057E000ED00A06DAE4242D94B68424D2B404B605C
:1057F0005D23E35C042B5AD03F4D404B8362404B0A
:10580000C5620363002343634633E35A0C319BB202
:10581000FEF7B6FA031E24D1012022685168014325
:10582000606D5160C362836203634363E38FA16B66
:105830009BB20C32FEF7A4FA002812D14022236852
:1058400019680A4202D119680A431A6020215A686D
:105850000A435A605A681E390A435A6098E7022080
:1058600099E71022236E13432366012090E78025D9
:105870004E686D0135434D608025666DED0076699B
:10588000AE4217D080234569DB009D42B0D14B6802
:10589000184D2B404B604623E55AED0714D44D6854
:1058A000184E35404D60E55A6D08E552A0E7164D9B
:1058B000164BA3E7DB0711D44B68154D2B404B600B
:1058C000E38F5B08E387DDE780254E68AD01354354
:1058D0004D60E55A6D080135E55289E780234D6832
:1058E000DB012B434B60E38F5B080133E387C9E7A0
:1058F000FF9FFFFFFFEFFFFFD95A0008815B000801
:10590000E95A0008FFDFFFFFC95A00080D5B0008D5
:10591000FFBFFFFF70B504005D20255C0E00012D68
:1059200058D1A568002D5AD05C23E15C012900D133
:1059300078E00121E154002E00D171E0002A00D16D
:105940006EE001330331E1540023403123662664C5
:10595000625202316252E3642365A387E3878023A6
:1059600021681B029D424ED04B683C4AE5681340BB
:105970004B60E023A06DDB009D423FD880234D6843
:105980005B012B434B6080234569DB009D424BD07C
:10599000334B3200C362334B0C318362324B0363AF
:1059A000002343634633E35A9BB2FEF7E9F900282C
:1059B00032D14022236819680A4202D119680A4389
:1059C0001A6020215A680A435A605A681F390A43EC
:1059D0005A6000E002205C230022E25470BD822362
:1059E00061685B0099429FD1013BFF3B235431002A
:1059F000130020003200FFF7B7FEEFE74B681B4AA9
:105A000013404B60C4E740220B6893430B600B6864
:105A1000174A13400B60A7E71022236E1343236637
:105A20000120D8E70220D9E74B68104D2B404B608E
:105A30004623E55AED0706D44D682A404A60E25AEB
:105A40005208E252A4E780224D6892012A434A603C
:105A5000E25A52080132E2529AE7C046FFDFFFFFE6
:105A6000C95A00080D5B0008E95A0008FFEFFFFF64
:105A7000FFBFFFFF70B50400406D002803D0FEF7A4
:105A8000BDF9002816D10025A06D002808D0FEF72A
:105A9000B5F9002804D010220125236E1343236694
:105AA00003212268280053688B4353605D23012241
:105AB000E25470BD1022236E012513432366E3E7F1
:105AC0007047C0467047C04610B5406AFFF7FAFFFE
:105AD00010BDC0467047C04610B5406AFFF7FAFFD8
