:400000000010002011000000510C0000510C000080B500AF00F026FE80B500AF184B184A12688021C9020A431A60182001F0EEFF134B134A126813490A401A60124B134A52
:400040001A60134B30221A60124B20221A60124B10221A60114B802212061A60084B00221A600F4B0F4A1A600F4B104A1A60104B104A1A60104B00221A60C046BD4680BD74
:4000800000010B40FFFFFBFF04010B40060000800C020240140202401802024008010B4000000240FE00008040000240FE0000C0800002400E0000800C020B4080B582B0BE
:4000C00000AF72B6FB1D00221A7022E0FB1D1A7813005B009B185B00404A9B183B603B681A78597809020A43997809040A43DB781B06134318003B681A795B791B0213433D
:400100009BB2190000F012FDFB1D1A78FB1D01321A70FB1D1B78012BD8D9314A314B1100180000F013FD304B304A1A60304B992212041A602F4B992212041A602E4B992205
:4001400012041A602D4B992212041A602C4B802292051A602B4A2B4B1B78DBB23C218B43DBB214210B43DBB21370274A264B1B78DBB216210B43DBB21370244B7F221A608B
:40018000234BC02212041A60224B7F221A60224B04221A60214B224A1A60224B7F221A60214BC02212041A60204B7F221A60204BC3221A601F4B204A1A60204BC0221A60AD
:4001C0001F4B0C221A601F4B0C221A60FFF724FF00F0FEFCC046BD4602B080BDF435000010360000003600000C000140EEEE000000500F4010500F4020500F4030500F4036
:4002000038500F4001700F4000700F400000044008000440180004400001044008010440800104000002044008020440180204400003044008030440A48D0000180304404D
:40024000000404401804044010B5064C2378002B07D1054B002B02D0044800E000BF0123237010BDD801002000000000F0350000084B10B5002B03D00749084800E000BFF2
:4002800007480368002B00D110BD064B002BFBD09847F9E700000000DC010020F0350000C800002000000000B0B582B000AF02003960FB1D1A70FB1D1B787F2B28D82F4C58
:4002C000FB1D1B785BB29B082C49FA1D127852B29208C03292005258F91D0978080003210140C900FF2088400100C94311403A689201FF201040FA1D1278150003222A40C6
:40030000D200904002000A43C0339B001A5131E01B4CFB1D1B781A000F231340083B9908174AFB1D1B7818000F230340083B9B0806339B00D31804331B68FA1D1278100084
:4003400003220240D200FF2090400200D2431A403B689B01FF201840FB1D1B781D0003232B40DB00984003001A438B1D9B00E31804331A60C046BD4602B0B0BD00E100E0EA
:4003800000ED00E080B582B000AF78607B68013B0C4A934201D9012310E00B4B7A68013A5A6001235B4203211800FFF77DFF064B00229A60044B07221A6000231800BD4611
:4003C00002B080BDFFFFFF0010E000E080B582B000AFFB1D00221A7009E0FB1D1B78180001F0BEFCFB1D1A78FB1D01321A70FB1D1B78102BF1D9112001F07AFCC046BD4640
:4004000002B080BD80B582B000AFFB1D00221A7009E0FB1D1B78180001F06AFCFB1D1A78FB1D01321A70FB1D1B78112BF1D9C046BD4602B080BDC04680B582B000AFFB1D94
:4004400000221A7009E0FB1D1B78180001F088FCFB1D1A78FB1D01321A70FB1D1B78112BF1D9C046BD4602B080BDC04680B500AF62B62E4B19000F2001F0BAFE2C4B18008C
:40048000FFF780FF00F012FD01F01EFAFFF7BAFF284B01221A70274B00225A70254B00229A70244B0022DA70224B00221A71214B04225A7102F062F81E4B1A000A210A2080
:4004C00002F04AF900F0BAFA1B4B1B78022B16D002DC012B06D06AE2032B31D0042B00D157E264E200F0CAFD031E00D063E201F0FDFA00F097FD104B02221A705BE202F0AC
:400500000DFE03001A000D4B1A6000F0B7FD031E02D001F057FF02E0074B03221A70074B1B68DBB2180002F0FDFD49E2E9090000C05D0000FC020020D00000200002002030
:40054000E44B04221A700F2001F08AFB0300DBB21A1C01231340DAB2DF4B01210A4010001A7801218A43111C021C0A431A70052001F076FB0300DBB21A1C01231340DAB295
:40058000D54B01210A4090181A7802218A43111C021C0A431A70062001F062FB0300DBB21A1C01231340DAB2CB4B01210A4090001A7804218A43111C021C0A431A70072047
:4005C00001F04EFB0300DBB21A1C01231340DAB2C14B01210A40D0001A7808218A43111C021C0A431A70082001F03AFB0300DBB21A1C01231340DAB2B74B01210A40100170
:400600001A7810218A43111C021C0A431A700A2001F026FB0300DBB21A1C01231340DAB2AD4B01210A4050011A7820218A43111C021C0A431A70092001F012FB0300DBB2D5
:400640001A1C01231340DAB2A34B01210A4090011A7840218A43111C021C0A431A700D2001F0FEFA0300DBB21A1C01231340DAB2994BD0011A787F210A40111C021C0A43CC
:400680001A700B2001F0ECFA0300DBB21A1C01231340DAB2904B01210A4010005A7801218A43111C021C0A435A700C2001F0D8FA0300DBB21A1C01231340DAB2864B0121C0
:4006C0000A4090185A7802218A43111C021C0A435A700E2001F0C4FA0300DBB21A1C01231340DAB27C4B01210A4090015A7840218A43111C021C0A435A70022001F0B0FA5B
:400700000300DBB21A1C01231340DAB2724B01210A40D0005A7808218A43111C021C0A435A70002001F09CFA0300DBB21A1C01231340DAB2684B01210A4090005A780421B7
:400740008A43111C021C0A435A70012001F088FA0300DBB21A1C01231340DAB25E4B01210A4010015A7810218A43111C021C0A435A70042001F074FA0300DBB21A1C012328
:400780001340DAB2544B01210A4050015A7820218A43111C021C0A435A70102001F060FA0300DBB21A1C01231340DAB24A4B01210A4010009A7801218A43111C021C0A43CE
:4007C0009A70032001F04CFA0300DBB21A1C01231340DAB2404BD0015A787F210A40111C021C0A435A703D4B1A783D4B5A703A4B1A783B4B9A70384B5A78394BDA70364B9B
:400800009A78374B1A71112001F02AFA031E21D0314B1B78002B1DD12F4B5B78002B19D12D4B9B78002B15D12E4B1A682E4B1B68D31A180002F052FE00222C4B02F02CFD29
:40084000031E0BD0FFF7F8FD112001F027F8FFF7D9FD03E0234B1A68234B1A6001F02CFA031E04D1112001F0FBF9031E03D0204B01221A7002E01E4B00221A701C4B1B78A9
:40088000002B18D1174B1A681A4B1B68D31A180002F024FE0022184B02F0FEFC031E0ED0FFF7CAFD01F010F8FFF7ACFD0D4B1A68104B1A6003E00B4B1A680E4B1A600C4BE6
:4008C0001B78002B1AD0054B7B221A70012002F0A5F919E0D0000020D0020020E0020020FC020020FC010020F40100200088C340D6020020F8010020004CDD40314B002258
:400900001A70002002F08AF92F4B1B78012B25D12E4B1B78002B03D102F0E8FB031E03D02B4B00221A8048E0294B1B8801339AB2274B1A80264B1B88952B3ED9254B1A68BB
:40094000254B1A60244B1B681900002002F046FB1D4B00221A70FFF739FD2EE01B4B1B78002B03D102F0C2FB031E26D01B4B01221A701B4B1A68184B1A60174B1B6819004D
:40098000002002F02BFB104B01221A70FFF73AFD13E000F0ABF8134B1B78DBB2002B0ED00E4B01221A700F4B00221A7007E0002001F0E8FC04E0C04686E5C04684E5C0460B
:4009C00082E5C046E0020020D1000020D60200200E02002008020020CC000020D0000020040200200C02002080B500AFC046BD4680BDC04680B500AF042002F025FB0C4B74
:400A000001221A700B4B1B78012B06D10A4B1B681E331A00084B1A6006E0074B1B68F533FF331A00044B1A60C046BD4680BDC0460C020020D1000020FC01002080B500AFA9
:400A4000174B180001F01EFD164BF02292001A6000F02EF8134B1A68134B1A60114BFA2292011A6000F024F80E4B1A680F4B1A600D4B1B681900002002F0B0FA0121002071
:400A800002F016FA0121002002F040FA082002F013FB012002F070FAC046BD4680BDC046F5090000CC000020040200200802002080B582B000AF00233B600B4B1B685B098A
:400AC000FA22920053437B603A007B681100180002F0D6F8031E02D13A68034B1A60C046BD4602B080BDC046CC00002080B500AF02F014FB03001A000B4B1A6001F010FEB8
:400B000002002023134005D101F082FD01F074FC01F086FD044B1B68DBB2180002F002FBC046BD4680BDC0460002002080B582B000AF786039603A687B680021180002F0F7
:400B40004FFDC046BD4602B080BDC04680B586B000AF7860396000233B6100237B612FE07B699B007A68D3181B68BB600F23FB18BA681A70BB68FF229343BB6018E03B6927
:400B80005B003A68D3181B781A00BB68D31819003B695B003A68D3185B780B703B6901333B610F23FB181A780F23FB18013A1A700F23FB181B78002BE1D17B6901337B61A1
:400BC0007B69032BCCD9C046BD4606B080BDC04680B500AF012000F003F8C046BD4680BD80B584B000AF0200FB1D1A70154B1B68FB60FB1D1B78002B05D0FB688022120644
:400C00001343FB6003E0FB685B005B08FB600D4BFA681A600C4B1B68FB60FB1D1B78002B05D0FB68802292041343FB6003E0FB68064A1340FB60044BFA681A60C046BD46CC
:400C400004B080BD80031A4008010B40FFFFFFFD80B500AF02F098FC03001B680C2B00D1FEE7FEE780B586B000AF224B7B61224B3B61204B7B6135E03B691B68FB603B69A8
:400C80005B68BB603B699B683B6000237B600CE0FB681A68BB681A60BB680433BB60FB680433FB607B6804337B607A683B689A42EED13B69DB683B6000237B6008E0BB689E
:400CC00000221A60BB680433BB607B6804337B607A683B689A42F2D13B6910333B617B69013B7B617B69002BC6D102F053FCFFF7BDFBFEE7010000004038000080B582B0F1
:400D000000AF00237B600FE07B68032B04D8104B7A689200D35800E00E4B0F4A796889008B507B6801337B607B682F2BECD9FFF7C5F90A4B00221A608023DB058022D205C4
:400D4000126801210A431A60C046BD4602B080BD00000000510C000000000020C000002080B582B000AF00237B6007E07B680021180000F0F3FC7B6801337B607B68112BB4
:400D8000F4D900F009F8002000F000FC00F092F9C046BD4602B080BD80B582B000AF254B1B68DAB2244B1A70234B1B787B607B680F2293437B60214B1B78DBB21A000F23EF
:400DC00013407A6813437B607B68F02293437B601A4B1B78DBB21A00F02313407A6813437B60144B7A681A60154B164A1A60164B164A1A60164B1B687B607B68154A13404B
:400E00007B607B68C022D20013437B60104B7A681A600F2001F0A0FA0F4B19000F2001F00BFA03210F2001F02DFAC046BD4602B080BDC04600FF08404303002062F1FF0F8F
:400E40000800084000020001040008400008A00110000140FFF0FFFF0D1E000080B582B000AF01F04DF801F083F80021002001F08DF80021002001F051F801F033F801F0CA
:400E800069F8084B1B687B607B68074A13437B60044B7A681A600F2001F048FAC046BD4602B080BD040008400010088080B584B000AF344B1B78002B04D1FFF751FF314BE6
:400EC00001221A70FFF7CAFF2F4B2F4A12682F490A401A600023FB601FE02D4AFB68D3181B78BB602B4BBA689200D3581B0C7B607A6813009B009B181A019B1864211800E8
:400F000002F014F903007B60234A7968FB68180000F0D6FBFB680133FB60FB68112BDCD90023FB6019E01C4AFB68D3181B785B08D9B21A4AFB68D3180A1C1A70164AFB6833
:400F4000D3181B7801335B08D9B2134AFB68D3180A1C1A70FB680133FB60FB68112BE2D9094B094A1268802149040A431A600C4B0B4A12688021C9030A431A60C046BD46F1
:400F800004B080BD3802002008000840FFFFFFFC24370000B436000020010020340100200400084080B584B000AF0200FB1D1A70FB1D1A78FB1D01321A70FB1D1B78122B53
:400FC0000CD0FB1D1A78094B1100180000F0F8FA0300FB60FB68002BEAD000E0C046FB1D1B781800BD4604B080BDC046D400002080B582B000AF7860084B00221A707B68FF
:40100000DAB2074B1A70054B81221A707B68180000F0FCF9C046BD4602B080BD100200201102002080B500AF124B00221A70124BFF221A70104B1B78DBB21800FFF7B2FF5F
:4010400003001A000C4B1A700B4B1B78DBB2112B0DD8084B1B78DBB201221343DAB2054B1A70054B1B78DBB2180000F0CFF9C046BD4680BD100200201102002080B500AFBA
:40108000044B1B78DBB21A00012313401800BD4680BDC0461002002080B582B000AF7860034B7A685200D35A1800BD4602B080BD1402002080B582B000AF00237B6006E0C9
:4010C0007B68180000F05CF87B6801337B607B68112BF5D9C046BD4602B080BD80B586B000AF78601623FB1822497A688A1812781A701623FB181B785BB2002B04DB7B68C0
:40110000180000F08FF831E01623FB181622BA1812787F210A401A701623FB181A78164BD3183B61154B7A689200D2580F23FB181A701723FB1800221A700FE01723FB18F3
:401140001B783A69D3181B78180000F06BF81723FB181A781723FB1801321A701723FA180F23FB1812781B789A42E7D3C046BD4606B080BD303600004436000058360000B9
:4011800080B586B000AF78601623FB1822497A688A1812781A701623FB181B785BB2002B04DB7B68180000F0A3F831E01623FB181622BA1812787F210A401A701623FB18C1
:4011C0001A78164BD3183B61154B7A689200D2580F23FB181A701723FB1800221A700FE01723FB181B783A69D3181B78180000F07FF81723FB181A781723FB1801321A7057
:401200001723FA180F23FB1812781B789A42E7D3C046BD4606B080BD30360000443600005836000090B587B000AF78602C4A7B68D3181B787B612B4A7B68D3181B7813223F
:40124000BA18191C0B1CDB185B181370254A7B68D3181A781223FB1892001A701123FC1801F05CFF030023701F4B7A699200D3581B68FB601223FB181B780F229A40130019
:40128000DA43FB681340FB601223FB181B7804229A401300FA681343FB60144B7A699200D358124A796989008A581268132179180978072088400100C9430A401A600A4B82
:4012C0007A699200D358FA681A601123FB181B78180001F027FFC046BD4607B090BDC04630360000A0360000383700004C37000090B589B000AF78603E4A7B68D3181B783A
:401300007B613D4A7B68D3181A781323FB1892001A70394A7B68D3181B781222BA18191C0B1CDB185B1813700023FB61334A7B68D3181B78BB61324B7A699200D358304A46
:40134000796989008A5812681321791809780F2088400100C9430A401A60BB69022B01D10023BB61BB69012B01D00623FB611123FC1801F0D3FE03002370224B7A6992000E
:40138000D3581B68FB601223FB181B7807229A401300DA43FB681340FB601223FB181B78FA699A401300FA681343FB60154B7A699200D358FA681A601123FB181B781800F9
:4013C00001F0B0FE104B7A699200D3580E4A796989008A5812680848796841180978080001218140C9430A401A60C046BD4609B090BDC04630360000A036000044030020B6
:40140000383700004C3700006037000090B587B000AF78601723FB1833497A688A1812781A701723FB181A78304B9200D3583B612F4A7B68D3181B789BB2013B9BB200213B
:40144000180000F0A3FD2B4A7B68D3181B789BB2013B9BB20021180000F060FD0F2000F07BFF254B1B68FB60FB68244A1340FB60234A7B68D3181B781900224A7B68D3180B
:401480001B781B040B43FA681343FB601A4BFA681A601D4B1B68FB60FB681C4A1340FB60FB681B4A1343FB600F2000F03FFF7B681800FFF713FE0B23FC1801F02FFE0300E0
:4014C0002370114BFA681A60002001F01DFE114B3A691A600B23FB181B78180001F022FEC046BD4607B090BD24370000B436000010370000FC3600000800084000FF80FFE6
:40150000200100203401002004000840FF1FDFFF200020000C00084080B584B000AF7860144B1B6899B2144B7A685200D1527B681800FFF725FE0F2000F00EFF0F4B1B6849
:40154000FB60FB680E4A1340FB60FB68A02212021343FB60094BFA681A600A4B094A126809490A401A600F2000F0E0FEC046BD4604B080BD0C000840140200200400084088
:40158000FF1FDFFF0800084000FF80FF80B584B000AF78607B68032213407B60074B1B68FB607B685B02FA681343FB60034BFA681A60C046BD4604B080BDC0460400084042
:4015C00080B584B000AF786039603B68DB08FB603B680722134001229A400B23FB181A707A68FB68D3181B780B22BA1812781340DBB2002B01D0012300E000231800BD4630
:4016000004B080BD80B586B000AFF860B9607A60BB68DB087B61BB680722134001229A401323FB181A707B68002B0DD0FA687B69D318F9687A698A1811781322BA181278E7
:401640000A43D2B21A700EE0FA687B69D318F9687A698A181278132179180978C943C9B20A40D2B21A70C046BD4606B080BDC04680B584B000AF78600023BB600023FB60AD
:4016800015E07B681800FFF7B3FCC046FFF7F6FC0300012BFAD07B681800FFF7FDFC03001A00BB689B18BB60FB680133FB60FB68002BE6D0BB689BB21800BD4604B080BD04
:4016C00090B587B000AFF860B9607A601423FB1800221A801723FB1880221A707A68FB68D31800221A707A68FB68D3187968FA688A1811781722BA1812780A43D2B21A708B
:401700001423FC18FB681800FFF7B2FF030023801423FB181A88BB689A420ED27A68FB68D3187968FA688A181278172179180978C943C9B20A40D2B21A701723FB1817227D
:40174000BA18127852081A701723FB181B78002BC9D1C046BD4607B090BDC04680B584B000AF786039600E23FB1826497A688A1812781A700E23FB181B785BB2002B35DA7F
:401780000E23FB180E22BA1812787F210A401A701D4B7A689200D2580C23FB181A800F23FB1800221A7017E00E23FB181A780F23FB181B78D318154AD35C7B603B68D9B2EB
:4017C000134A7B68D3180A1C1A700F23FB181A780F23FB1801321A700F23FB181B789BB20C22BA1812889A42DED806E03B68D9B2074A7B68D3180A1C1A70C046BD4604B044
:4018000080BDC0463036000058360000443600004403002080B584B000AF78600F23FB1816497A688A1812781A70154B7A685200D15A144B7A685200D152134A7B68D318C4
:4018400000221A70114A7B68D31800221A700F23FB181B780F22BA1812780D49895C0D4AD154074B7A685200D15A0B4B7A685200D152C046BD4604B080BDC0462437000012
:40188000140200203C0200206002002074020020B03700008C0200205803002080B582B000AF78607B681800FFF7A2FBC046FFF7E5FB031EFBD17B681800FFF7ABFFC04686
:4018C000BD4602B080BDC04680B582B000AF00237B6006E07B681800FFF7E0FF7B6801337B607B68112BF5D9C046BD4602B080BD90B587B000AF78600F23FB186B497A6871
:401900008A1812781A700F23FB181A780E23FB1867498A5C1A701023FB18664A796849008A5A1A80644B1B78002B15D0634B7A685200D25A1023FC181023FB181B88110077
:40194000180000F045FA030023805C4B7A685200102179180988D152594B7A685200D35A1022BA1812889A4212D3564A7B68D31800221A70524B7A685200D25A1223FB1866
:401980001021791809888A1A1A8001237B610CE04B4B7A685200D15A1223FB181022BA1812888A1A1A8000237B617B69002B24D11223FB181B88142B1FD9424A7B68D31812
:4019C0001A7841497B68CB181B789A4209D37B681800FFF71FFF3B4A7B68D31800221A703AE0384A7B68D3181B780133D9B2354A7B68D3180A1C1A702EE0314B7A68520035
:401A0000D35A1B02BB60314A7B68D3181B781A00BB681343BB601023FB181B88BA68D318BB60274B7A685200D35A1A00BB689B1ABB60BB681B0A99B2214B7A685200D15270
:401A4000BB68D9B2214A7B68D3180A1C1A701D4A7B68D31800221A700E23FB181B789BB21222BA1812889A4217D97B69002B14D01223FB181B88FF2B05D9154A7B68D3184B
:401A8000FF221A700EE01223FB181B88D9B2104A7B68D3180A1C1A7004E00D4A7B68D31800221A70C046BD4607B090BD2437000088370000140200205A0100205803002037
:401AC0003C0200207C03002048010020600200207402002080B582B000AF78607B681800FFF706FFC046BD4602B080BD80B582B000AF00237B6011E07A680C4B1100180025
:401B0000FFF75EFD03003B603B68002B03D07B681800FFF7DFFF7B6801337B607B68112BEAD9C046BD4602B080BDC046D400002080B584B000AF78600F23FB1841497A68DF
:401B40008A1812781A700F23FB181A780E23FB183D498A5C1A700F23FB181A780D23FB183A498A5C1A700F23FB181A780C23FB1837498A5C1A700B23FB180F22BA181278BA
:401B80001A707A68334B11001800FFF719FD031E1CD0314A7B68D3181B7819000E23FB181A780D23FB181B78D31A99423BDA7968284B00221800FFF725FD0B23FB181B7801
:401BC000264A0C2179180978D1542CE0224A7B68D3181B7819000E23FB181A780D23FB181B78D318994216DB0B23FB181B781B4AD25C013AD1B2194AD1540B23FB181B783B
:401C0000164AD35C002B0ED17968124B01221800FFF7F8FC07E00B23FB181B780F4A0C2179180978D1547A680A4B11001800FFF7C7FC031E01D0012300E000231800BD46E3
:401C400004B080BD24370000743700009C370000B037000088020020740200208C02002080B586B000AF7860114A7B68D3181B787B61104A7B68D3181B781A007B69D31897
:401C8000FB6000233B617B691800FFF751FF031E01D001233B617B6901337B617A69FB689A42F0D33B691800BD4606B080BDC046C4370000D837000080B582B000AF002342
:401CC0003B6000237B600AE07B681800FFF7C8FF031E01D001233B607B6801337B607B68112BF1D93B681800BD4602B080BDC04680B584B000AF78600F23FB1815497A68F5
:401D00008A1812781A70144A7B68D31819780E23FB180F22BA1812788A181A700F23FB1819780E4B01221800FFF76CFC0F23FB181A780F23FB1801321A700F23FA180E231D
:401D4000FB1812781B789A42E8D3C046BD4604B080BDC046C4370000D8370000D400002080B584B000AF78600F23FB1815497A688A1812781A70144A7B68D31819780E2385
:401D8000FB180F22BA1812788A181A700F23FB1819780E4B00221800FFF734FC0F23FB181A780F23FB1801321A700F23FA180E23FB1812781B789A42E8D3C046BD4604B0F6
:401DC00080BDC046C4370000D8370000D400002080B584B000AF0200BB1D1A803B1D0A1C1A80BB1D1A883B1D1B88D318FB603B1D1B885B00FA68D318FB60FB689B08FB60E4
:401E0000FB689BB21800BD4604B080BD80B500AF0F2000F0A1FA2D4B01221A602C4B1B78DBB21800FFF778FB2A4B1B78DBB25BB2002B08DA274B1B78DBB201229343DAB255
:401E4000244B1A703CE0224B1B78DBB21800FFF7A9F803001A001E4B1A701D4B1B78DBB2112B06D81A4B1B78DBB21800FFF7CEFA26E0184B1B78DBB201229343DAB2154B96
:401E80001A70144B1B78DBB21A004023134017D0114B00221A700FE00F4B1B781A000E4B1B7819000D4B595C0D4B99540A4B1B780133DAB2084B1A70074B1B78022BEBD9B2
:401EC0000F2000F033FAC046BD4680BD1400084011020020100200209F02002040030020D400002080B500AF044B044A1268802109060A431A60C046BD4680BD400002403D
:401F000080B500AF044B044A1268520052081A60C046BD4680BDC0464000024080B584B000AF0200BB1D1A807B1D0A1C1A70084B1B681B0C1B04FB60BB1D1A88FB68134334
:401F4000BB60034BBA681A60C046BD4604B080BD4000024080B500AF044B044A1268802109060A431A60C046BD4680BD0000024080B500AF044B044A1268520052081A60C5
:401F8000C046BD4680BDC0460000024080B584B000AF0200BB1D1A807B1D0A1C1A70084B1B681B0C1B04FB60BB1D1A88FB681343BB60034BBA681A60C046BD4604B080BD16
:401FC0000000024090B585B000AF78600F23FC1801F0A4F8030023700A4B7A68D104E02292031140074A1268074802400A431A600F23FB181B78180001F094F8C046BD46A8
:4020000005B090BD00010B40FFFFC7FF90B585B000AF78600C23FC1801F080F8030023707B68022B00D8AFE07B68302B00D9ABE05C4B1B78DBB21A007B689A420AD35A4A11
:402040000F23FB1812781A70584A0E23FB1812781A703FE0564B1B78DBB21A007B689A420AD3544A0F23FB1812781A70524A0E23FB1812781A702DE0504B1B78DBB21A00AA
:402080007B689A420AD34E4A0F23FB1812781A704C4A0E23FB1812781A701BE04A4B1B78DBB21A007B689A420AD3484A0F23FB1812781A70464A0E23FB1812781A7009E083
:4020C000444A0F23FB1812781A70434A0E23FB1812781A707B68DA1E0B23FB183F498A5C1A700B23FB181B782F2B0DD97B682A2B0AD93B4B19221A60052001F005F80D2353
:40210000FB1819221A7007E0354B1B68DAB20D23FB183F210A401A700B23FA180D23FB1812781B789A4208D22D4B7A68033A2B498A5C1A60052000F0E7FF2A4B7A68264958
:402140008C4662441278D2B21A60274B0F22BA1812781A60254B0E22BA1812781A60052000F01CF90B23FA180D23FB1812781B789A420CD91A4B7A68033A18498A5C1A60A0
:40218000052000F0C1FF02E0002000F0FBF80C23FB181B78180000F0C5FFC046BD4605B090BDC046C0F1FF0FC1F1FF0FC2F1FF0FC3F1FF0FC4F1FF0FC5F1FF0FC6F1FF0F65
:4021C000C7F1FF0FC8F1FF0FC9F1FF0FCAF1FF0FCBF1FF0FCCF1FF0FCDF1FF0FEC3700002CFF0B4028FF0B401CFF0B4020FF0B4080B584B000AF02003960FB1D1A7080238D
:402200009B05FB60FB1D1B780F2B02D9002000F0B9F8FB1D1B789B00FA68D3181B68BB60FB1D1B789B00FA68D3183A681A60BB681800BD4604B080BD80B584B000AF0200F9
:402240003960FB1D1A7080239B05FB60FB1D1B781F2B02D9002000F095F8FB1D1B7810339B00FA68D3181B68BB60FB1D1B7810339B00FA68D3183A681A60BB681800BD4674
:4022800004B080BD90B587B000AF0200FB1D1A70BB1D0A1C1A70BB1D1B78032B02D9002000F070F8FB1D1B781F2B02D9002000F069F8FB1D1B7803221340DB0006337B6196
:4022C0001323FC1800F02AFF03002370FB1D1B789B08DBB29B00144A944663441B68FB6003227B699A401300DA43FB681340FB60BB1D1A787B699A401300FA681343FB6040
:40230000FB1D1B789B08DBB29B00074A94466344FA681A601323FB181B78180000F002FFC046BD4607B090BD00E400E080B582B000AF0200FB1D1A70064BFA1D12781F21D7
:402340000A40012191400A001A60C046BD4602B080BDC04600E100E080B582B000AF0200FB1D1A70064BFA1D12781F210A40012191400A001A60C046BD4602B080BDC04632
:4023800080E100E080B582B000AF0200FB1D1A7001BEC046BD4602B080BDC04680B582B000AF0200BB1D1A80BB1D1B88044A12785343180000F0A8FEC046BD4602B080BD4C
:4023C0006401002090B583B000AFFC1D00F0A6FE03002370074B074A126804218A431A6030BFFB1D1B78180000F09CFEC046BD4603B090BD10ED00E090B583B000AFFC1D03
:4024000000F08CFE03002370194B194A1268520052081A608023DB058022D205126802210A431A60134B144A128892B21A60134B124A126804210A431A60114B1B683B6017
:402440000220FFF7BFFD30BF0D4B3A681A608023DB058022D205126802218A431A60FB1D1B78180000F05EFEC046BD4603B090BD00000B400C000B4052F1FF0F10ED00E05D
:4024800000010B4080B582B000AF786000F050F87B68180000F00AF8032000F015F800F03BF8C046BD4602B080BDC04680B582B000AF7860034B7A685A66C046BD4602B0E3
:4024C00080BDC0460000002090B585B000AF0200FB1D1A700E23FB600B23FC1800F01EFE030023700A4B0A4A12680A491140FA1D1078FA68904002000A431A600B23FB189A
:402500001B78180000F00EFEC046BD4605B090BD08E400E0FF3FFFFF80B500AF034B802292001A60C046BD4680BDC04600E100E080B500AF034B802292001A60C046BD460B
:4025400080BDC04680E100E080B500AF00F070F8C046BD4680BDC04680B500AF064B064A1268802109060A431A6000F019F800F01FF8C046BD4680BD0000074080B500AF60
:40258000064B1B78002B04D1FFF7DEFF034B01221A70FFF7E1FFC046BD4680BDA002002080B500AF0B20FFF7C1FEC046BD4680BD80B500AFC046BD4680BDC04680B500AF6D
:4025C0000F4B1A6880235B00134012D00D4B1A688023DB0113400CD1094B094A12680A490A401A60064B064A1268802149000A431A60064B02221A60C046BD4680BDC04604
:402600000000074060000740FFFEFFFF6C00074080B500AF00F0C4F8C046BD4680BDC04680B500AF00F0C6F8C046BD4680BDC04680B500AF244B802252001A60234B244AA7
:402640001A60244B234A12680C210A431A60224B224A1A60224B00221A60224B224A1A60224B1E4A1A60224B00221A600B20FFF773FE03210B20FFF705FE1E4B19000B2008
:40268000FFF7DAFD1C4B00221A601C4B00221A601B4B5222FF321A601A4B00221A601A4B00221A60194B00221A60194B00221A70184B00221A70184B00221A80174B0022FE
:4026C0001A70C046BD4680BD00000740600007400008004070000740000307400701008004030740100307401000FE000002074004020740C9270000C80E0740880E074015
:40270000480F0740080F0740C80F0740880F0740A003002092030020940300209C03002080B582B000AF0B20FFF716FE094B1B78DBB27B60074B1B78DBB21F229343DAB204
:40274000044B1A700B20FFF7F1FD7B681800BD4602B080BD9203002080B584B000AFF860B9607A607B68002B10D00B20FFF7F4FD084B7A681A60FB689AB2074B1A80BB68FF
:402780009AB2064B1A800B20FFF7D0FDC046BD4604B080BD980300209E0300209003002080B500AF024B01221A60C046BD4680BD880E074080B500AF024B00221A60C04607
:4027C000BD4680BD880E074080B588B000AFCD4B1B68002B02D0CB4B1B689847CA4B1B88FB61CA4B1B68FB60C94B1B68BB60FA680223FF33134057D0C64BC64A12685200B7
:4028000052081A60C44B1B78DBB220221340DBB2002B2CD0C04B1B78DBB220229343DAB2BD4B1A70BC4B1B78DBB210221343DAB2B94B1A70B94B1B68102213400FD1B84B33
:402840001B789AB2B04B1B889A4210D0B24B1B78DBB208221343DAB2AF4B1A7007E0AE4B1B78DBB202221343DAB2AB4B1A70AD4BAC4A1268AC490A401A60AC4B00221A6038
:40288000A64B00221A60AA4BAA4A1A609F4BAA4A1A60AA4B00221A709E4B9E4A1268802109060A431A6099E1BB681022134002D0A34B00221A60BB680A22134000D1C3E0D9
:4028C000A04B1B680422134000D16FE09E4B1B687B609A4B1B78002B1CD0012B5ED19B4B1B88002B13D09A4B01221A60994B1A68FB69D3187A68D2B21A70FB690133FB61EE
:40290000924B1B88013B9AB2904B1A804AE0FFF755FE47E0904B1B881A007B689A423AD98B4B01221A607B68FB618C4B1B881A007B689A4206D9894B1A887B689BB2D31A9F
:402940009AB200E00022814B1A80804B1B88072B03D87A4B01221A7018E07C4B1B88082B0AD1704B6F4A1268A02109020A431A606E4B00221A6009E06A4B6A4A1268802103
:4029800089010A431A60694B08221A60FB69DAB2634B1A7006E0FFF711FE03E00020FFF7F1FCC046624B04221A604DE05D4B1A6880239B01134047D0BB68022213400DD0AB
:4029C000674B1B680F2213403B61564B554A126855490A401A6001237B6122E05B4B1B88083B9AB2594B1A80584B1B88082B05D8564B1B883B6100237B6112E008233B6160
:402A000001237B610DE0534B1A68FB69D2184E4B1B68DBB21370FB690133FB613B69013B3B613B69002BEED17B69002B09D13D4B3C4A1268802109020A431A603B4B002285
:402A40001A603B4B0C221A60BB680222134000D19DE0FB681022134027D0344B00221A602E4B00221A600223BB612D4B1B781A00FB699A4203D0BB6908221343BB61BB695A
:402A8000FA681340BB61244B1B78DBB21A00BB691343BB61BB6920229343BB61BB69DAB21D4B1A70254B00221A70FB68402213406AD0194B1B78DBB220221343DAB2164B95
:402AC0001A70174B1B78FB61264B1B68102213404ED0214B1A88FB699BB2D31A9AB21B4B1A80214B204A1268802149020A431A601D4B1D4A12681D490A401A60074B102272
:402B00001A6038E0A402002094030020400F0740000E07400000074092030020880F07409C03002060000740FF5FFFFFC80F0740C00F0740ED0F0000FF0F0000A0030020FE
:402B4000880E0740CC0F074040030740A80200206C000740980300209E03002090030020080307406400074004020740FFFFFEFF1E4B04221A601E4B01221A601D4B1E4AFC
:402B80001A601E4B01221A601A4BFA681A601C4B1B680422134021D01A4B1B88002B11D0194A1A4B1968FB69CB181B78DBB21360FB690133FB61134B1B88013B9AB2114BF0
:402BC0001A8002E0104BFF221A60114B1B680F221340082BE0D10F4B10221A60FB699AB20D4B1A80C046BD4608B080BDC80F0740800E0740400F0740FF0F00006C0007402C
:402C0000000E0740A8020020400207409803002008020740800F07409403002080B584B000AF0200FB1D1A700D4B1B68DAB20F23FB187F210A401A70FB1D1B78DB01D9B265
:402C40000F23FB180F22BA1812780A431A70044B0F22BA1812781A60C046BD4604B080BD0000044080B500AF044B044A1268802109060A431A60C046BD4680BD04010B400F
:402C800090B587B000AF78603960474B1B68474A1340FB60FA6880235B009A4200D07CE0434B1B68434A934200D076E07B68424A934200D971E07B68632B6ED93B68002B2F
:402CC0006BD03E4B1B68002B5CD03D4B1B68002B55DA3C4B1B68002B4ED07B683A4A93421ED97B681F21180000F020FA0300BB60344B1A68354B1B685A43344B1B689B0AA0
:402D00001900100000F012FA03005C09BA68FA239900100000F00AFA030063437B6122E07B68642253432A4A944663442949180000F0FCF90300BB60224B1A68234B1B6842
:402D40005A43224B1B689B0A1900100000F0EEF903001A00BB685A43FA23D901100000F0E5F903007B613B687A691A60134B00221A6000233B6112E011233B610FE00723FC
:402D80003B610CE00E4A114B1B689B0A13600B4B01221A6007233B6101E011233B613B691800BD4607B090BD10010B403F3F0000080003400102000000286BEEC402002080
:402DC000180003401C00034060D100005C0100200D030000350C000090B583B000AFFC1D00F09CF903002370074B074A1268C02109020A431A60FB1D1B78180000F092F9B1
:402E0000C046BD4603B090BD00010B4080B500AF054B1A68C0231B02134001D0012300E000231800BD4680BD00010B4090B583B000AFFC1D00F072F9030023700D4B0D4AB8
:402E400012680D490A408021C9010A431A60094B084A126808490A40802109020A431A60FB1D1B78180000F05DF9C046BD4603B090BDC04600010B40FF3FFFFF80B582B0D1
:402E800000AF78607B68022B02D90020FFF77AFA064B1A687B68DB000133DA401300012213401800BD4602B080BDC04610020B4080B584B000AF786039607B68022B02D9CD
:402EC0000020FFF75FFA7B681800FFF7D7FF031E16D10D4B1B687A68D200032191400A00D2431340FB603B6803221A407B68DB009A401300FA681343FB60034BFA681A6039
:402F0000C046BD4604B080BD0C020B4080B584B000AF786039607B68002B02D07B68012B01D1012300E00023002B02D10020FFF729FA7B681800FFF7A1FF031E16D10D4BA5
:402F40001B687A68D2000232012191400A00D2431340FB607B68DB0002333A689A401300FA681343FB60034BFA681A60C046BD4604B080BD0C020B4080B582B000AF786026
:402F8000FFF770FE144B144A11687A680A431A607B680122134005D0C0460020FFF76EFF031EFAD07A6880235B00134005D0C0460120FFF763FF031EFAD07A6880235B02D8
:402FC000134005D0C0460220FFF758FF031EFAD0C046BD4602B080BD10020B4080B584B000AF786039607B68002B02D07B68012B01D1012300E00023002B02D10020FFF76F
:40300000C1F9C920FFF7CAF90D4B1B68FB607B681B010C4A9A401300DA43FB681340FB60074B7A68120139689140FA680A431A604320FFF7B3F9C046BD4604B080BDC046A7
:4030400008020B40FFFF000090B585B000AF78600B23FC1800F062F803002370FFF7D6FE031E04D00123FB60FFF7E0FE01E00023FB607B680D4A13407B600D4B0C4A1268D9
:403080000C4911407A680A431A60094B1B68FB68012B01D1FFF7A0FE0B23FB181B78180000F040F8C046BD4605B090BD0404040010020B40FBFBFBFF80B582B000AF78608F
:4030C000084B084A11687A68074802400A431A60C046044B1B68044A1340FAD1C046BD4602B080BD10020B400808080080B500AF044B1B68402213409B09DBB21800BD4610
:4031000080BDC046040104400230800804D0C0460138FDD1C046C046C0467047EFF3108072B6704780F310887047C046002243088B4274D303098B425FD3030A8B4244D309
:40314000030B8B4228D3030C8B420DD3FF22090212BA030C8B4202D31212090265D0030B8B4219D300E0090AC30B8B4201D3CB03C01A5241830B8B4201D38B03C01A524122
:40318000430B8B4201D34B03C01A5241030B8B4201D30B03C01A5241C30A8B4201D3CB02C01A5241830A8B4201D38B02C01A5241430A8B4201D34B02C01A5241030A8B42E9
:4031C00001D30B02C01A5241CDD2C3098B4201D3CB01C01A524183098B4201D38B01C01A524143098B4201D34B01C01A524103098B4201D30B01C01A5241C3088B4201D3DE
:40320000CB00C01A524183088B4201D38B00C01A524143088B4201D34B00C01A5241411A00D20146524110467047FFE701B5002000F006F802BDC0460029F7D076E7704707
:403240007047C0468446101C62468C46191C634600E0C0461FB500F0D7F8002801D40021C8421FBD10B500F02BF84042013010BD10B500F0C9F8002801DB002010BD0120E6
:4032800010BDC04610B500F0BFF8002801DD002010BD012010BDC04610B500F051F8002801DC002010BD012010BDC04610B500F047F8002801DA002010BD012010BDC0462C
:4032C000F0B55F4656464D464446F0B41F035C00DB0F9A46194B0E034D00C90F8046360B6D0D8B4691463F0B640D9D4219D0134B9C421BD00123A54206D018003CBC9046AB
:403300009946A246AB46F0BDBE42F6D1C845F4D1D34510D0002DF0D1304303005A1E9341EBE7310001230143E7D1E0E73A430123002AE2D1DEE70023DFE7C046FF070000C5
:40334000F0B55F46444656464D46F0B41F033C0B2C4F0E034D00A3465C008446360B6D0DC90F9046640DDB0FBD422BD0254FBC422ED0002D0ED13043070081467842784167
:40338000002C17D15F463A4314D14B460020002B0AD006E0002C02D15846024301D099421AD00123484218433CBC90469946A246AB46F0BD0028F2D05842584101224042E0
:4033C0001043F1E737000743D0D002204042EBE75F461743CDD0F8E7A542E2DC05DB5E45DFD808D000205E45DED248424841012340421843D8E7C445D3D80020C445F4D3EF
:40340000D2E7C046FF070000F0B55F464D4644465646F0B41C03240BA4462F4C0F034D005E00C90F80463F0B6D0D8B469146760DDB0FA54220D0284CA64222D0002D12D104
:40344000384344424441002E20D0002C0DD05C42634101245B421C4320003CBC90469946A246AB46F0BD002E17D05B4519D05B465C4201231C43EFE7390002240143EBD154
:40348000D9E7614602241143E6D1D7E761460A43DBD100240028DFD0E9E761460A43E4D1E5E7B54203DD01225C421443D4E7B542CDDB6745DBD809D000246745CCD2594648
:4034C0004C426141012449420C43C5E7C845CED80024C845F3D3BFE7FF07000070B5051E28D000F033F8154B154A1B1AD21A1F2A16DD2C00134A0025D21A94405A05240330
:40350000240B520D002124030B0D240B1B0523430D4C1205234013435B002800590870BD0B212C00081AC440954024035A05240B520DE7E700220024E4E7C0461E04000040
:403540003304000013040000FFFF0F801C2101231B04984201D3000C10391B0A984201D3000A08391B09984201D30009043902A2105C40187047C046040302020101010183
:403580000000000000000000014B18687047C046D00100200E4B70B500251E000D4CE41AA410A54204D0AB00F35898470135F8E700F034F9084B00251E00084CE41AA41067
:4035C000A54204D0AB00F35898470135F8E770BD2838000028380000283800003038000003008218934202D019700133FAE770470000000000300F40000400400F400004C2
:4036000004320F4002330F4003420F4007430F40B880BE40D804DF0118018C016C407008DC0361028C488D029480A408D802E4080202020202020203030400000000000055
:4036400000800000000102030405060708090A0B0C0D0E0F1000000001000000020000000400000008000000100000002000000040000000400000008000000008000000FB
:40368000010000000200000004000000080000001000000020000000400000001100000000010203040506060703000102030405060000000000FF1F0000FF1F0000FF1FE6
:4036C0000000FF1F0000FF1F0000FF1F0000FF1F0000FF1F0000FF1F0000FF1F0000FF1F0000FF1F0000FF1F0000FF1F0000FF1F0000FF1F0000FF1F0000FFFF0101010124
:40370000010101010101010101010101010100000202020202020202020202020202020202020000000102030405060708090A0B0C0D0E0F10110000000001400400014038
:40374000080001400C0001401000014008000440080104400802044008030440080404400000044000010440000204400003044000040440787878787878787878787878DE
:4037800078787878787800003C3C3C3C3C3C3C3C3C3C3C3C3C3C3C3C3C3C00000F0F0F0F0F0F0F0F0F0F0F0F0F0F0F0F0F0F000005050505050505050505050505050505A3
:4037C00005080000000102030405060708090A0B0C0D0E0F101100000101010101010101010101010101010101000000030405060708090A0B0C0E0F10111213141516170E
:4038000018191B1C1D1E1F2021222325262728292A2B2E2F3031323334354300F8B5C046F8BC08BC9E46704771020000FD0C0000F8B5C046F8BC08BC9E4670474902000006
:4038400050380000C800002010010000D001000000000000C003000001010000FFFF01000802044008020440080204400802044008020440080204400802044008030440C1
:4038800008030440080404400800044008000440080004400800044008000440080004400800044000000000787878787878787878787878787878787878000050505050A5
:4038C00050505050505050505050505050500000050505050505050505050505050505050505010000366E01C05D0000180000000000E02E01000000000000000000000024
:403900000000000000000000000000000000000000000000000000001A38000000000000000000000000000000000000000000000000000000000000000000000000000035
:4039400000000000000000000000000000000000000000000000000070010020000000000000000000000000000000000000000000000000000000000000000000000000B6
:403980000000000000000000000000000000000000000000000000000000000000000000000000000000000000000000000000000000000000000000000000000000000007
:4039C00000000000000000000000000000000000000000000000000000000000000000000000000000000000000000000000000000000000000000000000000000000000C7
:403A00000000000000000000000000000000000000000000000000000000000000000000000000000000000000000000000000000000000000000000000000000000000086
:403A40000000000000000000000000000000000000000000000000000000000000000000000000000000000000000000000000000000000000000000000000000000000046
:0200000490303A
:02000000FD8978
:0200000490402A
:200000000000000000000000000000000000000000000000000000000000000000000000E0
:0200000490501A
:0C000000000204161193110104290F1CCA
:0200000490600A
:0100000001FE
:00000001FF