:020000040800F2
:1000000010660010C1010008815400087146000804
:100010000D540008051000085D8300080000000072
:1000200000000000000000000000000079550008FA
:10003000B91000080000000003550008F155000841
:10004000DB010008DB010008DB010008DB01000820
:10005000DB010008DB010008DB010008DB01000810
:10006000DB010008DB010008DB010008DB01000800
:10007000DB010008DB010008DB010008DB010008F0
:10008000DB010008DB010008DB010008DB010008E0
:10009000DB010008DB010008DB010008DB010008D0
:1000A000DB010008DB010008DB010008DB010008C0
:1000B000DB010008DB010008DB01000881460008C5
:1000C00075460008994600088D460008DB010008C7
:1000D000DB010008AD630008DB010008DB0100085C
:1000E000DB010008DB010008DB010008DB01000880
:1000F000DB010008DB010008DB010008DB01000870
:10010000DB010008DB010008DB010008DB0100085F
:10011000DB010008DB010008DB010008DB0100084F
:10012000DB010008DB010008DB010008DB0100083F
:10013000DB010008DB010008DB010008DB0100082F
:10014000DB010008DB010008DB010008C9540008DE
:10015000DB010008DB010008DB010008DB0100080F
:10016000A7460008A5460008DB010008DB010008DF
:10017000DB010008DB010008DB01000800000000D3
:10018000DB010008DB010008DB010008DB010008DF
:10019000DB010008DB010008DB010008DB010008CF
:1001A0000000000000000000DB010008DFF80CD0B8
:1001B00000F076F80048004739A0000810660010EB
:1001C0000648804706480047FEE7FEE7FEE7FEE7F1
:1001D000FEE7FEE7FEE7FEE7FEE7FEE7A9560008BA
:1001E000AD01000840EA01039B0703D009E008C9FC
:1001F000121F08C0042AFAD203E011F8013B00F8EC
:10020000013B521EF9D27047D2B201E000F8012B37
:10021000491EFBD270470022F6E710B513460A4686
:1002200004461946FFF7F0FF204610BD10B5002226
:1002300000E0521C835C8C5CA34201D1002BF8D1FE
:10024000D8B2E1B2401A10BD30B5044600200346D2
:1002500000E05B1C934203D2E05CCD5C401BF8D015
:1002600030BD034611F8012B00F8012B002AF9D10B
:100270001846704730B50B46014600202022012465
:1002800009E021FA02F59D4205D303FA02F5491B64
:1002900004FA02F52844151EA2F10102F1DC30BD7A
:1002A000064C074D06E0E06840F0010394E80700C3
:1002B00098471034AC42F6D3FFF77CFF98F0000863
:1002C000B8F000082DE9FF5F80461F09002592461F
:1002D0008B46180703D0681E04B0BDE8F09F0026C7
:1002E0001EE000BF08F5F27090E80E00D8F8F001AB
:1002F00003908DE80E0008F5F2700BEB050110225B
:100300008146FFF76FFF0AEB050422464946404647
:1003100000F086F82046694608F0C0F81035761CD3
:10032000BE42DFD30020D7E72DE9F04782461F0900
:10033000002490468946180702D0601EBDE8F08769
:1003400000250AF5F27610E009EB0401304608F0CA
:10035000A5F83146504600F0ABFB08EB0400102234
:100360003146FFF73FFF10346D1CBD42ECD3002037
:10037000E4E72DE9FF471F0900251E469146884600
:1003800082462C4608E008EB050110234A465046F9
:10039000FFF7CAFF641C1035BC42F4D3300711D0FC
:1003A0000020009001900290039006F00F0208EBED
:1003B0000710694605F08EF810234A4669465046F4
:1003C000FFF7B2FFBDE8FF8770B5154604464FF44E
:1003D000F272FFF707FF294604F5F270BDE870409E
:1003E0001022FFF7FFBE30B50446F9B00020C4F874
:1003F000E401C4F8E801C4F8EC01C4F8F0011D46BA
:10040000684600F059FB18B14FF0FF3079B030BDAD
:100410002A4669462046FFF7D7FF0020F6E700008E
:100420002DE9F04F0C6800F1F00324BA24F0FF0727
:10043000CC78D0F8E00127434C684FEA500B24BA3F
:1004400024F0FF06CC7926438C6824BA24F0FF05FB
:10045000CC7A2543CC68C97B24BA24F0FF040C4332
:10046000196881EA070A59689F6881EA0609D9680C
:100470006F406140BE484FEA1A64DFF8F8E250F876
:100480002460C1F3074009F0FF055EF8200007F083
:10049000FF0C4640C7F3072084000EF5806001F092
:1004A000FF0800590EF5006454F8254060404640AE
:1004B00018694FEA19644640AD4850F82450CAF311
:1004C00007405EF820004540C1F3072084000EF588
:1004D0008060090E00590EF5006454F82C4060400D
:1004E000454058693C0E4540A14850F82440C9F3A6
:1004F00007405EF820004440CAF307204FEA800C12
:100500000EF5806050F80C000EF5006C5CF828C009
:1005100080EA0C00444098690AF0FF0C444094487B
:1005200050F82110C7F307405EF820004140C9F39E
:10053000072087000EF58060C0590EF5006757F858
:100540002C7078404140D86920334140ABF1010024
:100550005FEA000B4FEA16676BD0854805F0FF088D
:1005600050F82700C1F307474FEA870C77460EF58E
:10057000806E57F80C700EF5806C7840C4F3072736
:100580005CF828C05EF8277004F0FF0887EA0C07C3
:1005900078401F6880EA070A75482F0E50F8270038
:1005A000C6F307474FEA870C724F57F80C700EF5E9
:1005B000806C7840C1F307275CF828C05EF827708C
:1005C00001F0FF0887EA0C0778405F68090E80EAAF
:1005D00007096748270E50F82770C5F307404FEA10
:1005E000800C644850F80C000EF5806C4740C6F350
:1005F00007205CF828C05EF8200080EA0C00474025
:10060000986847405A4850F82110C4F307408400C6
:10061000584800590EF580644140C5F30720F5B2F3
:100620005EF8200054F8254060404140D8684140C1
:1006300020E75148C1F3074C50F8277050F82CC000
:1006400007F07F470CF47F0C87EA0C07C4F3072CF4
:1006500030F82CC00CF47F4C87EA0C0705F0FF0C37
:1006600010F82CC087EA0C07D3F800C087EA0C0703
:100670004FEA156C50F82CC00CF07F48C6F3074CBD
:1006800050F82CC00CF47F0C88EA0C08C1F3072C3E
:1006900030F82CC00CF47F4C88EA0C0804F0FF0CF6
:1006A00010F82CC088EA0C08D3F804C088EA0C09BA
:1006B0004FEA146CC5F3074850F82CC050F8288056
:1006C0000CF07F4C08F47F088CEA080CC6F307286E
:1006D000C4F3074430F8288050F8244008F47F48D9
:1006E0008CEA080C01F0FF08090E04F47F0450F8AE
:1006F000211010F8288001F07F416140C5F30724E4
:100700008CEA080C30F82440D3F8088004F47F44C5
:100710006140F4B28CEA080C10F824004140D8681B
:100720004140380E1070380C5070380A9070D770F5
:100730004FEA196010714FEA194050714FEA1920C1
:10074000907182F807904FEA1C6010724FEA1C40CB
:1007500050724FEA1C20907282F80BC0080E107382
:10076000080C5073080A9073D173BDE8F08F000035
:100770001CB000081CD400081CB400082DE9F04F80
:100780000B681BBA23F0FF04CB781C434B681BBAE1
:1007900023F0FF05CB791D438B681BBA23F0FF06BE
:1007A000CB7A1E43CB68C97B1BBA23F0FF030B43F4
:1007B000016881EA0409416881EA050A8168C5681F
:1007C00081EA0608D0F8E0115D404FEA510B00BF06
:1007D000B4494FEA1963DFF8D0E251F82340CAF375
:1007E0000741EEB25EF8211009F0FF074C40C8F354
:1007F00007218B000EF580610AF0FF0CC9580EF539
:10080000006353F8263059404C4001694FEA1A639F
:100810004C40A44951F82330C8F307415EF8211039
:100820004B40C5F307218E000EF5806189590EF506
:10083000006656F8276071404B4041694FEA1866E0
:100840004B40984951F82610C5F307465EF82660DC
:100850007140C9F30726B7000EF58066F6590EF50C
:10086000006757F82C7008F0FF0C7E4071408669D5
:1008700071402E0E8B4D55F82650C9F307465EF891
:1008800026607540CAF30726B7000EF58066F65954
:100890000EF5006757F82C707E407540C669203011
:1008A0007540ABF101065FEA060B4FEA14676CD0A6
:1008B0007C4E05F0FF0856F82760C3F307474FEA60
:1008C000870C77460EF5806E57F80C700EF5806C2D
:1008D0007E40C1F307275CF828C05EF8277004F05B
:1008E000FF0887EA0C077E40076886EA07096D4E15
:1008F0001F0E56F82760C1F307474FEA870C6A4F6F
:1009000057F80C700EF5806C7E40C5F307275CF835
:1009100028C05EF8277003F0FF0887EA0C077E40C6
:100920004768C3F3072386EA070A5E4E0F0E5EF898
:10093000233056F82760C5F307474FEA870C5A4F14
:1009400057F80C700EF5806C7E40C4F307275CF8F6
:1009500028C05EF82770C4F3074487EA0C077E407E
:10096000876886EA07082E0E4E4D55F82650A600D9
:100970004D4CA4596540CCB20EF5806151F824105D
:100980004B40C1685D404D4022E7DFF820B1C3F322
:100990000746ABF5806E5BF827705EF8266005F0C1
:1009A000FF087740C1F307264FEA860CABF50066D7
:1009B00056F80C60ABF5406C5CF8288086EA0806B7
:1009C0007740066887EA06091F0EC1F307465BF801
:1009D00027705EF826607740C5F307264FEA860841
:1009E000ABF5006656F8086004F0FF085CF8288054
:1009F00086EA08067740466887EA060A0F0EC9B2FB
:100A00005BF82760C5F307475CF821105EF8277094
:100A10007E40C4F307274FEA8708ABF50067C4F3AD
:100A2000074457F8087003F0FF085EF824405CF8AC
:100A30002880C3F3072387EA08077E408768C068D9
:100A40007E402F0E5BF8275065409C00ABF500639D
:100A50001B594B405D4045404FEA196010704FEA0A
:100A6000194050704FEA1920907082F803904FEAB5
:100A70001A6010714FEA1A4050714FEA1A209071B3
:100A800082F807A0300E1072300C5072300A90724B
:100A9000D672280E1073280C5073280A9073D573E1
:100AA000BDE8F08F1CAC00081CB800081CD0000882
:100AB0000A46FFF763BE00002DE9F04FD308062475
:100AC00004EB4303C0F8E0310D68CE782DBA25F071
:100AD000FF05354305604D68CE792DBA25F0FF0539
:100AE000354345608D68CE7A2DBA034625F0FF0563
:100AF00035439D60CD68CE7B2DBA25F0FF0535438B
:100B0000DC4FC560A7F50056A6F580650024A5F565
:100B10008069A5F5006A102A06D0182A38D0202A44
:100B20007ED0601EBDE8F08FBE46B3465746D968FA
:100B3000C1F30746C1F3072C5BF8266055F82CC0BB
:100B400001F0FF0886EA0C0659F828C04FEA116840
:100B500057F828808CEA080C86EA0C06D3F800C007
:100B600086EA0C065EF824C0641C86EA0C061E6148
:100B7000D3F804C08CEA060CC3F814C09E6886EA59
:100B80000C067140C3E906610A2C7CD01033CEE715
:100B9000D1F810C091F813809CFA8CFC2CF0FF0C5B
:100BA0004CEA080CC3F810C0D1F814C0C97D9CFAF7
:100BB0008CFC2CF0FF0C4CEA010CB646AB464E46C2
:100BC0005746C3F814C05969C1F30745C1F3072C50
:100BD0005EF825505BF82CC04FEA116885EA0C05D9
:100BE00001F0FF0C57F8288056F82CC08CEA080C4E
:100BF00085EA0C05D3F800C085EA0C05DFF874C25D
:100C00005CF824C085EA0C059D61D3F804C08CEA29
:100C1000050CC3F81CC09D6885EA0C051D6200E048
:100C200010E0D3F80CC0641C8CEA050CC3F824C097
:100C3000082C28D01D6985EA0C056940C3E90A51D2
:100C40001833C0E7D1F810C091F813809CFA8CFCDF
:100C50002CF0FF0C4CEA080CC3F810C0D1F814C0FB
:100C600091F817809CFA8CFC2CF0FF0C4CEA080CD5
:100C7000C3F814C0D1F818C091F81B809CFA8CFC02
:100C80002CF0FF0C00E06DE04CEA080CC3F818C033
:100C9000D1F81CC0C97F9CFA8CFC2CF0FF0C4CEAEC
:100CA000010CD646C3F81CC0DF69C7F30741C7F380
:100CB000072C56F8211055F82CC007F0FF0881EAE0
:100CC0000C0159F828C04FEA1768BA465EF8288028
:100CD0008CEA080C81EA0C01D3F800C081EA0C010F
:100CE000DFF890C15CF824C0641C81EA0C01196231
:100CF000D3F804C0072C8CEA010CC3F824C0D3F845
:100D0000088088EA0C08C3F82880D96881EA0801BD
:100D1000D96227D04FEA312BCBF3074CCBF307280E
:100D200056F82CC055F82880C1F307218CEA080C2E
:100D30004FEA1B6859F821105EF8287079408CEA58
:100D4000010C19698CEA010CC3F830C0596981EAB9
:100D50000C0159639F694F408AEA0701C3E90E718C
:100D60002033A1E700EB820200F1F00152F8603F6E
:100D70000B6053684B6093688B60D3680124CB6031
:100D800069E000BF52F8103DDFF8EC901E0EC3F38F
:100D9000074559F826C0AE0009F58065AE598CEAC2
:100DA000060CC3F30726B70005F58066DBB256F8DC
:100DB000078005F5006757F8233088EA03088CEAB6
:100DC000080C41F810CF53684FEA136859F828C04F
:100DD000C3F3074855F828808CEA080CC3F30728AA
:100DE000DBB256F8288057F8233088EA03088CEAEB
:100DF000080CC1F804C093684FEA136859F828C07A
:100E0000C3F3074855F828808CEA080CC3F3072879
:100E1000DBB256F8288057F8233088EA03088CEABA
:100E2000080CC1F808C0D3684FEA136859F828C005
:100E3000C3F3074855F828508CEA050CC3F307257F
:100E4000DBB256F8255057F823305D408CEA050C8C
:100E5000641CC1F80CC0D0F8E031A34292D852F81B
:100E6000100D08615068486190688861D068C86159
:100E7000002057E61CF000081CE00008284AA2F1F8
:100E800010001178CB0701D0002142E08B0701D57B
:100E900001213EE04B0701D502213AE00B0701D5C5
:100EA000032136E0CB0601D5042132E08B0601D5C3
:100EB00005212EE04B0601D506212AE0090601D5C1
:100EC000072126E05178CB0701D0082121E08B07CC
:100ED00001D509211DE09278D20701D00F2118E039
:100EE0000A0701D50B2114E04A0701D50A2110E0B9
:100EF000CA0601D50C210CE08A0601D50D2108E0B7
:100F00000A0601D5102104E0490601D50E2100E0B2
:100F1000FF2141704279C9B28A4200D041717047C5
:100F20002800001010B515488AB0134901606321EC
:100F30000024C0E9011441F29311C0E9031402F046
:100F4000D3FE079407A90D48089402F010FE602014
:100F5000009040F60F60CDE9010400226946074881
:100F6000049402F059FE054802F02AFE00210348CD
:100F700002F0F8FE0AB010BD00040040D8020010D4
:100F80002DE9F0411C488AB01A494FF00008C0E929
:100F9000001847F6AC72C0E90282C0F8108002F077
:100FA000A3FE0D24154D164F0A2608B12C703E7075
:100FB000CDF81C8007A91048CDF8208002F0D7FD9D
:100FC00008B12C703E70602000904FF4FA60CDE9BB
:100FD0000108082269460848CDF8108002F01CFE7E
:100FE00008B12C703E70044802F0EAFD0AB0BDE87A
:100FF000F0810000000800409C0200100500001075
:1010000004000010FEE7000070B501F035F9124C45
:10101000A168401A64281DD92078104D10B101280C
:1010200010D107E0288890B108210D4802F09AFEFF
:10103000012006E0288838B90821094802F0AEFEF0
:1010400000202070288810B180B2401E288001F056
:1010500013F9A06070BD00002C00001038000010D3
:101060009C02001010B500224FEA020100EB82033F
:10107000521CC3F87C130F2AF8D300224FF40073DC
:101080008418521C84F81C119A42F9D301704170E3
:1010900001228270C0F8B813027640238371417632
:1010A00080F81C1380F81D23002010BD0149086042
:1010B000704700003C0000107047000003480078B3
:1010C0000B2802D102490C20487070475E000010C6
:1010D0000400001000BF00BF00BF00BFFAE70022FD
:1010E000AFF3008030B50E4B054601205C7A002C32
:1010F00014D1587A1C54587A03EB800045605D7A0D
:1011000003F108002A54587A421C5A723030087091
:101110003A2048702F208870CC70002030BD00002D
:1011200004260010002229B1012922D0022923D04F
:101130004FF440720B2800D9001D11490B6823F4AD
:1011400040730B600B6813430B600A6822F0F802CF
:101150000A600A68F82393FAA3F3B3FA83F398407A
:1011600040F0020002430A60086840F480300860E2
:1011700070474FF48072DDE74FF40072DAE7000049
:10118000103C02401348016889050FD5016821F41D
:1011900000710160016841F400610160016821F49F
:1011A00000610160016841F4007101600168490556
:1011B0000FD5016821F480610160016841F480511C
:1011C0000160016821F480510160016841F480618F
:1011D00001607047003C024070B50E4DA84217D820
:1011E00000F020F80C4C2060284600F01BF8226824
:1011F0000023811A0948491C61600360C0E902218B
:101200000221016104F1080100F0AAFE002800D0CB
:10121000012070BDFBFF1F084000001030030010CC
:1012200000F02ABF10B50021A0F100634FF4804206
:10123000934204D345490144914201D2012182E005
:1012400043490144914201D202217CE041490144D9
:10125000914201D2032176E03F494FF480330144AB
:10126000994201D204216EE03C4944184FF4003108
:101270008C4201D2052166E0394C04448C4201D2F3
:10128000062160E0374C04448C4201D207215AE029
:10129000354C04448C4201D2082154E0334C0444C0
:1012A0008C4201D209214EE0314C04448C4201D2DF
:1012B0000A2148E02F4C04448C4201D20B2142E029
:1012C000A0F10164944201D20C213CE02A4C044478
:1012D000944201D20D2136E0284C0444944201D2BC
:1012E0000E2130E0264C0444944201D20F212AE022
:1012F000244A02449A4201D2102124E0224A0244A4
:101300008A4201D211211EE0204A02448A4201D2BF
:10131000122118E01E4A02448A4201D2132112E02F
:101320001C4A02448A4201D214210CE01A4A0244A7
:101330008A4201D2152106E0184A1044884201D29F
:10134000162100E01721084610BD000000C0FFF77D
:101350000080FFF70040FFF70000FFF70000FEF7F6
:101360000000FCF70000FAF70000F8F70000F6F7BD
:101370000000F4F70000F2F700C0EFF70080EFF78D
:101380000040EFF70000EFF70000EEF70000ECF789
:101390000000EAF70000E8F70000E6F70000E4F7D5
:1013A000064A10B5904207D80A460146002302209B
:1013B00000F024FE002800D0012010BDFBFF1F0814
:1013C0000E4A136823F44073136003290DD00129DA
:1013D00011680FD041F40041116011684FF480335F
:1013E00043EA0020014311607047116848F204038A
:1013F0001943F1E741F00401EEE70000103C024020
:10140000064A136823F4407313601368136013686B
:1014100043F001031360017070470000103C02406C
:10142000084910B50C6824F440740C600C6844F44E
:1014300040740C600C6844F001040C60026043606E
:1014400010BD0000103C0240074A136823F44073AB
:101450001360136843F480731360136843F001034F
:101460001360018070470000103C0240074A136877
:1014700023F440731360136843F40073136013681C
:1014800043F001031360016070470000103C02400C
:101490001F490868C043C2061E4805D4C26942F00D
:1014A0001002C26110220A600A68D243920605D473
:1014B000C26942F00802C26120220A600A68D2436F
:1014C000520605D4C26942F00402C26140220A6099
:1014D0000A68D243120605D4C26942F00202C26110
:1014E00080220A600A68D243D20506D4C26942F05B
:1014F0000102C2614FF480720A600A68D243920707
:1015000005D4C26942F02002C2610220086070471F
:101510000C3C0240D400001070B513490446002072
:10152000C86100F0A9FE0646104D09E0601C07D016
:1015300024B100F0A1FE801BA04201D9032070BDA0
:101540002868C043C003F1D52868C00701D0012036
:10155000286029684FF4F970884301D0002070BDDD
:10156000FFF796FF012070BDD40000100C3C024034
:101570002DE9F041272603F0B3F8052000F0E4FC44
:10158000554C574D5548042720612F600A2000F024
:10159000DBFC380428600A2000F0D6FC2F600A200B
:1015A00000F0D2FC202006F0F7FE012006F0F4FE49
:1015B000142000F0C9FC902006F0EEFE002006F09A
:1015C000EBFE062006F0E8FE0C2006F0E5FE2120EA
:1015D00006F0E2FE122006F0DFFE402006F0DCFE00
:1015E000302006F0D9FE6F2006F0D6FE732006F0FC
:1015F000D3FE642000F0A8FC232006F0CDFE81205D
:1016000006F0CAFE304606F0C7FE822006F0C4FE91
:10161000002006F0C1FEA72006F0BEFE222006F044
:10162000BBFE602006F0B8FE132006F0B5FE442095
:1016300006F0B2FE232006F0AFFE882006F0ACFED6
:10164000882006F0A9FE882006F0A6FE882006F075
:10165000A3FE282006F0A0FEB22006F09DFEEF209B
:1016600006F09AFE002006F097FE932006F094FE06
:10167000982006F091FEE32006F08EFE202006F072
:101680008BFE912006F088FE002006F085FE134EAA
:10169000403E002516F8010B06F090FE6D1C402D13
:1016A000F8DB642000F050FC00200E4A2021115489
:1016B000401CC0B25028FAD30A4803F023FF64202C
:1016C00000F042FC00F0D8FDE081052000F03CFC79
:1016D0001420A070BDE8F08104000010F8A50008F7
:1016E00018040240240100102DE9F0477B4801F066
:1016F00012F920287ED100F0BFFD794CE189401A13
:10170000642877D9A07808B1401EA0706389228927
:10171000E188A08806F092FE60780A250126714FC4
:101720004FF000094FF004080E281BD2DFE800F04C
:1017300007111B252837424D7D939EB3BBCB002359
:1017400002220121184606F01DFE1420A0706670CA
:1017500006E0A07820B900F0F9F902206070B0E04E
:1017600003F0B6FD6EE0A0780028F9D100F024FA6D
:1017700008B1032057E0052055E000F0F9F91FE01B
:10178000002314221321032006F0FCFD04F0A6FB25
:101790000E282DD193E000BF06F022FE81E0002349
:1017A0001A461946062006F0EDFDA0780028D7D18C
:1017B000062038E049494CA0803900F051FB10B1B7
:1017C00084F80180CCE707202DE000231A46194653
:1017D000072006F0D7FD4148803806F0C1FD04F02F
:1017E0007DFB424D0A280DD00B2806D00E280FD0C5
:1017F0000F2800E02DE0CFD0B2E73848803800F065
:10180000BDFA03E03548803800F044FA2E80A7E79F
:1018100000231A460821184606F0B4FD2F488038E8
:1018200000F0DEF9082060709AE73878052807D1C3
:1018300000231A460921184606F0A4FD092028E0D5
:10184000FFF73CFC2548503803F05CFE00F014FD27
:10185000E081BDE8F08738780628F1D100231A46E8
:101860000A21184606F08EFD6570E9E74621A08939
:1018700003F0CEFD19492520503981F84B00387806
:101880000A28DDD1002315220B21184606F07AFD27
:101890000B206070D4E704F021FB0E2801D0102843
:1018A00090D103F0FFFD124800231A4601780C2066
:1018B0000C3106F067FD04F011FB0E289CD184F872
:1018C0000190A5704CE700231A461946184606F009
:1018D00059FD3221207803F09BFD41E7740100108F
:1018E000040000105E000010303A2F003800001095
:1018F0005D0000102DE9F0438C4887B0002401689A
:1019000041F001010160016801F0010105910168E8
:1019100041F002010160016801F0020105910168D6
:1019200041F004010160016801F0040105910168C2
:1019300041F008010160016801F0080105910168AA
:1019400041F010010160016801F01001059101688A
:1019500041F020010160016801F02001059101685A
:1019600041F040010160016801F04001059101680A
:1019700041F080010160006800F0800005906B4834
:1019800014300068694940F48070143108600868B8
:1019900000F480700590086840F480600860086872
:1019A000694600F480600590FF2000900320CDE997
:1019B00001045F4800F074FB0320CDE90004694690
:1019C0005C48029400F06CFB41F20400009001209E
:1019D000CDE9010469465748039400F061FB55497D
:1019E000042018310860382000900320CDE901045C
:1019F000514E6946304600F053FB0720CDE9000404
:101A000069463046029400F04BFB4FF401500090C1
:101A10000120CDE9010469463046039400F040FB03
:101A2000B51501200095CDE901046946304600F066
:101A300037FB01222946304600F018FC48F29B0093
:101A400000900120CDE901043C4D694628460394ED
:101A500000F026FB4FF4F850CDE900046946284613
:101A6000029400F01DFB48F6833000900120CDE980
:101A70000104334D69462846039400F011FBE81435
:101A8000A86140F23C60CDE9000401202D4E029097
:101A90006946304600F004FBC02000900320CDE9E9
:101AA00001046946304600F0FBFA4FF4794000909B
:101AB0000120CDE9010469463046039400F0F0FAB4
:101AC0002048EE03183006602F0407604FF00058DE
:101AD000C0F800804FF08049C0F800900107016015
:101AE0004FF6FF7000900120CDE9010469461648C9
:101AF000039400F0D5FA1148F112183001604A0041
:101B00000260CB0003600B0103600F484B021830EA
:101B100003608B02036006600760C0F80080C0F8B5
:101B20000090A961AA6107B0BDE8F0833038024097
:101B3000000002400004024000080240000C024085
:101B400000100240001402400018024010B50022AC
:101B50004FF48071054800F089FB642000F0F4F92F
:101B600003F038FCBDE8104003F000BC0008024060
:101B700010B501220949002007F024FC10B108A08B
:101B800006F096FC03F01AFC642000F0DDF9012257
:101B9000BDE810401102074800F068BB5600001075
:101BA0006572726F726520736D6F6E7461676769BD
:101BB0006F0A00000008024010B5064805F022FA3E
:101BC00030B100220449054807F0FCFB002800D092
:101BD000012010BD98030010560000105C1A001080
:101BE0001FB5154C00F11601012261630068E06227
:101BF000124807F013FC28B1104807F09BFA0120A7
:101C000004B010BD01200EA3A0700FCB8DE80F0013
:101C10006B4610220E490F48FEF7E5FB0E4B1022D3
:101C20000E490F48FEF7DFFB0E4B10220E490F48FE
:101C3000FEF7D9FB0020E3E75C000010F81C001061
:101C4000000102030400000000000000000000008A
:101C500054F00008C023001074F0000864F000087D
:101C6000CC21001084F0000844F00008D81F0010B8
:101C700010B500F001FB064C616A401AC82806D96D
:101C800000F0FAFA6062BDE8104003F069BE10BDD2
:101C90005C000010F0B505468DB0224805F0B2F9A1
:101CA00000283AD020A006F003FC2648006A38B38A
:101CB0002449302230396846FEF794FA0021214841
:101CC00004F054F9040004D129461E4807F056FADE
:101CD000044605F116060DF1160731463846FEF7A3
:101CE000A5FA70B1A87D60B1164830222946303877
:101CF000FEF778FA2946134807F040FA0400ECD0C2
:101D000009E044B90F4A31461A3A0FA006F0D0FB59
:101D100000200DB0F0BD0120FBE714A006F0C8FBC9
:101D2000F9E700009803001052696365726361204F
:101D300066696C6520707265636564656E74650ABA
:101D400000000000C01C001066696C652070756E94
:101D50007461746F2025732066696C6520707265EC
:101D6000636564656E74652025730A0055534220CF
:101D70006E6F6E2070726F6E74610A0010B504464B
:101D80008CB01B4805F03EF900282CD019A006F0B5
:101D90008FFB1F48006A20B31E491FA006F088FB76
:101DA00024B1302221466846FEF71CFA2146184825
:101DB00007F0E4F9A8B9164A04F116011A3A1BA073
:101DC00006F076FBA07D4FF03002694638B110482E
:101DD000B0F13000FEF706FA00200CB010BD20462E
:101DE000F8E70120F9E71AA006F062FBF9E7000026
:101DF00098030010526963657263612066696C65BF
:101E0000207375636365737369766F0A0000000061
:101E1000C01C0010F819001063757272656E742092
:101E2000706174682025730A0000000066696C65A3
:101E30002070756E7461746F2025732066696C65FF
:101E400020707265636564656E74652025730A0091
:101E5000555342206E6F6E2070726F6E74610A006F
:101E600070B505460C46154805F0CCF8002821D081
:101E700013A006F01DFB1B490020086229461A48E2
:101E8000FEF7EFF9184919A006F012FB2146154894
:101E900004F06CF860B91348302221463038FEF760
:101EA000A1F904F1160116A006F002FB002070BD96
:101EB000012070BD17A006F0FBFAF9E798030010A7
:101EC00052696365726361207072696D6F20666923
:101ED0006C65206E656C6C61206469726563746FFB
:101EE00072790A00C01C0010F81900106375727234
:101EF000656E7420706174682025730A000000000C
:101F000066696C652070756E7461746F2025730A44
:101F100000000000555342206E6F6E2070726F6E8D
:101F200074610A0090F83510022903D080214165C0
:101F300001207047052180F835100068016821F004
:101F4000010101600020704731B500F095F90446A9
:101F500000F092F90099001B8842F9D338BD0000C7
:101F60002DE9F047044623480F46017E01290AD097
:101F70000121804601764CF250394846FFF7CCFAF1
:101F8000020003D030E00220BDE8F0874FF0FF30C0
:101F900038602068184D012801D0A6681DE0207C1B
:101FA0006168FFF70DFA4846FFF7B6FA024628685F
:101FB00048F204018843286014E0217C3046FFF792
:101FC000B1F84846FFF7A8FA0200286820F0FA00A6
:101FD000286001D03E6005E0761CD4E90210084478
:101FE000B042EAD8FFF7CEF8002188F81810104662
:101FF000CAE70000D4000010103C02402DE9F04771
:102000001B4E05461446307E1F468946012808D0DF
:10201000012030764CF250384046FFF77DFA18B177
:1020200014E00220BDE8F0879DB1012D16D0022DED
:1020300019D022463B464846FFF7F2F94046FFF7E3
:102040006BFA0C490A6822F001020A60002131761D
:10205000E8E7E1B24846FFF7D3F9EFE7A1B2484617
:10206000FFF7F2F9EAE721464846FFF7FFF9E5E70F
:10207000D4000010103C024006480068002807DA2F
:10208000044805490C38016004490160002070478C
:1020900001207047103C024023016745AB89EFCD1A
:1020A0002DE9F84FDFF890B100224FF001084FF012
:1020B000030A4FF00F090BF1040E00BF0B6808FA7A
:1020C00002F42340A3426ED14D68022D01D0122D9F
:1020D0000ED1D50800EB850CDCF820505607F70E22
:1020E00009FA07F6B5430E69BE402E43CCF82060CE
:1020F000066855000F790AFA05FC07F0030726EA7F
:102100000C06AF40374307604E68012E05D0022E03
:1021100003D0112E01D0122E0ED18768CE6827EA87
:102120000C07AE403E4386604668A6430C79C4F374
:102130000014944034434460C4688E6824EA0C045C
:10214000AE402643C6604C68E4006FD53B4C256822
:1021500045F480452560246822F0030504F480449A
:102160000094374C2E19D6F8084895072F0F09FA16
:1021700007F5AC43334DA84201D100252EE0324D86
:10218000A84201D1012529E0304DA84201D1022504
:1021900024E02F4DA84201D103251FE02D4DA84278
:1021A00002D104251AE041E02B4DA84201D10525BA
:1021B00014E02A4DA84201D106250FE0284DA8427F
:1021C00001D107250AE0274DA84201D1082505E0E5
:1021D000254DA84201D1092500E00A25BD4025432F
:1021E000C6F80858DBF800405D464E689C43F6038D
:1021F00000D51C432C60DEF8004075464E689C43B9
:10220000B60300D51C432C600B4D08352C684E6876
:102210009C43F60200D51C432C60074D0C352C68FE
:102220004E689C43B60200D51C432C60521C102AF9
:10223000FFF444AFBDE8F88F003C01404438024051
:10224000003001400000024000040240000802404B
:10225000000C02400010024000140240001802402E
:10226000001C024000200240002402400AB18161AB
:1022700070470904FBE70000014800687047000050
:1022800000000010D0F8940204F07DBBD0F8940256
:1022900004F08DBB006805F03BBD006805F03CBD57
:1022A00001EB810100EBC10090F85C00704701EB8D
:1022B000810100EBC100C06C704710B5044690F876
:1022C0009002012809D0012084F89002206805F0CE
:1022D0002EFD002084F8900210BD022010BDFEB536
:1022E0000546DDE9096095F89042089F012C1ED053
:1022F000012485F8904201EB810405EBC40402F04F
:102300007F0C04F8383F20816170E67184F802C0C8
:102310004FEAD21C84F803C027710097CDE9016011
:10232000286805F0A9FD002185F89012FEBD022065
:10233000FEBD70472DE9F00301EB8104DDE906895C
:10234000DDE908C700EBC404022684F83B2084F8CA
:102350003F30B8F1000F0AD084F84260002553B135
:10236000012B3FD0022B1DD0032B2AD120E00325C7
:1023700084F84250F2E7B8F1010F22D10ABBBCF158
:10238000000F10D1012284F8512002E084F842505D
:1023900001E084F8426094F85C20022A11D084F8AD
:1023A0003D700EE02AB994F85120002AF1D1EDE7F2
:1023B00012B194F8502001E094F8512092B184F8C1
:1023C0004260C4E9119C84F85C50E56484F83910DB
:1023D00084F85D50027C04F138010068BDE8F00328
:1023E00005F0C6BD84F84250EBE700002DE9F0414E
:1023F000044600680025064605F095FC01287DD1BD
:10240000206805F0FEFE002878D0206805F0F9FE6F
:10241000800203D521684FF400104861206805F060
:10242000F0FEC00203D521684FF480104861206897
:1024300005F0E7FE400103D521684FF08060486158
:10244000206805F0DEFE800702D521680220486181
:10245000206805F0D6FE800010D5D6F8400420F0A4
:102460002E00C6F840042046FFF710FF0121206827
:1024700005F0ACFE21684FF000504861206805F07F
:10248000C0FEC00102D5204602F064F8206805F0C5
:10249000B8FE000705D5204600F0ABF821680820FB
:1024A0004861206805F0ADFE800120D5206805F068
:1024B00058FD07464FF0010812E000BF08FA05F08A
:1024C00038420CD006EB4510D0F80005E9B2000404
:1024D000204602D501F00FFE01E001F025FF6D1C42
:1024E000A068A842EAD821684FF0007048612068CF
:1024F00005F087FEC0060ED5206800E00BE081697C
:1025000021F010018161204602F07AF8206881698B
:1025100041F010018161BDE8F08130B58BB004005D
:1025200026D0032084F89102204600F023F820688A
:1025300005F08AFB04F1100128220D466846FDF7DC
:1025400051FE94E80F0005F031FB0121206805F0F1
:1025500082FE282229466846FDF744FE94E80F00D3
:1025600005F0CAFD012084F8910200200BB030BDB7
:102570000120FBE730B5006887B0B0F1A04F2FD144
:1025800000244FF40070CDE90004164D694628463A
:102590000294FFF785FD4FF4C05000900220CDE972
:1025A0000104032003900A20049069462846FFF79F
:1025B00077FD0D48016841F0800101600A48103044
:1025C000016841F4804101600068002200F480400D
:1025D00005901146432000F033FE432000F024FE16
:1025E00007B030BD0000024034380240006805F0FA
:1025F0001CBED0F8940204F024BA10B5044690F83A
:10260000900201280DD0012084F89002206805F086
:1026100057FB0121206805F03DFB002084F8900263
:1026200010BD022010BD10B5044690F8900201289C
:1026300009D0012084F89002206805F022FE0020D5
:1026400084F8900210BD022010BD70477047000052
:1026500070B504460068456946682B490D4208D0AC
:10266000F10506D5216C41F0010121646FF4807100
:10267000416115F4813F09D0F00507D5206C40F089
:102680000200206421686FF40070486115F4823FF5
:102690001FD0F0051DD594F83E30628D94F83D00B2
:1026A000216B202B08D13AB9212827D0292825D001
:1026B000282801D1212921D0206C40F00400206479
:1026C0002068016841F40071016021686FF4806046
:1026D000486115F4843F09D0F00507D5206C40F01F
:1026E0000800206421686FF400604861206C0028B5
:1026F00008D02046BDE8704002F018B8204602F02D
:1027000065FCE6E770BD0000000101002DE9F05F07
:1027100002680446D2F818805569566890F83E0061
:102720007A49DFF8E8A1DFF8E4B1DFF8E4918F1C23
:102730000AF17E0A0BF13E0B102812D0402810D06F
:102740000D425BD0B00559D5936920460021DB438B
:102750005B0700D501219269D243120648D58289D0
:1027600047E015F0011F05D0B00503D5204602F063
:102770001FFB10E06548801D054205D0B00503D55C
:10278000606CC0B2106106E00D4204D0B00502D505
:10279000204602F0ADFA18EA090F14D015EA0A0F24
:1027A00008D0700506D53D4206D12046BDE8F05F51
:1027B00002F014BA3D421FD0B0051DD52046BDE839
:1027C000F05F02F0C5B915EA0B0F08D0700506D509
:1027D0003D4206D12046BDE8F05F02F0A1B83D427F
:1027E0000AD0B00508D52046BDE8F05F02F030B849
:1027F000028B92B2FFF72AFFBDE8F09F43480E30EC
:10280000054206D0B00504D52046BDE8F05F02F0D1
:1028100025BC18EA090F4FF028013AD015EA0A0F33
:1028200029D0700527D53D4227D194F83D30204668
:10283000628D002AE0D0426A541C44620468127817
:102840002261428D521E4285428D002AD4D1292B0D
:10285000D2D10268536823F48063536090F83D201E
:1028600090F83E3002F003021343036380F83D10FA
:1028700000F077FCC0E73D42BED0B005BCD5608D0E
:102880000028B9D0606A411C616221680078086143
:1028900037E015EA0B0F28D0700526D53D4226D12A
:1028A00094F83D302046648D002CA5D01469426A0E
:1028B000551C45621470428D521E4285428D002A7D
:1028C0009AD12A2B98D10268536823F4806353600D
:1028D00090F83D2090F83E3002F00302134303636A
:1028E00080F83D1000F03CFC86E73D4284D0B00506
:1028F00082D5608D0028BDD01169606A421C626279
:102900000170608D401E608576E7000002000100C6
:1029100004001000704790F83D00704770B5040047
:1029200004D094F83D00002510B106E0012070BDF0
:1029300084F83C50204600F067FB242084F83D00DA
:102940002068016821F00101016000F011FF3349A6
:102950002268B0FBF1F15160314A6368934206D9B5
:102960004FF4967359434FF47A73B1FBF3F1236834
:10297000491C1962616891420BD84900B0FBF1F221
:10298000C2F30B02042A01D2042019E0B0FBF1F0DB
:1029900016E0A3689BB301EBC10202EB0112B0FB8E
:1029A000F2F242F48042120530D04BB301EBC10287
:1029B00002EB0111B0FBF1F040F4804040F4004024
:1029C0002168C861D4E90701084321680860D4E997
:1029D0000310084321688860D4E905010843216891
:1029E000C8602068016841F0010101602564202071
:1029F00084F83D00256384F83E50002070BD00E05F
:102A000006E001EB4102B0FBF2F2CCE70120D7E790
:102A100001EB4101B0FBF1F0D0E7000040420F00B4
:102A2000A086010070477047704700002DE9F84FFD
:102A30001E46154689460446DDF828A0FFF71CFC13
:102A4000074694F83D0020287ED1192301226F49C2
:102A50002046009702F062FB0028F5D194F83C0074
:102A6000012871D0012084F83C002068016821F41D
:102A700000610160222084F83D00102084F83E00AF
:102A80004FF00008C4F840806148E0623B4652467F
:102A90004946204601F0A2FF28B1206C84F83C8012
:102AA00004283ED07BE0EEB1012E24D02068DFF870
:102AB0006491022E016837D041F480610160206882
:102AC000416980690090032E7BD8012E20D0022E10
:102AD00036D05346002249462046009702F01EFB9E
:102AE00098BB49E02068416981690091016841F41F
:102AF000007101607FE02068016821F4806101605D
:102B00002068416981690091016841F400710160A8
:102B10003A465146204602F075FBE8B1206C202869
:102B20003DD00120BDE8F88F21F48061016020686C
:102B3000016841F40061016020684169806900908A
:102B400053460022494601E05EE028E02046009717
:102B500002F0E4FA18BB03E02068006928704AE03C
:102B60002068016841F400710160206800692870E4
:102B70002068006968703EE02068016821F4806187
:102B800001602068006905F8010B761EB6B2534655
:102B9000002249462046009702F0C0FA08B10320FF
:102BA000C0E72068016841F4007101602068006995
:102BB00005F8010B2068006905F8010BB61E16E048
:102BC000FFE73A465146204602F01CFB0028A5D1FB
:102BD0002068006905F8010B2068761EB6B24169CD
:102BE000C943490704D4006905F8010B761EB6B243
:102BF000002E7FF468AF202084F83D0084F83E80EA
:102C000084F83C8000208DE702208BE70200100052
:102C10000000FFFF040001002DE9F84F1D4690461B
:102C20008A460446DDF82890FFF726FB074694F80D
:102C30003D0020286AD119230122354920460097FA
:102C400002F06CFA002861D194F83C0001285DD0B4
:102C5000012084F83C002068016821F400610160D3
:102C6000212084F83D00102084F83E0000262664D0
:102C70002848E0623B464A465146204601F01EFF86
:102C800028B1206C84F83C6004283DD00DE0206819
:102C900041698069009023E03A464946204602F0A7
:102CA000E2FA28B1206C042829D00320BDE8F88F6F
:102CB000216818F8010B086120686D1EADB24169EA
:102CC000C943490705D425B118F8011B01616D1EE0
:102CD000ADB23A464946204602F0F8F90028E1D163
:102CE000002DD9D154F83D0B016841F40071016009
:102CF000202004F81E09E67766770020D6E72068D2
:102D0000016841F4007101600120CFE70220CDE7A6
:102D1000020010000000FFFF704770472DE9FF4FD1
:102D200083B0044610A8994690E860049346FFF7E4
:102D3000A3FA074694F83D0020287DD119230122EB
:102D40006E492046009702F0E9F90028F5D194F881
:102D50003C00012870D0012084F83C002068016804
:102D600021F400610160222084F83D00402084F8B5
:102D70003E004FF00008C4F840806148E062CDE9B1
:102D800000A74B465A462046049902F057F828B14E
:102D9000206C84F83C80042839D078E0C6B1012E3C
:102DA0001FD0DFF860912068022E34D0416980691D
:102DB0000090032E7DD8012E20D0022E38D053460D
:102DC000002249462046009702F0A8F9A8BB4BE034
:102DD0002068416981690091016841F400710160D6
:102DE00081E02068016821F4806101602068416908
:102DF00081690091016841F4007101603A465146D1
:102E0000204602F0FFF9F8B1206C20283FD00120C5
:102E100007B0BDE8F08F016821F48061016020688F
:102E2000016841F400610160206841698069009097
:102E300053460022494601E05EE028E02046009724
:102E400002F06CF918BB03E02068006928704AE0C2
:102E50002068016841F400710160206800692870F1
:102E60002068006968703EE02068016821F4806194
:102E700001602068006905F8010B761EB6B2534662
:102E8000002249462046009702F048F908B1032085
:102E9000BEE72068016841F40071016020680069A4
:102EA00005F8010B2068006905F8010BB61E16E055
:102EB000FFE73A465146204602F0A4F90028A3D184
:102EC0002068006905F8010B2068761EB6B24169DA
:102ED000C943490704D4006905F8010B761EB6B250
:102EE000002E7FF466AF202084F83D0084F83E80F9
:102EF00084F83C8000208BE7022089E70200100064
:102F00000000FFFF040001002DE9FF4F83B09A4647
:102F1000DDE9108593460446DDF84890FFF7ACF9EB
:102F2000064694F83D00202868D11923012234492F
:102F30002046009602F0F2F800285FD194F83C0099
:102F400001285BD0012084F83C002068016821F44E
:102F500000610160212084F83D00402084F83E009B
:102F6000002727642748E062CDE9009653465A4679
:102F70002046049901F0DAFF18B3206C84F83C7005
:102F8000042839D008E032464946204602F06BF961
:102F900030B1206C04282AD0032007B0BDE8F08FA0
:102FA000216818F8010B086120686D1EADB24169F7
:102FB000C943490705D435B118F8011B01616D1EDD
:102FC000ADB2002DDFD132464946204602F07EF8F0
:102FD0000028DED154F83D0B016841F40071016016
:102FE000202004F81E09E77767770020D5E72068DE
:102FF000016841F4007101600120CEE70220CCE7B6
:10300000020010000000FFFF2DE9F04706460068AF
:103010004B49122704254B4C86B04FF0010A4FF064
:1030200000094FF00308884221D14FF440708DE829
:103030008104CDE9038569464348FFF731F82068EC
:1030400040F4001020602068012200F40010059078
:103050000021202000F0F4F8202000F0E5F8022202
:1030600000211F2000F0ECF81F2000F0DDF83749A8
:10307000306888422BD1CDF80080CDE90179CDE9C7
:10308000039569463248FFF70BF8206840F480004A
:103090002060206800F4800005902A4820380168EC
:1030A00041F480010160016821F480010160002287
:1030B0000121212000F0C4F8212000F0B5F8002201
:1030C0000121222000F0BCF8222000F0ADF82149B7
:1030D0003068884230D1B9464015CDE90009CDF8B5
:1030E00008A0CDE903855646474669461A48FEF7CB
:1030F000D7FF4FF48070CDE900090296CDE9037542
:1031000069461648FEF7CCFF206840F400002060B6
:103110002068002200F4000005900121482000F002
:103120008FF8482000F080F800220121492000F0AB
:1031300087F8492000F078F806B0BDE8F087000075
:103140000054004040380240000402400058004053
:1031500000140240005C00400008024000000240F1
:103160007047704702480168491C016070470000C1
:10317000000000100B4810B5016841F400710160B7
:10318000016841F480610160016841F4807101606F
:10319000032000F075F8002000F006F800F018F8A1
:1031A000002010BD003C024010B5044607484FF413
:1031B0007A710068B0FBF1F000F0C1FC00222146FA
:1031C000501E00F03DF8002010BD0000500000101F
:1031D00010B5032000F054F8002211466FF00B00E8
:1031E00000F02EF8002211466FF00A0000F028F8D7
:1031F000002211466FF0090000F022F8002211466B
:10320000501F00F01DF800221146101F00F018F8A2
:1032100000221146901E00F013F80022BDE8104075
:103220001146501E00F00CB800F01F020121914021
:103230004009800000F1E020C0F800117047000054
:10324000F0B40E4B1B680C46C3F30223C3F1070511
:10325000042D00D90425191D072901D2002300E0FF
:10326000DB1E012606FA05F1491E214099409E40C9
:10327000761E16403143F0BC02F003B90CED00E0BD
:10328000064900F0070208684FF6FF03184040EABD
:103290000220034A10430860704700000CED00E074
:1032A0000000FA052DE9F8431E48016841F08051FD
:1032B00001600068012600F080500090300490FA10
:1032C000A0F0194FB0FA80F047F82060FEF7D4FF65
:1032D00005464FF47A78154C05E000BFFEF7CCFFA9
:1032E000401B404515D86068C003F7D54FF4003047
:1032F00090FAA0F0B0FA80F047F82060FEF7BCFF2B
:103300000546464608E000BFFEF7B6FF401BB04248
:1033100002D90320BDE8F88360688003F4D500205B
:10332000F8E700004038024000000E420070004004
:103330002DE9F84F04460068A24EA34DC10747F699
:10334000C07A4FF0E0474FF0010B4FF0000901D178
:1033500080074CD59D49C1F86890FEF78DFF8046E7
:1033600006E000BFFEF788FFA0EB080002287DD82A
:1033700028680001F6D42078C10795480DD09AFA44
:10338000AAF26168B2FA82F2914097FAA7F3A268B2
:10339000B3FA83F39A40114301602178890716D567
:1033A000016897FAA7F201F0E041B2FA82F2D14047
:1033B0006268237B920142EA036242EA0171016082
:1033C0003068E16920F01F00491E084330607F49E2
:1033D000C1F868B0FEF750FF804605E0FEF74CFFED
:1033E000A0EB0800022841D828680001F6D5206823
:1033F000410701D400077CD57449C1F87090FEF7ED
:103400003BFF804606E000BFFEF736FFA0EB08005A
:1034100002282BD82868C0438000F5D520784FF0CB
:10342000706241076B482CD5016897FAA7F301F049
:10343000E041B3FA83F3D9409AFAAAFC2369BCFAB3
:103440008CFC03FA0CF392FAA2F8D4F814C0B8FA80
:1034500088F80CFA08FC43EA0C0397FAA7FCBCFABC
:103460008CFC01FA0CF10B43036000E081E0316851
:10347000236A6FF0FF0C21F4F8510CEB032319437E
:1034800031602178090722D501689AFAAAFC01F077
:10349000706392FAA2F1B1FA81F1CB402169BCFAD2
:1034A0008CFC92FAA2F201FA0CF1B2FA82F2934089
:1034B000194397FAA7F3A269B3FA83F39A40114329
:1034C00001603068616A20F44030084330603F4951
:1034D000C1F870B0FEF7D0FE064606E009E000BF76
:1034E000FEF7CAFE801B022843D82868C04380002C
:1034F000F6D42078800653D533484E4640300168D4
:1035000041F0805101600068334D00F08050009020
:10351000286840F480702860FEF7AEFE074604E09D
:10352000FEF7AAFEC01B022823D82868C005F7D5DD
:10353000274D143D286810F4407020D0218D01F4EF
:10354000407181421BD02868244920F44070C1F8A2
:1035500000B00E6028602868C00710D0FEF78CFE0F
:10356000064641F2883707E0FEF786FE801BB84228
:1035700002D90320BDE8F88F28688007F4D5A16A36
:103580001148C1F301220830032A13D0016821F445
:10359000F81101602868218DC1F30B0108432860F0
:1035A0002078C00604D50E4994F82C00C1F8E0013B
:1035B0000020DFE702680B4B22F4F81219400A439F
:1035C0000260E7E78C3802400038024000004742C2
:1035D000843802408838024000700040400E474264
:1035E00000104742FFFCFF0F2DE9F047DFF8649120
:1035F00005460F46D9F8000000F00F01F8B28046EA
:10360000B94208D2014689F80010D9F8000000F04C
:103610000F00B84274D128784F4C800705D5206838
:10362000A96820F0F000084320602878C00759D02E
:1036300049496868083901281AD002281BD0032894
:1036400019D00968890700295ADA216821F0030195
:1036500001432160FEF710FE6968064641F288309A
:10366000012911D002291DD00329824627D035E037
:1036700009688903E7E709688901E4E7FEF7FCFDCB
:10368000811B514501D926E082462068C0F38100A4
:103690000128F3D126E000BFFEF7EEFD811B514566
:1036A00001D918E082462068C0F381000228F3D1D6
:1036B00018E000BFFEF7E0FD811B51450BD82068E4
:1036C000C0F381000328F5D10CE000BFFEF7D4FD64
:1036D000811B514502D90320BDE8F087206810F016
:1036E0000C0FF3D1D9F80010484601F00F01B94290
:1036F00008D980F80080006800F00F00B84201D0BF
:103700000120E9E72878400705D52068E96820F41A
:10371000E050084320602878000706D52068296912
:1037200020F4604040EAC100206000F051F82168B8
:10373000F02292FAA2F201F0F001B2FA82F2D14044
:10374000064A515CC840064908600020FFF72CFD7E
:103750000020C1E7003C024008380240A8A500084C
:103760005000001001480068704700005000001031
:1037700008480949006809684FF4E05292FAA2F239
:1037800001F4E051B2FA82F2D140044A515CC840DF
:10379000704700005000001008380240A8A500083B
:1037A00008480949006809684FF4604292FAA2F299
:1037B00001F46041B2FA82F2D140044A515CC8403F
:1037C000704700005000001008380240A8A500080B
:1037D00030B51948006810F00C01184812D0441098
:1037E00004290ED008290DD11349091F0A6802F0D7
:1037F0003F030A68550247F6C07204D5B4FBF3F0E4
:1038000003E0204630BDB0FBF3F00B6809681340BD
:1038100092FAA2F2B2FA82F2D34058434FF4403205
:1038200092FAA2F201F44031B2FA82F2D140491C7C
:103830004900B0FBF1F030BD083802400024F4002C
:103840002DE9F84F0446DFF8CC820078A8F1040B8C
:10385000C007ABF1040537D0D8F800104046C1F3DB
:103860008101012908D00068C0F3810002280AD133
:10387000DBF80000400206D52868800324D5606884
:10388000002878D020E0A3492079891F087060685B
:1038900068B1FEF7F1FC064605E000BFFEF7ECFC60
:1038A000801B642868D828688003F7D50CE0FEF7F1
:1038B000E3FC064605E000BFFEF7DEFC801B642843
:1038C000F0D828688003F7D42078934E80074FF013
:1038D000010A4FF0000742D5D8F80010404611F019
:1038E0000C0F08D00068C0F3810002280AD1DBF871
:1038F0000000400206D42868800714D5E06801283B
:1039000039D110E0E068D8B1C6F800A0FEF7B4FCE9
:10391000814605E0FEF7B0FCA0EB09000228C1D803
:1039200028688007F6D52868F82292FAA2F2216961
:10393000B2FA82F220F0F8009140084328600EE0CD
:103940003760FEF799FC814606E000BFFEF794FC65
:10395000A0EB090002280FD828688007F6D4207849
:10396000000728D56D486169A1B1C0F800A0FEF735
:1039700083FC814608E0CAE079E000BFFEF77CFCEA
:10398000A0EB0900022872D862486C3000688007FA
:10399000F4D510E00760FEF76FFC814606E000BF3B
:1039A000FEF76AFCA0EB0900022860D859486C3089
:1039B00000688007F4D42078400749D5554838304E
:1039C000016841F080510160006800F08050009073
:1039D0005348016841F480710160FEF74DFC814657
:1039E00006E000BFFEF748FCA0EB090002283ED825
:1039F0004B480068C005F5D5DFF81891207A09F129
:103A0000680989F80000A06888B1FEF735FC0090CD
:103A100008E000BFFEF730FC0099411A41F28830FF
:103A200081426CD8D9F800008007F3D510E0FEF78A
:103A300023FC009008E000BFFEF71EFC0099411A2D
:103A400041F2883081425AD8D9F800008007F3D477
:103A5000A069E0B3D8F80010C1F38101022956D063
:103A60000228376604D0FEF707FC04464AE046E029
:103A7000FEF702FC074604E0FEF7FEFBC01B02282F
:103A80003DD828688001F7D4D4E90701084347F6F8
:103A9000C07292FAA2F2616AB2FA82F29140A26A0C
:103AA0004FF0FF3303EB52024FF4403393FAA3F38A
:103AB000B3FA83F39A40114308434FF0706292FACD
:103AC000A2F2E16AB2FA82F29140084300E01CE0FF
:103AD000CBF80000C6F860A0FEF7CEFB044604E079
:103AE000FEF7CAFB001B022809D828688001F7D519
:103AF0000BE000BFFEF7C0FB001B022802D9032029
:103B0000BDE8F88F28688001F4D40020F8E7012090
:103B1000F6E700000838024000004742800E4742A6
:103B2000007000404FF0E0210428086903D020F025
:103B300004000861704740F00400FAE7704710B5D0
:103B4000401EB0F1807F01D3012010BD4FF0E02472
:103B500060610F21601701F094FC0020A061072034
:103B60002061002010BD10B5FFF7E8FF10BD30B593
:103B700090F83820012A20D0012280F83820022332
:103B800080F8393003685C6824F070045C60036876
:103B90005C680D682C435C6003689C6824F08004BA
:103BA0009C6003689C6849680C439C6080F83920DD
:103BB000002180F83810084630BD022030BD0000DA
:103BC00070B50646006810490024022586B0884278
:103BD00009D100140090CDE9015469460B48CDE9A4
:103BE0000345FEF75DFA0A493068884209D1102082
:103BF0000090CDE9015469460648CDE90345FEF73A
:103C00004FFA06B070BD000000080040000C0240F2
:103C1000000400400004024070B5044690F83800EB
:103C20000D4601280DD0012684F83860022084F862
:103C3000390042B1042A18D0082A2AD00C2A4DD1C2
:103C400039E0022070BD206801F0C4FD2068816960
:103C500041F0080181612068816921F004018161DE
:103C6000206881692A69114311E0206801F0DEFDB6
:103C70002068816941F4006181612068816921F4D3
:103C800080618161206881692A6941EA022181613C
:103C900024E0206801F0FCFD2068C16941F00801C2
:103CA000C1612068C16921F00401C1612068C16956
:103CB0002A69114311E0206801F01AFE2068C169E9
:103CC00041F40061C1612068C16921F48061C16172
:103CD0002068C1692A6941EA0221C16184F839601A
:103CE000002084F8380070BD10B5040003D094F8AB
:103CF000390010B107E0012010BD002084F8380021
:103D0000204600F00DF8022084F83900211D2068BB
:103D100001F0F4FC012084F83900002010BD0000FF
:103D200008B50D4B02680D499A4207D10A6842F066
:103D300004020A600A6802F0040200920068084A5D
:103D4000904207D1086840F002000860086800F05F
:103D50000200009008BD000000080040403802400A
:103D60000004004010B504460068012201F026FD61
:103D700008492068884202D00749884203D1416C33
:103D800041F4004141642068016841F00101016093
:103D9000002010BD000001400004014010B50446A1
:103DA0000068002201F00AFD114841F21112216859
:103DB0009310814202D00F48814209D1086A104213
:103DC00006D1086A184203D1486C20F400404864C8
:103DD0002068016A114206D1016A194203D10168C3
:103DE00021F001010160012084F83900002010BD9C
:103DF00000000140000401407047000070B50268F7
:103E000004461068D168536910F00F0F51D003F0C9
:103E1000010501F4907635435DD0C20705D0CA058F
:103E200003D5E26B42F00102E263420705D5DA07EF
:103E300003D0E26B42F00202E263820705D5DA07A3
:103E400003D0E26B42F00402E263020705D5DA0711
:103E500003D0E26B42F00802E263E26B002A34D046
:103E6000800604D5880602D5204602F09FF8206817
:103E70004069E16BC0F3801001F008010143204666
:103E800024D002F085F82068416949061AD54169B5
:103E900021F040014161606BA0B11B490165606B7D
:103EA000FEF740F8002810D0606B016DBDE870404F
:103EB000084783060FD58B060DD52046BDE8704018
:103EC00002F074B82046FFF797FF70BDFFF794FF2C
:103ED0000020E06370BD030606D50B0604D520461E
:103EE000BDE8704002F0FEB94006F3D54806F1D5B2
:103EF000D168204621F04001D160202184F839109A
:103F000000F0F8F870BD0000815F000870B5040093
:103F100004D094F83900002510B106E0012070BDEE
:103F200084F83850204600F023F8242084F8390023
:103F30002068C16821F40051C160204602F07CF87D
:103F40002068016921F4904101612068416921F0F4
:103F50002A0141612068C16841F40051C160E563F4
:103F6000202084F8390084F83A00002070BD000059
:103F7000F0B52B49066802220123032407252948AE
:103F800087B08E4215D128490E6846F010060E60A3
:103F9000096801F010010591C0218DE83E006946D5
:103FA000FEF77EF8012211462520FFF749F925206A
:103FB00019E01D491D4F091FBE4218D1086840F481
:103FC000003008600868694600F400300590602001
:103FD0008DE83D001648FEF763F8022201212620F5
:103FE000FFF72EF92620FFF71FF907B0F0BD114F9C
:103FF000BE42FAD10E6846F480260E60096801F4CC
:10400000802105914FF440618DE83E006946FEF73E
:1040100047F8032201212720FFF712F92720E2E7C2
:1040200000100140000402404438024000440040B7
:10403000000C02400048004070472DE9F843044658
:1040400090F839001E4617460D46202850D135B34A
:104050002FB394F8380001284AD0012084F83800A2
:104060004FF00008C4F83C80212084F83900FEF7A6
:1040700003F9A784E78481464FF48057E08C4B46D0
:10408000401EE084A0684FF00002B8424FF080016B
:104090002046009611D102F056F900BB02E0012043
:1040A000BDE8F8832888C0F30801206841602069D2
:1040B00008B16D1C08E0AD1C06E002F044F970B9CF
:1040C000216815F8010B4860E08C0028D6D14B46DA
:1040D000002240212046009602F035F908B1032065
:1040E000DEE7202084F8390084F838800020D7E704
:1040F0000220D5E770472DE9F05F06460068884644
:1041000000EB4814D4F808054FF0040B410708EB06
:1041100088004FF0050A4FF0100706EBC00508D5E0
:10412000C4F808B5D4F80C0540F00200C4F80C053A
:1041300032E0D4F80805800601D520202AE0D4F822
:1041400008054FF00809000710D5D4F80C0540F019
:104150000200C4F80C0585F85DA0C4F80875C4F821
:1041600008954146306803F0E2FD15E0D4F80805F3
:10417000400511D5D4F80C0540F00200C4F80C0538
:104180004146306803F0D3FDC4F8087585F85D90AA
:104190004FF48060C4F80805D4F8080580050ED5F2
:1041A000D4F80C0540F00200C4F80C05414604F5B3
:1041B000A164306803F0BBFD4FF400708DE0D4F8CB
:1041C00008054FF00001C0074FF0010236D03069FA
:1041D00030B1A86CD4F81035C3F31203C01AE864E8
:1041E00085F85D20A965C4F8082595F83F0020B141
:1041F000022802D003280ED019E0D4F80C0540F0B4
:104200000200C4F80C05414604F5A164306803F0CF
:104210008EFD27600BE0D4F8000540F00050C4F894
:10422000000585F85C2041463046FEF782F815F817
:10423000500F80F001002870BDE8F09FD4F8080509
:10424000800733D5D4F80C0520F00200C4F80C0523
:1042500095F85D000223012806D0052807D006281E
:1042600008D0082806D018E085F85C2015E085F80D
:104270005CA012E0A86D421CAA65032803D9A965B9
:1042800085F85CB001E085F85C30D4F8000520F0DA
:10429000804040F00040C4F80005C4F8083595F8A7
:1042A0005C2041463046FEF744F8C5E7D4F80805DF
:1042B000000614D5D4F80C0540F00200C4F80C0533
:1042C000A86D4146401CA865062085F85D0004F5F0
:1042D000A164306803F02BFD80202060ACE7D4F8A7
:1042E0000805C006A8D595F83F00032803D068B19B
:1042F00002280BD012E0D4F80C0540F00200C4F8FC
:104300000C054146306803F012FD07E0D4F80005C3
:1043100020F0804040F00040C4F80005032085F8FC
:104320005D00C4F8087587E72DE9F047026802EBE5
:104330004114D4F808254FF0040C520709D5C4F8ED
:1043400008C5D4F80C0540F00200C4F80C05BDE81F
:10435000F087D4F8082501EB810392064FF002069E
:1043600000EBC30514D52022C4F8082595F83D209C
:10437000012AECD185F85DC0D4F80C2542F0020288
:10438000C4F80C25006803F0D2FC85F85C60DEE719
:10439000D4F808254FF0000352060FD585F85DC00C
:1043A000AB65D4F80C2542F00202C4F80C25006875
:1043B00004F5A16403F0BBFC402010E0D4F808250C
:1043C00092050ED5D4F80C2542F00202C4F80C2553
:1043D000006804F5A16403F0AAFC4FF400702060AB
:1043E000B5E7D4F808254FF00108D20710D0AB6527
:1043F000D4F80C2542F00202C4F80C25006804F53C
:10440000A16403F094FCC4F8008085F85D809EE709
:10441000D4F808254FF0080912074FF0050A0DD50A
:10442000C4F80895D4F80C2542F00202C4F80C2513
:10443000006803F07CFC85F85DA088E7D4F80825C7
:104440004FF01007D20610D5AB65D4F80C2542F01A
:104450000202C4F80C25006804F5A16403F067FCAF
:10446000032085F85D00276071E7D4F8082512065F
:104470000FD5D4F80C2542F00202C4F80C250068D0
:1044800004F5A16403F053FC062085F85D0080204C
:10449000A5E7D4F80825520511D5D4F80C2542F02B
:1044A0000202C4F80C25006804F5A16403F03FFC87
:1044B00027604FF48060206085F85D9047E7D4F86E
:1044C000082592078CD5D4F80C2522F00202C4F8F6
:1044D0000C2595F85D20012A0AD0032A15D0042A5C
:1044E00016D0052A19D0062A1AD0082A18D02AE090
:1044F00085F85C8095F83F20022A24D195F8512058
:1045000082F0010285F851201DE085F85C601AE018
:1045100085F85C6085F83D3015E085F85CA012E018
:10452000AA6D571CAF65032A03D9AB6585F85CC03B
:1045300001E085F85C60D4F8002522F0804242F06A
:104540000042C4F80025C4F8086595F85C20FDF722
:10455000F0FEFCE67CB504680546D4F84004019002
:10456000D4F8400420F02E000090019880070DD56B
:104570000198C00706D0A06920F00051A16128462B
:10458000FDF780FE009840F00200009001980007BF
:104590002CD5009840F008000090019840071AD5EB
:1045A000A869022803D0E86803280CD00FE001981E
:1045B000C0F341400228286803D0012103F006FE21
:1045C00005E00221FAE74EF66020C4F8040428460C
:1045D000FDF758FE0AE0D4F8400420F02E00C4F89D
:1045E00040042868816941F000518161019880068A
:1045F000009802D540F020000090C4F840047CBD33
:104600002DE9F041024600680646016AC1F34343C2
:1046100001F00F07C1F30A14022B25D1002C23D07F
:1046200007EB870102EBC105696C00291CD022460B
:1046300003F0EBFD686C20446864E86C2044E86497
:1046400006EB4710D0F81015084A11420CD0D0F8EC
:10465000001521F0804141F00041C0F8001515F827
:10466000500F80F001002870BDE8F0810000F81FB5
:10467000FEE700000148FDF7EBBF00004403001017
:104680000148FEF743B80000440300100148FDF75D
:10469000DFBF0000740100100148FEF737B80000CA
:1046A000740100107047704710B5806B01680A688C
:1046B00022F480620A6000214185426B1165826BA1
:1046C000116590F83D302022602B80F83D2080F865
:1046D0003E1002D0FEF71EF910BDFDF7B6FF10BD6B
:1046E0000F4810B50D4901600E49416000214FF49B
:1046F00080428160C0E9031241618161C161016250
:10470000FEF70CF9002808D007480D21417004215C
:104710000170BDE81040FCF7DDBC10BD0058004042
:1047200074010010A08601000400001070B504465A
:1047300090F83D0000252026292821D02A281FD0C6
:1047400094F83D00602801D084F83D60256384F82A
:104750003E502068016821F4006101602068016812
:1047600009051DD5416821F4006141601C48616B59
:1047700059B10865606BFDF7D5FBC0B1606B0CE00B
:104780002563282084F83D00E3E7A16B79B1086533
:10479000A06BFDF7C7FB50B1A06B016D884706E029
:1047A00094F83D00602814D02046FEF7B3F894F842
:1047B0003D0028280CD1206C400709D50948E0624B
:1047C000256384F83D6084F83E502046FEF72AF9C0
:1047D00070BD84F83D602046FDF737FFE7E7000035
:1047E000A94600080000FFFF01684A69D24352054C
:1047F0000CD46FF480624A6104210164002140F806
:10480000301F20224273017301207047002070473F
:104810000D4810B50B4901600C49416000214FF46F
:1048200080428160C0E9031241618161C16101621E
:10483000FEF774F8002803D0BDE81040FCF74ABC2E
:1048400010BD0000005C0040C8010010A0860100FF
:1048500010B5C26A448D314B0168032C03D0448DDE
:10486000022C15D00AE0042A03D0082A01D09A426B
:1048700003D10A6822F480620A6001680A69416A09
:104880004B1C43620A70418D491E4185002010BDBA
:10489000042A15D0082A13D09A4211D0022A0A6895
:1048A00002D022F4806201E042F480620A6090F853
:1048B0003D1090F83E2001F003010A43026305E039
:1048C000122202630A6842F400720A6001680A69EF
:1048D000416A4B1C43620A70418D491E4185016843
:1048E0000A69416A4B1C43620A70418D491E418529
:1048F00001684A6822F440724A60202180F83D1025
:1049000090F83E200021402A80F83E1002D0FEF7A9
:104910008AF8BBE7FEF700FAB8E700000000FFFFE7
:1049200010B590F83D10222953D1418D032909D9A2
:1049300001680A69416A4B1C43620A70418D491E35
:10494000418546E0022909D0032907D0C16A02291E
:1049500001680A6818D022F4806217E0C16A02294F
:1049600001680A6807D022F480620A6001680A6858
:1049700042F4006201E042F480620A60006841682B
:1049800021F48061416024E042F480620A600168A1
:104990004A6822F4E0624A6001680A69416A4B1C75
:1049A00043620A70418D491E418590F83D1090F890
:1049B0003E2001F003010A430263202180F83D10EC
:1049C00090F83E200021402A80F83E1003D0FEF7E8
:1049D0002AF8002010BDFEF79FF9FAE72DE9F84FFD
:1049E0000446C06A1E460D469246042807D0012898
:1049F00005D010F5803F02D0206B112809D1206826
:104A0000016841F4806101602068016841F48071AF
:104A1000016013464FF001180022414620460096DF
:104A200000F07CFBB8BB206908F10109B0F5804FAC
:104A300012D00620216800EAD51747F0F00008617F
:104A40003346524608F10701204600F097FB38B183
:104A5000206C04282FD01EE0E8B240F001001FE0D7
:104A60002168E8B20861334652464946204600F0C4
:104A700085FB0028ECD120684169816900910168BB
:104A800041F4807101605346002241462046009661
:104A900000F044FB10B10320BDE8F88F47F0F100AF
:104AA00021680861334652464946204600F066FBBD
:104AB0000028CDD1F0E70120EEE70000F8B504466C
:104AC000C06A1E460D461746042807D0012805D0A7
:104AD00010F5803F02D0206B122804D120680168B5
:104AE00041F480710160134600224FF0011120460D
:104AF000009600F013FBA0B92069B0F5804F12D0EA
:104B00000620216800EAD51040F0F0000861334625
:104B10003A460E49204600F031FB38B1206C04289B
:104B200011D00320F8BD05F0FE0000E0E8B22168D6
:104B30000861064933463A46891F204600F01EFBAD
:104B40000028EBD1F8BD0120F8BD000008000100ED
:104B500010B5C26A90F83D10212927D1418D49B185
:104B6000416A4A1C4262026809781161418D491EFE
:104B700041851BE020230021042A19D0082A17D0E0
:104B800012F5803F14D00268546824F4E064546045
:104B900090F83D2090F83E4002F003021443046375
:104BA00080F83E1080F83D30FDF73EFF002010BD3C
:104BB0000268546824F4E06454600268146844F4A1
:104BC00000741460016380F83D3090F83E2080F856
:104BD0003E10402AE8D1FEF7A0F8E7E710B590F8BC
:104BE0003D1090F83E30C26A048D24B121293AD09C
:104BF000402B36D07AE02129FAD120230021042A43
:104C000019D0082A17D012F5803F14D002685468D2
:104C100024F4E064546090F83D2090F83E4002F0A7
:104C200003021443046380F83E1080F83D3000BF57
:104C3000FDF7FAFE5AE00268546824F4E064546018
:104C40000268146844F400741460016380F83D3015
:104C500090F83E2080F83E10402AE9D1FEF75DF83A
:104C600044E0222942D1418D21B190F83E104029E3
:104C700006D032E00068416821F48061416035E08F
:104C8000016D31B1016D012911D0016D022915D0DD
:104C90002CE0C16C0129816C02D0C1F3072108E02E
:104CA0000268C9B21161016D891C01651EE0816C49
:104CB000C9B202681161016D491CF6E790F83D1018
:104CC000222904D090F83D10212906D00EE000687A
:104CD000016841F48071016008E0416A4A1C426247
:104CE000026809781161418D491E4185002010BD7F
:104CF00078B590F83E40C26A036B90F83D6000259D
:104D00000168222E06D1066D0EB9402C02D0046D2A
:104D100024B107E048698869009031E00469B4F57E
:104D2000404F08D0448D8CB1448D012C16D0428D5B
:104D3000022A2DD038E04A698A6900920A6842F452
:104D400080720A60016D491C016519E04A698A692F
:104D500000920A6842F400720A6010E0042A11D03E
:104D6000082A0FD0122B0DD0C26A022A1CD00A6862
:104D700022F480620A6001684A69896900910565C8
:104D8000002078BD0A6822F480620A600168DDE7CD
:104D9000C26A022A08D00A6822F480620A600168A6
:104DA0000A6842F40062E5E70A6842F48062E1E7DB
:104DB00090F83E10402909D00169B1F5804F10D01C
:104DC000016D99B1016D012915D01CE0016D19B972
:104DD000416C01F0FE0114E0416CC9B241F00101E7
:104DE0000FE090F83D102129F6D1F1E7416CF02257
:104DF00001F4407103E0416CF12201F4407142EA98
:104E0000D11100680161002070470000094808497D
:104E10004FF4804201600849416000218160C0E98F
:104E2000031241618161C1610162FDF777BD00003C
:104E30000054004044030010A08601002DE9F84F03
:104E40000446006889460B9D01689846174641F460
:104E5000806101602068016841F480710160009503
:104E60004FF0011A0022514620460A9B00F056F9E5
:104E7000F0BB216809F0FE0008610AF1010B2B4626
:104E8000594620460A9A00F079F918B1206C042896
:104E900012D03AE020684169806900902A46204695
:104EA0000A9900F0E0F950B1206C04282DD1206857
:104EB000016841F4007101600120BDE8F88FFEB285
:104EC000B8F1010F09D02168380A08612A46204646
:104ED0000A9900F0C8F90028E6D1206806612A4640
:104EE00020460A9900F0BFF90028DDD1206800E0D3
:104EF0000BE0016841F48071016000950022514689
:104F000020460A9B00F00AF908B10320D5E7216882
:104F100009F0FF0040F0010008612B465946204689
:104F20000A9A00F02BF90028B0D1C6E72DE9F84322
:104F3000044600680D46DDE9089701689846164664
:104F400041F4807101604B4600224FF00111204670
:104F5000009700F0E3F8E8B9216805F0FE00086169
:104F60003B464A461849204600F008F928B1206C13
:104F700004280FD10120BDE8F883206841698069C9
:104F800000903A464946204600F06DF920B1206C69
:104F9000042813D00320EEE7F5B2B8F1010F09D0D1
:104FA0002168300A08613A464946204600F05BF91C
:104FB0000028ECD1206805610020DCE7206801684A
:104FC00041F400710160D5E7020001002DE9F041D4
:104FD00090F83D40C56A00231F4F202601686FF4FA
:104FE0008062042D01D0082D01D1282C05D0212C60
:104FF00017D04A610020BDE8F081C7624C6824F4F4
:10500000E0644C6001684A6101680A6822F48062C9
:105010000A60036380F83D6080F83E30FDF702FDD2
:10502000E8E7C76290F83D4090F83E5004F0030472
:105030002543056380F83D6080F83E304B6823F4DB
:10504000E0634B6001684A6101680A6822F480628B
:105050000A60FEF786F8CDE70000FFFF38B590F84C
:105060003D2001684B6823F4E0634B600368002136
:105070005C6900941C6844F001041C6003681C68AF
:1050800024F480641C602023282A09D02A2A07D00F
:10509000292A05D0046B222C0CD0222A0AD010E039
:1050A000094AC262016380F83D3080F83E10FDF786
:1050B000B9FC06E0016380F83D3080F83E10FEF751
:1050C0004FF8002038BD00000000FFFF70B5164605
:1050D0000D4604461AE02046FFF786FB08B1012082
:1050E00070BD681C12D025B1FDF7C6F8801BA84220
:1050F0000CD954F8400F40F0200044F8100900206B
:105100002060202161732073032070BD20684069F6
:10511000C0434007DFD4002070BD00002DE9F047F8
:105120001E4690460D460446C1F30747DDF8209021
:1051300011E0701C0FD02EB1FDF79EF8A0EB090016
:10514000B04208D9002044F8300F20216173207349
:105150000320BDE8F0872068012F0BD0D0F818009D
:1051600025EA00000004000C06D000214145E0D0F3
:105170000020EEE74069F3E70121F7E72DE9F0476A
:105180009A4691460D46044600264FF02008C1F38A
:1051900007472AE020684069C043400512D42068D0
:1051A000016841F40071016021686FF4806048611A
:1051B00004202064266384F83D8084F83C6001204C
:1051C000BDE8F087B9F1FF3F0FD0B9F1000F05D06E
:1051D000FDF752F8A0EB0A01494506D944F8306FB3
:1051E00084F80D8026730320EAE72068012F07D09A
:1051F000D0F8180025EA00000004000CE0D0C9E750
:105200004069F7E72DE9F041002590460E46044637
:10521000202721E04069C043C0060CD421686FF00C
:10522000100048612564256384F83D7084F83C5083
:105230000120BDE8F0812EB1FDF71EF8A0EB0800BB
:10524000B04209D954F8400F40F0200044F8040956
:10525000677025700320ECE720684169C94349065F
:10526000D8D40020E5E770B516460D4604461AE08E
:105270002046FFF7B9FA08B1012070BD681C12D0B2
:1052800025B1FCF7F9FF801BA8420CD954F8400F58
:1052900040F0200044F810090020206020216173B4
:1052A0002073032070BD20684069C0430006DFD42E
:1052B000002070BD04494868044AD063106409683E
:1052C00081F3088800470000000002085C0000101D
:1052D00002488178C170FF2181707047180000106A
:1052E0001FB5FF220A2101A8FAF78EFF4FF496702E
:1052F0000090062301AA10210348FDF797FB01A89F
:1053000000F004F81FBD0000C80100100178012959
:1053100002D14179042901D000BF7047064A417883
:1053200011700549827810310A70C2784A7000798C
:105330008870FBF7A3BD000018000010FEB50D46F5
:1053400006464FF47A7794B202E00120FCF7FCFDA8
:10535000CDE90054B2B20023A12103480297FDF722
:10536000DDFC0028F1D1FEBD4403001010B5044956
:105370000448FBF7B4FE0249491E087010BD000046
:1053800056000010B0A700080B4810B5094901608D
:105390004FF4E1314160002181600C22C160C0E91D
:1053A00004128161C161FEF7B1FD002801D0FBF755
:1053B00091FE10BD004800405C02001010B504488A
:1053C00001F099F8BDE81040014802F04EBB000022
:1053D0009803001010B501220649074801F0ABFA06
:1053E0000649054802F002FBBDE81040024802F001
:1053F00032BB0000917A000898030010A80000104A
:10540000014802F03FBA000098030010FEE70000D8
:105410004FF47A72B0FBF2F270B512F0FF026FF047
:105420007C0312FB03F300EBC3034FF0640493FB14
:10543000F4F3DBB24FF47A7412FB04F403EBC3050C
:1054400005EB031504EB85044FF00A05A0EB0404FB
:1054500094FBF5F4B0FBF5F605FB1605074EE4B238
:1054600006EB010002D0303200F8032C303300F894
:10547000023D303444703035755470BD2401001045
:1054800070470907090E002806DA00F00F0000F146
:10549000E02080F8141D704700F1E02080F800142F
:1054A00070470000BFF34F8F05480168054A01F4BB
:1054B000E06111430160BFF34F8F00BFFDE70000C3
:1054C0000CED00E00400FA050148FCF78FBF000076
:1054D0006007001070B5130712D002F00F03C3F17C
:1054E000100415090023102606EB051506E093426B
:1054F00002D2C65CCE5400E0CC545B1C9D42F6D870
:1055000070BD7047F0B50022B1B01546164601A92E
:10551000C02300244B556D1C875CADB2521C4F5507
:105520006D1C641C92B2ADB2142CF3DB0024274630
:105530004B556D1CADB2641C4F556D1CADB2042CA7
:10554000F6DB761C042EE4DB902002F025FF002021
:1055500002F022FF4FF47A700090C02301AA782154
:105560000448FDF759FB002801D0FCF701F831B0E1
:10557000F0BD000074010010704713B5012201A9AD
:1055800000F002F81CBD00002DE9FE4F144606464F
:1055900020448B464FF00009B0F5004F21D300BFE7
:1055A00000BFFCE706F03F00C0F14005A54201D274
:1055B000641B01E0254600244FF47A7A1FFA85F82F
:1055C0000BEB09078DE88005B2B20023A021074844
:1055D000FDF79AFC18B10120FCF7B6FCF2E7A944EC
:1055E0002E44002CDED1BDE8FE8F000044030010E5
:1055F00010B5FDF7B7FDBDE81040FEF7B4BA0000E6
:1056000030B527489FB00025016841F08051016006
:10561000006800F080501D902248016841F440412C
:1056200001600068022400F440401D900D200090AD
:105630000120019002908005CDE9064004200890E9
:10564000A820CDE9090407200B906846FEF7F8F87A
:10565000FDF728FE18A90F2081E831004FF4A05073
:105660001B90E0021C90052118A8FDF7BDFF20202B
:105670000C90C00016900CA8FDF75AFEFEF772F8C9
:105680004FF47A71B0FBF1F0FEF759FA0420FEF7FF
:1056900049FA00221146501EFDF7D2FD1FB030BD61
:1056A00040380240007000401048016841F4700129
:1056B00001600F48016841F0010101600C4A0021BE
:1056C0000832116002680B4B1A400260031D0A4A3F
:1056D0001A60026822F48022026005480C300160E2
:1056E00002495806803908607047000088ED00E0E4
:1056F00000380240FFFFF6FE10300024F0B50268CB
:10570000234B244D244E254F254C4FF0804C98427E
:1057100009D0604507D0A84205D0B04203D0B842B6
:1057200001D0A04204D122F0700E4A6842EA0E0273
:1057300098421BD0604519D0A84217D0B04215D06E
:10574000B84213D0A04211D0164DA8420ED0164D2B
:10575000A8420BD0154DA84208D0154DA84205D03F
:10576000144DA84202D0144DA84203D122F4407532
:10577000CA682A4302608A68C2620A6882629842E2
:1057800001D0A04201D10969016301214161F0BD4D
:10579000000001400004004000080040000C0040F0
:1057A0000004014000400140004401400048014025
:1057B00000180040001C00400020004010B50123EC
:1057C000046A8B409C430462036A8A401343036269
:1057D00010BD000030B5026A22F001020262026AC6
:1057E000436884690D6824F07304254322F00204A1
:1057F0008A6822430B4CA04202D00B4CA0420BD132
:1058000022F00804CA6823F4407322434C6922F052
:1058100004021C438B6923434360856149684163EB
:10582000026230BD000001400004014030B5026A50
:1058300022F010020262026A436884690D6824F44F
:10584000E64444EA05248D6822F0200242EA05126B
:105850000D4DA84202D00D4DA8420ED1CD6822F0C8
:10586000800242EA05124D6923F4406343EA85034E
:105870008D6922F0400243EA8503436084614968F0
:105880008163026230BD000000000140000401405D
:1058900030B5026A22F480720262036A4268C46907
:1058A00023F4007324F073050C682C438D6843EADD
:1058B00005230D4DA84202D00C4DA8420ED1CD6853
:1058C00023F4006343EA05234D6922F4405242EA7F
:1058D00005128D6923F4806342EA05124260C461B7
:1058E0004968C163036230BD00000140000401400B
:1058F00030B5026A22F480520262046A4268C369C7
:105900000D6823F4E64343EA05238D6824F400542C
:1059100044EA0534084DA84202D0084DA84204D1FB
:105920004D6922F4804242EA85124260C3614968AF
:105930000164046230BD0000000001400004014029
:1059400010B5FCF799FC054CE168401A142804D9FD
:10595000FFF7C6FCFCF790FCE06010BD18000010DB
:105960002DE9F84FF74C0027F748A17802260B25C0
:10597000DFF8D8834FF0060BB9464FF4805A0B2955
:105980004CD2DFE801F04B065F84FDFCFBFAF9F82E
:10599000F700EC4BED491433524601F5985003F0F3
:1059A00084FE20B1EAA002F083FDECA05EE0A670C8
:1059B0006069902804D2E6A002F07AFDECA027E00E
:1059C000E249802201F5AB50FAF70CFCF14E317A36
:1059D000D6F8050061F31F60A061327BD6F809108C
:1059E00062F31F61A16320F00F01E161000701D0A4
:1059F0001031E161012269460820FFF79FFC3078F1
:105A00009DF8001088420BD0D1A002F051FDE2A019
:105A100002F04EFDE7A002F04BFDA570BDE8F88F47
:105A2000E5A002F045FDE7A0A16902F041FDE1A07B
:105A300002F03EFDD749C54C303980341DCC81E899
:105A40001D00EBE7D34AD3498023203A01F18000BF
:105A5000FAF78FFCCF4910222039A1F11000FAF794
:105A6000F3FB48B1BAA002F023FDDBA002F020FD59
:105A7000D0A002F01DFD3AE1CFA002F019FDDDA09B
:105A800002F016FDCBA002F013FD032089E0902167
:105A9000DC4803F08DFBAB4B10221433AB49D948E3
:105AA000C4F8209003F001FE50B9A9A002F000FD57
:105AB000D5A002F0FDFCBFA002F0FAFCA570667054
:105AC000A24AD64811466369FAF7FCFB57469D4B3C
:105AD0003A4614339D49CB4803F0E7FD50B19CA0F2
